{
  "_format": "hh-sol-artifact-1",
  "contractName": "AuctionFactoryStreak",
  "sourceName": "contracts/streak/AuctionFactoryStreak.sol",
  "abi": [
    {
      "inputs": [
        {
          "internalType": "address",
          "name": "_erc20StreakAddress",
          "type": "address"
        },
        {
          "internalType": "address",
          "name": "_erc721StreakContract",
          "type": "address"
        },
        {
          "internalType": "address",
          "name": "_erc1155StreakContract",
          "type": "address"
        }
      ],
      "stateMutability": "nonpayable",
      "type": "constructor"
    },
    {
      "anonymous": false,
      "inputs": [
        {
          "indexed": true,
          "internalType": "address",
          "name": "auctionContract",
          "type": "address"
        }
      ],
      "name": "AuctionCancelled",
      "type": "event"
    },
    {
      "anonymous": false,
      "inputs": [
        {
          "indexed": true,
          "internalType": "address",
          "name": "auctionContract",
          "type": "address"
        },
        {
          "indexed": true,
          "internalType": "address",
          "name": "beneficiary",
          "type": "address"
        },
        {
          "indexed": true,
          "internalType": "uint256",
          "name": "tokenId",
          "type": "uint256"
        }
      ],
      "name": "AuctionCreated",
      "type": "event"
    },
    {
      "anonymous": false,
      "inputs": [
        {
          "indexed": true,
          "internalType": "address",
          "name": "bidder",
          "type": "address"
        },
        {
          "indexed": false,
          "internalType": "uint256",
          "name": "bid",
          "type": "uint256"
        },
        {
          "indexed": true,
          "internalType": "address",
          "name": "auctionContract",
          "type": "address"
        }
      ],
      "name": "BidPlaced",
      "type": "event"
    },
    {
      "anonymous": false,
      "inputs": [
        {
          "indexed": true,
          "internalType": "address",
          "name": "claimer",
          "type": "address"
        },
        {
          "indexed": false,
          "internalType": "address",
          "name": "withdrawalAccount",
          "type": "address"
        },
        {
          "indexed": false,
          "internalType": "uint256",
          "name": "withdrawalAmount",
          "type": "uint256"
        },
        {
          "indexed": true,
          "internalType": "address",
          "name": "auctionContract",
          "type": "address"
        }
      ],
      "name": "FundsClaimed",
      "type": "event"
    },
    {
      "anonymous": false,
      "inputs": [
        {
          "indexed": true,
          "internalType": "address",
          "name": "claimer",
          "type": "address"
        },
        {
          "indexed": true,
          "internalType": "address",
          "name": "auctionContract",
          "type": "address"
        }
      ],
      "name": "ItemClaimed",
      "type": "event"
    },
    {
      "inputs": [
        {
          "internalType": "address",
          "name": "",
          "type": "address"
        }
      ],
      "name": "auctionParameters",
      "outputs": [
        {
          "internalType": "uint256",
          "name": "startingBid",
          "type": "uint256"
        },
        {
          "internalType": "uint256",
          "name": "bidStep",
          "type": "uint256"
        },
        {
          "internalType": "uint256",
          "name": "startTimestamp",
          "type": "uint256"
        },
        {
          "internalType": "uint256",
          "name": "endTimestamp",
          "type": "uint256"
        },
        {
          "internalType": "uint256",
          "name": "overtimeSeconds",
          "type": "uint256"
        },
        {
          "internalType": "uint256",
          "name": "feeRate",
          "type": "uint256"
        }
      ],
      "stateMutability": "view",
      "type": "function"
    },
    {
      "inputs": [
        {
          "internalType": "address",
          "name": "auctionAddress",
          "type": "address"
        }
      ],
      "name": "cancelAuction",
      "outputs": [],
      "stateMutability": "nonpayable",
      "type": "function"
    },
    {
      "inputs": [
        {
          "internalType": "address",
          "name": "auctionAddress",
          "type": "address"
        }
      ],
      "name": "claimFunds",
      "outputs": [],
      "stateMutability": "nonpayable",
      "type": "function"
    },
    {
      "inputs": [
        {
          "internalType": "address",
          "name": "auctionAddress",
          "type": "address"
        }
      ],
      "name": "claimItem",
      "outputs": [],
      "stateMutability": "nonpayable",
      "type": "function"
    },
    {
      "inputs": [
        {
          "internalType": "address",
          "name": "beneficiary",
          "type": "address"
        },
        {
          "internalType": "uint256",
          "name": "tokenId",
          "type": "uint256"
        },
        {
          "internalType": "uint256",
          "name": "bidStep",
          "type": "uint256"
        },
        {
          "internalType": "uint256",
          "name": "startingBid",
          "type": "uint256"
        },
        {
          "internalType": "uint256",
          "name": "startTimestamp",
          "type": "uint256"
        },
        {
          "internalType": "uint256",
          "name": "endTimestamp",
          "type": "uint256"
        },
        {
          "internalType": "bool",
          "name": "acceptERC20",
          "type": "bool"
        },
        {
          "internalType": "bool",
          "name": "isErc1155",
          "type": "bool"
        },
        {
          "internalType": "uint256",
          "name": "quantity",
          "type": "uint256"
        },
        {
          "internalType": "uint256",
          "name": "feeRate",
          "type": "uint256"
        },
        {
          "internalType": "uint256",
          "name": "overtimeSeconds",
          "type": "uint256"
        }
      ],
      "name": "createAuction",
      "outputs": [],
      "stateMutability": "nonpayable",
      "type": "function"
    },
    {
      "inputs": [],
      "name": "erc1155StreakContract",
      "outputs": [
        {
          "internalType": "contract IERC1155",
          "name": "",
          "type": "address"
        }
      ],
      "stateMutability": "view",
      "type": "function"
    },
    {
      "inputs": [],
      "name": "erc20StreakContract",
      "outputs": [
        {
          "internalType": "contract IERC20",
          "name": "",
          "type": "address"
        }
      ],
      "stateMutability": "view",
      "type": "function"
    },
    {
      "inputs": [],
      "name": "erc721StreakContract",
      "outputs": [
        {
          "internalType": "contract IERC721",
          "name": "",
          "type": "address"
        }
      ],
      "stateMutability": "view",
      "type": "function"
    },
    {
      "inputs": [],
      "name": "name",
      "outputs": [
        {
          "internalType": "bytes32",
          "name": "",
          "type": "bytes32"
        }
      ],
      "stateMutability": "view",
      "type": "function"
    },
    {
      "inputs": [
        {
          "internalType": "address",
          "name": "auctionAddress",
          "type": "address"
        }
      ],
      "name": "placeBid",
      "outputs": [],
      "stateMutability": "payable",
      "type": "function"
    },
    {
      "inputs": [
        {
          "internalType": "address",
          "name": "auctionAddress",
          "type": "address"
        },
        {
          "internalType": "uint256",
          "name": "amount",
          "type": "uint256"
        }
      ],
      "name": "placeBidERC20",
      "outputs": [],
      "stateMutability": "nonpayable",
      "type": "function"
    }
  ],
  "bytecode": "0x60806040527f41756374696f6e466163746f727953747265616b0000000000000000000000006000553480156200003557600080fd5b506040516200326c3803806200326c8339810160408190526200005891620000c3565b600180546001600160a01b03199081163317909155600280546001600160a01b039586169083161790556003805493851693821693909317909255600480549190931691161790556200010c565b80516001600160a01b0381168114620000be57600080fd5b919050565b600080600060608486031215620000d8578283fd5b620000e384620000a6565b9250620000f360208501620000a6565b91506200010360408501620000a6565b90509250925092565b613150806200011c6000396000f3fe608060405260043610620000aa5760003560e01c806381cefd0c116200006d57806381cefd0c146200018b57806392011b3114620001a3578063ba12880f14620001c8578063d22cf3a414620001ed578063e49401571462000212578063f9c2f5e2146200022957620000aa565b806306fdde0314620000af5780636159a7cc14620000df578063693d0df214620001185780637595a61b146200013f5780637d9653461462000164575b600080fd5b348015620000bc57600080fd5b50620000c762000241565b604051620000d69190620021a0565b60405180910390f35b348015620000ec57600080fd5b5062000104620000fe36600462001f4e565b62000247565b604051620000d696959493929190620021a9565b3480156200012557600080fd5b506200013d6200013736600462001f4e565b6200027c565b005b3480156200014c57600080fd5b506200013d6200015e36600462001fba565b62000a84565b3480156200017157600080fd5b506200017c62000d4a565b604051620000d6919062002094565b3480156200019857600080fd5b506200017c62000d59565b348015620001b057600080fd5b506200013d620001c236600462001f8c565b62000d68565b348015620001d557600080fd5b506200013d620001e736600462001f4e565b62001372565b348015620001fa57600080fd5b506200013d6200020c36600462001f4e565b620017ba565b6200013d6200022336600462001f4e565b62001944565b3480156200023657600080fd5b506200017c62001f0e565b60005481565b600560208190526000918252604090912080546001820154600283015460038401546004850154949095015492949193909286565b6001600160a01b038116600081815260056020818152604092839020835160c08101855281548152600182015481840152600282015481860152600382015460608201526004808301546080830152919093015460a08401528351634d41504d60e11b8152935186959394639a82a09a9381840193909291829003018186803b1580156200030957600080fd5b505afa1580156200031e573d6000803e3d6000fd5b505050506040513d601f19601f820116820180604052508101906200034491906200205c565b8062000354575080606001514210155b6200035e57600080fd5b600080600080856001600160a01b0316639a82a09a6040518163ffffffff1660e01b815260040160206040518083038186803b1580156200039e57600080fd5b505afa158015620003b3573d6000803e3d6000fd5b505050506040513d601f19601f82011682018060405250810190620003d991906200205c565b156200046c5760405163019c219f60e71b81523394506001600160a01b0387169063ce10cf80906200041090879060040162002094565b60206040518083038186803b1580156200042957600080fd5b505afa1580156200043e573d6000803e3d6000fd5b505050506040513d601f19601f820116820180604052508101906200046491906200207b565b9250620009b7565b856001600160a01b03166391f901576040518163ffffffff1660e01b815260040160206040518083038186803b158015620004a657600080fd5b505afa158015620004bb573d6000803e3d6000fd5b505050506040513d601f19601f82011682018060405250810190620004e1919062001f6d565b6001600160a01b0316336001600160a01b031614156200050057600080fd5b856001600160a01b03166338af3eed6040518163ffffffff1660e01b815260040160206040518083038186803b1580156200053a57600080fd5b505afa1580156200054f573d6000803e3d6000fd5b505050506040513d601f19601f8201168201806040525081019062000575919062001f6d565b6001600160a01b0316336001600160a01b03161415620007435760648560a00151108015620006165750856001600160a01b0316634356fb8a6040518163ffffffff1660e01b815260040160206040518083038186803b158015620005d957600080fd5b505afa158015620005ee573d6000803e3d6000fd5b505050506040513d601f19601f820116820180604052508101906200061491906200205c565b155b6200062057600080fd5b856001600160a01b03166391f901576040518163ffffffff1660e01b815260040160206040518083038186803b1580156200065a57600080fd5b505afa1580156200066f573d6000803e3d6000fd5b505050506040513d601f19601f8201168201806040525081019062000695919062001f6d565b9350620007376064620007308760a001516064620006b491906200222f565b896001600160a01b031663d57bde796040518163ffffffff1660e01b815260040160206040518083038186803b158015620006ee57600080fd5b505afa15801562000703573d6000803e3d6000fd5b505050506040513d601f19601f820116820180604052508101906200072991906200207b565b9062001f1d565b9062001f32565b925060019150620009b7565b856001600160a01b031663f77c47916040518163ffffffff1660e01b815260040160206040518083038186803b1580156200077d57600080fd5b505afa15801562000792573d6000803e3d6000fd5b505050506040513d601f19601f82011682018060405250810190620007b8919062001f6d565b6001600160a01b0316336001600160a01b031614156200092f5760008560a00151118015620008595750856001600160a01b031663ec351aee6040518163ffffffff1660e01b815260040160206040518083038186803b1580156200081c57600080fd5b505afa15801562000831573d6000803e3d6000fd5b505050506040513d601f19601f820116820180604052508101906200085791906200205c565b155b6200086357600080fd5b856001600160a01b03166391f901576040518163ffffffff1660e01b815260040160206040518083038186803b1580156200089d57600080fd5b505afa158015620008b2573d6000803e3d6000fd5b505050506040513d601f19601f82011682018060405250810190620008d8919062001f6d565b9350620009236064620007308760a00151896001600160a01b031663d57bde796040518163ffffffff1660e01b815260040160206040518083038186803b158015620006ee57600080fd5b925060019050620009b7565b60405163019c219f60e71b81523394506001600160a01b0387169063ce10cf80906200096090879060040162002094565b60206040518083038186803b1580156200097957600080fd5b505afa1580156200098e573d6000803e3d6000fd5b505050506040513d601f19601f82011682018060405250810190620009b491906200207b565b92505b82620009c257600080fd5b604051634c9a2b5960e01b81526001600160a01b03871690634c9a2b5990620009f890339088908890889088906004016200211c565b600060405180830381600087803b15801562000a1357600080fd5b505af115801562000a28573d6000803e3d6000fd5b50505050866001600160a01b0316336001600160a01b03167fb98d03559819f3edb4aed32c4f790c84f65705abd045d5cd12fbe6fbf89e0ea8868660405162000a7392919062002187565b60405180910390a350505050505050565b6001546001600160a01b0316331462000a9c57600080fd5b6001600160a01b038b1662000ab057600080fd5b6000891162000abe57600080fd5b85871062000acb57600080fd5b4287101562000ad957600080fd5b606482111562000ae857600080fd5b831562000afd576000831162000afd57600080fd5b6000338c87878e88600260009054906101000a90046001600160a01b0316600360009054906101000a90046001600160a01b0316600460009054906101000a90046001600160a01b031660405162000b559062001f40565b62000b6999989796959493929190620020a8565b604051809103906000f08015801562000b86573d6000803e3d6000fd5b506040805160c0810182528b815260208082018e81528284018d8152606084018d81526080850189815260a086018b81526001600160a01b03891660009081526005968790529790972095518655925160018601559051600285015551600384015551600483015591519101559050841562000c7f57600460009054906101000a90046001600160a01b03166001600160a01b031663f242432a33838e886040518563ffffffff1660e01b815260040162000c4594939291906200214f565b600060405180830381600087803b15801562000c6057600080fd5b505af115801562000c75573d6000803e3d6000fd5b5050505062000cfb565b600360009054906101000a90046001600160a01b03166001600160a01b03166342842e0e33838e6040518463ffffffff1660e01b815260040162000cc693929190620020f8565b600060405180830381600087803b15801562000ce157600080fd5b505af115801562000cf6573d6000803e3d6000fd5b505050505b8a8c6001600160a01b0316826001600160a01b03167f261f6e6830ed857876d5aa4eca876ccf116d09b91a6675e3e1a1920d53ef585e60405160405180910390a4505050505050505050505050565b6004546001600160a01b031681565b6003546001600160a01b031681565b6001600160a01b038216600090815260056020818152604092839020835160c08101855281548152600182015492810192909252600281015493820184905260038101546060830152600481015460808301529091015460a0820152839142101562000dd357600080fd5b8060600151421062000de457600080fd5b816001600160a01b0316639a82a09a6040518163ffffffff1660e01b815260040160206040518083038186803b15801562000e1e57600080fd5b505afa15801562000e33573d6000803e3d6000fd5b505050506040513d601f19601f8201168201806040525081019062000e5991906200205c565b1562000e6457600080fd5b816001600160a01b031663feff81a66040518163ffffffff1660e01b815260040160206040518083038186803b15801562000e9e57600080fd5b505afa15801562000eb3573d6000803e3d6000fd5b505050506040513d601f19601f8201168201806040525081019062000ed991906200205c565b62000ee357600080fd5b816001600160a01b031663f77c47916040518163ffffffff1660e01b815260040160206040518083038186803b15801562000f1d57600080fd5b505afa15801562000f32573d6000803e3d6000fd5b505050506040513d601f19601f8201168201806040525081019062000f58919062001f6d565b6001600160a01b0316336001600160a01b0316141562000f7757600080fd5b816001600160a01b03166338af3eed6040518163ffffffff1660e01b815260040160206040518083038186803b15801562000fb157600080fd5b505afa15801562000fc6573d6000803e3d6000fd5b505050506040513d601f19601f8201168201806040525081019062000fec919062001f6d565b6001600160a01b0316336001600160a01b031614156200100b57600080fd5b600083116200101957600080fd5b600083836001600160a01b031663ce10cf80336040518263ffffffff1660e01b81526004016200104a919062002094565b60206040518083038186803b1580156200106357600080fd5b505afa15801562001078573d6000803e3d6000fd5b505050506040513d601f19601f820116820180604052508101906200109e91906200207b565b620010aa9190620021d1565b9050826001600160a01b031663d57bde796040518163ffffffff1660e01b815260040160206040518083038186803b158015620010e657600080fd5b505afa158015620010fb573d6000803e3d6000fd5b505050506040513d601f19601f820116820180604052508101906200112191906200207b565b6200113b5781518110156200113557600080fd5b620011ce565b8160200151836001600160a01b031663d57bde796040518163ffffffff1660e01b815260040160206040518083038186803b1580156200117a57600080fd5b505afa1580156200118f573d6000803e3d6000fd5b505050506040513d601f19601f82011682018060405250810190620011b591906200207b565b620011c19190620021d1565b811015620011ce57600080fd5b6002546040516323b872dd60e01b81526001600160a01b03909116906323b872dd906200120490339089908990600401620020f8565b602060405180830381600087803b1580156200121f57600080fd5b505af115801562001234573d6000803e3d6000fd5b505050506040513d601f19601f820116820180604052508101906200125a91906200205c565b6200126457600080fd5b60405163d98b9bb560e01b81526001600160a01b0384169063d98b9bb59062001294903390859060040162002187565b600060405180830381600087803b158015620012af57600080fd5b505af1158015620012c4573d6000803e3d6000fd5b50505050428260600151620012da91906200222f565b826080015111156200131e5760808201516001600160a01b0386166000908152600560205260408120600301805490919062001318908490620021d1565b90915550505b846001600160a01b0316336001600160a01b03167f6f25148c4fd0f2b2e4d416a26d37d4376c0b65a426b57a537356a5e1e9d03fda83604051620013639190620021a0565b60405180910390a35050505050565b6001600160a01b038116600081815260056020818152604092839020835160c08101855281548152600182015481840152600282015481860152600382015460608201526004808301546080830152919093015460a08401528351631dd285e160e01b8152935186959394631dd285e19381840193909291829003018186803b158015620013ff57600080fd5b505afa15801562001414573d6000803e3d6000fd5b505050506040513d601f19601f820116820180604052508101906200143a91906200205c565b156200144557600080fd5b816001600160a01b0316639a82a09a6040518163ffffffff1660e01b815260040160206040518083038186803b1580156200147f57600080fd5b505afa15801562001494573d6000803e3d6000fd5b505050506040513d601f19601f82011682018060405250810190620014ba91906200205c565b80620014ca575080606001514210155b620014d457600080fd5b816001600160a01b0316639a82a09a6040518163ffffffff1660e01b815260040160206040518083038186803b1580156200150e57600080fd5b505afa15801562001523573d6000803e3d6000fd5b505050506040513d601f19601f820116820180604052508101906200154991906200205c565b80620015eb575060006001600160a01b0316826001600160a01b03166391f901576040518163ffffffff1660e01b815260040160206040518083038186803b1580156200159557600080fd5b505afa158015620015aa573d6000803e3d6000fd5b505050506040513d601f19601f82011682018060405250810190620015d0919062001f6d565b6001600160a01b0316148015620015eb575080606001514210155b156200168a57816001600160a01b03166338af3eed6040518163ffffffff1660e01b815260040160206040518083038186803b1580156200162b57600080fd5b505afa15801562001640573d6000803e3d6000fd5b505050506040513d601f19601f8201168201806040525081019062001666919062001f6d565b6001600160a01b0316336001600160a01b0316146200168457600080fd5b6200171d565b816001600160a01b03166391f901576040518163ffffffff1660e01b815260040160206040518083038186803b158015620016c457600080fd5b505afa158015620016d9573d6000803e3d6000fd5b505050506040513d601f19601f82011682018060405250810190620016ff919062001f6d565b6001600160a01b0316336001600160a01b0316146200171d57600080fd5b604051631a42e92360e21b81526001600160a01b0383169063690ba48c906200174b90339060040162002094565b600060405180830381600087803b1580156200176657600080fd5b505af11580156200177b573d6000803e3d6000fd5b50506040516001600160a01b03861692503391507f63913bb73e0fc7d15c1d04ff7e738affa312fb35cc4441a22e08a18c01cd3fcb90600090a3505050565b6001546001600160a01b03163314620017d257600080fd5b6001600160a01b038116600081815260056020818152604092839020835160c08101855281548152600182015481840152600282015481860152600382015460608201526004808301546080830152919093015460a08401528351634d41504d60e11b8152935186959394639a82a09a9381840193909291829003018186803b1580156200185f57600080fd5b505afa15801562001874573d6000803e3d6000fd5b505050506040513d601f19601f820116820180604052508101906200189a91906200205c565b15620018a557600080fd5b80606001514210620018b657600080fd5b816001600160a01b0316638fa8b7906040518163ffffffff1660e01b8152600401600060405180830381600087803b158015620018f257600080fd5b505af115801562001907573d6000803e3d6000fd5b50506040516001600160a01b03861692507fc076344f4d1b12b00186954100df09db17044db6418a64c198cd093344c659109150600090a2505050565b6001600160a01b038116600090815260056020818152604092839020835160c08101855281548152600182015492810192909252600281015493820184905260038101546060830152600481015460808301529091015460a08201528291421015620019af57600080fd5b80606001514210620019c057600080fd5b816001600160a01b0316639a82a09a6040518163ffffffff1660e01b815260040160206040518083038186803b158015620019fa57600080fd5b505afa15801562001a0f573d6000803e3d6000fd5b505050506040513d601f19601f8201168201806040525081019062001a3591906200205c565b1562001a4057600080fd5b816001600160a01b031663feff81a66040518163ffffffff1660e01b815260040160206040518083038186803b15801562001a7a57600080fd5b505afa15801562001a8f573d6000803e3d6000fd5b505050506040513d601f19601f8201168201806040525081019062001ab591906200205c565b1562001ac057600080fd5b816001600160a01b031663f77c47916040518163ffffffff1660e01b815260040160206040518083038186803b15801562001afa57600080fd5b505afa15801562001b0f573d6000803e3d6000fd5b505050506040513d601f19601f8201168201806040525081019062001b35919062001f6d565b6001600160a01b0316336001600160a01b0316141562001b5457600080fd5b816001600160a01b03166338af3eed6040518163ffffffff1660e01b815260040160206040518083038186803b15801562001b8e57600080fd5b505afa15801562001ba3573d6000803e3d6000fd5b505050506040513d601f19601f8201168201806040525081019062001bc9919062001f6d565b6001600160a01b0316336001600160a01b0316141562001be857600080fd5b6000341162001bf657600080fd5b600034836001600160a01b031663ce10cf80336040518263ffffffff1660e01b815260040162001c27919062002094565b60206040518083038186803b15801562001c4057600080fd5b505afa15801562001c55573d6000803e3d6000fd5b505050506040513d601f19601f8201168201806040525081019062001c7b91906200207b565b62001c879190620021d1565b9050826001600160a01b031663d57bde796040518163ffffffff1660e01b815260040160206040518083038186803b15801562001cc357600080fd5b505afa15801562001cd8573d6000803e3d6000fd5b505050506040513d601f19601f8201168201806040525081019062001cfe91906200207b565b62001d1857815181101562001d1257600080fd5b62001dab565b8160200151836001600160a01b031663d57bde796040518163ffffffff1660e01b815260040160206040518083038186803b15801562001d5757600080fd5b505afa15801562001d6c573d6000803e3d6000fd5b505050506040513d601f19601f8201168201806040525081019062001d9291906200207b565b62001d9e9190620021d1565b81101562001dab57600080fd5b826001600160a01b0316635d4df574346040518263ffffffff1660e01b81526004016000604051808303818588803b15801562001de757600080fd5b505af115801562001dfc573d6000803e3d6000fd5b505060405163d98b9bb560e01b81526001600160a01b038716935063d98b9bb5925062001e3191503390859060040162002187565b600060405180830381600087803b15801562001e4c57600080fd5b505af115801562001e61573d6000803e3d6000fd5b5050505042826060015162001e7791906200222f565b8260800151111562001ebb5760808201516001600160a01b0385166000908152600560205260408120600301805490919062001eb5908490620021d1565b90915550505b836001600160a01b0316336001600160a01b03167f6f25148c4fd0f2b2e4d416a26d37d4376c0b65a426b57a537356a5e1e9d03fda8360405162001f009190620021a0565b60405180910390a350505050565b6002546001600160a01b031681565b600062001f2b82846200220d565b9392505050565b600062001f2b8284620021ec565b610e93806200228883390190565b60006020828403121562001f60578081fd5b813562001f2b816200225f565b60006020828403121562001f7f578081fd5b815162001f2b816200225f565b6000806040838503121562001f9f578081fd5b823562001fac816200225f565b946020939093013593505050565b60008060008060008060008060008060006101608c8e03121562001fdc578687fd5b8b3562001fe9816200225f565b9a5060208c0135995060408c0135985060608c0135975060808c0135965060a08c0135955060c08c01356200201e8162002278565b945060e08c0135620020308162002278565b809450506101008c013592506101208c013591506101408c013590509295989b509295989b9093969950565b6000602082840312156200206e578081fd5b815162001f2b8162002278565b6000602082840312156200208d578081fd5b5051919050565b6001600160a01b0391909116815260200190565b6001600160a01b03998a168152978916602089015295151560408801529315156060870152608086019290925260a0850152841660c0840152831660e08301529091166101008201526101200190565b6001600160a01b039384168152919092166020820152604081019190915260600190565b6001600160a01b039586168152939094166020840152604083019190915215156060820152901515608082015260a00190565b6001600160a01b0394851681529290931660208301526040820152606081019190915260a06080820181905260009082015260c00190565b6001600160a01b03929092168252602082015260400190565b90815260200190565b958652602086019490945260408501929092526060840152608083015260a082015260c00190565b60008219821115620021e757620021e762002249565b500190565b6000826200220857634e487b7160e01b81526012600452602481fd5b500490565b60008160001904831182151516156200222a576200222a62002249565b500290565b60008282101562002244576200224462002249565b500390565b634e487b7160e01b600052601160045260246000fd5b6001600160a01b03811681146200227557600080fd5b50565b80151581146200227557600080fdfe60806040523480156200001157600080fd5b5060405162000e9338038062000e9383398101604081905262000034916200016b565b60008054336001600160a01b0319918216179091556001805482166001600160a01b038c81169190911790915560028054909216908a161790556007805460ff60201b191664010000000089151581029190911760ff60281b1916650100000000008915150217918290556004879055600586905560ff91041615620000dc5760078054600160301b600160d01b03191666010000000000006001600160a01b038616021790555b60075465010000000000900460ff16156200011257600980546001600160a01b0319166001600160a01b0383161790556200012e565b600880546001600160a01b0319166001600160a01b0384161790555b50505050505050505062000213565b80516001600160a01b03811681146200015557600080fd5b919050565b805180151581146200015557600080fd5b60008060008060008060008060006101208a8c0312156200018a578485fd5b620001958a6200013d565b9850620001a560208b016200013d565b9750620001b560408b016200015a565b9650620001c560608b016200015a565b955060808a0151945060a08a01519350620001e360c08b016200013d565b9250620001f360e08b016200013d565b9150620002046101008b016200013d565b90509295985092959850929598565b610c7080620002236000396000f3fe6080604052600436106101405760003560e01c80638fa8b790116100b6578063d57bde791161006f578063d57bde791461031e578063d98b9bb514610333578063ec351aee14610353578063f23a6e6114610368578063f77c479114610388578063feff81a61461039d57610140565b80638fa8b7901461028a57806391f901571461029f5780639a82a09a146102b45780639d5d4e7a146102c9578063bc197c81146102de578063ce10cf80146102fe57610140565b806338af3eed1161010857806338af3eed146101f45780634356fb8a146102165780634c9a2b591461022b5780635d4df5741461024d578063690ba48c146102555780638da5cb5b1461027557610140565b806301ffc9a714610145578063150b7a021461017b57806317d70f7c146101a857806317fc45e2146101ca5780631dd285e1146101df575b600080fd5b34801561015157600080fd5b50610165610160366004610b29565b6103b2565b6040516101729190610bdd565b60405180910390f35b34801561018757600080fd5b5061019b610196366004610a01565b6103eb565b6040516101729190610be8565b3480156101b457600080fd5b506101bd6103fc565b6040516101729190610bfd565b3480156101d657600080fd5b506101bd610402565b3480156101eb57600080fd5b50610165610408565b34801561020057600080fd5b50610209610416565b6040516101729190610b54565b34801561022257600080fd5b50610165610425565b34801561023757600080fd5b5061024b61024636600461099e565b610435565b005b61024b6105cb565b34801561026157600080fd5b5061024b6102703660046108c6565b6105e4565b34801561028157600080fd5b506102096106fa565b34801561029657600080fd5b5061024b610709565b3480156102ab57600080fd5b5061020961072f565b3480156102c057600080fd5b5061016561073e565b3480156102d557600080fd5b50610165610747565b3480156102ea57600080fd5b5061019b6102f93660046108e7565b610759565b34801561030a57600080fd5b506101bd6103193660046108c6565b61076d565b34801561032a57600080fd5b506101bd61077f565b34801561033f57600080fd5b5061024b61034e366004610ae4565b610785565b34801561035f57600080fd5b506101656107e5565b34801561037457600080fd5b5061019b610383366004610a6e565b6107f4565b34801561039457600080fd5b50610209610806565b3480156103a957600080fd5b50610165610815565b60006001600160e01b03198216630a85bd0160e11b14806103e357506001600160e01b03198216630271189760e51b145b90505b919050565b630a85bd0160e11b95945050505050565b60045481565b60055481565b600754610100900460ff1681565b6002546001600160a01b031681565b6007546301000000900460ff1681565b6000546001600160a01b0316331461044c57600080fd5b6001600160a01b0384166000908152600a602052604081208054859290610474908490610c06565b90915550508115610493576007805463ff000000191663010000001790555b80156104ab576007805462ff00001916620100001790555b600754640100000000900460ff16156105595760075460405163a9059cbb60e01b815266010000000000009091046001600160a01b03169063a9059cbb906104f99088908790600401610bc4565b602060405180830381600087803b15801561051357600080fd5b505af1158015610527573d6000803e3d6000fd5b505050506040513d601f19601f8201168201806040525081019061054b9190610b0d565b61055457600080fd5b6105c4565b6000856001600160a01b03168460405161057290610b51565b60006040518083038185875af1925050503d80600081146105af576040519150601f19603f3d011682016040523d82523d6000602084013e6105b4565b606091505b50509050806105c257600080fd5b505b5050505050565b6000546001600160a01b031633146105e257600080fd5b565b6000546001600160a01b031633146105fb57600080fd5b60075465010000000000900460ff16156106815760095460048054600554604051637921219560e11b81526001600160a01b039094169363f242432a9361064a93309388939192909101610b8c565b600060405180830381600087803b15801561066457600080fd5b505af1158015610678573d6000803e3d6000fd5b505050506106e8565b60085460048054604051632142170760e11b81526001600160a01b03909316926342842e0e926106b5923092879201610b68565b600060405180830381600087803b1580156106cf57600080fd5b505af11580156106e3573d6000803e3d6000fd5b505050505b506007805461ff001916610100179055565b6000546001600160a01b031681565b6000546001600160a01b0316331461072057600080fd5b6007805460ff19166001179055565b6003546001600160a01b031681565b60075460ff1681565b60075465010000000000900460ff1681565b63bc197c8160e01b98975050505050505050565b600a6020526000908152604090205481565b60065481565b6000546001600160a01b0316331461079c57600080fd5b6001600160a01b038083166000818152600a60205260409020839055600354909116146107df57600380546001600160a01b0319166001600160a01b0384161790555b60065550565b60075462010000900460ff1681565b63f23a6e6160e01b9695505050505050565b6001546001600160a01b031681565b600754640100000000900460ff1681565b80356001600160a01b03811681146103e657600080fd5b60008083601f84011261084e578182fd5b50813567ffffffffffffffff811115610865578182fd5b602083019150836020808302850101111561087f57600080fd5b9250929050565b60008083601f840112610897578182fd5b50813567ffffffffffffffff8111156108ae578182fd5b60208301915083602082850101111561087f57600080fd5b6000602082840312156108d7578081fd5b6108e082610826565b9392505050565b60008060008060008060008060a0898b031215610902578384fd5b61090b89610826565b975061091960208a01610826565b9650604089013567ffffffffffffffff80821115610935578586fd5b6109418c838d0161083d565b909850965060608b0135915080821115610959578586fd5b6109658c838d0161083d565b909650945060808b013591508082111561097d578384fd5b5061098a8b828c01610886565b999c989b5096995094979396929594505050565b600080600080600060a086880312156109b5578081fd5b6109be86610826565b94506109cc60208701610826565b93506040860135925060608601356109e381610c29565b915060808601356109f381610c29565b809150509295509295909350565b600080600080600060808688031215610a18578081fd5b610a2186610826565b9450610a2f60208701610826565b935060408601359250606086013567ffffffffffffffff811115610a51578182fd5b610a5d88828901610886565b969995985093965092949392505050565b60008060008060008060a08789031215610a86578182fd5b610a8f87610826565b9550610a9d60208801610826565b94506040870135935060608701359250608087013567ffffffffffffffff811115610ac6578283fd5b610ad289828a01610886565b979a9699509497509295939492505050565b60008060408385031215610af6578182fd5b610aff83610826565b946020939093013593505050565b600060208284031215610b1e578081fd5b81516108e081610c29565b600060208284031215610b3a578081fd5b81356001600160e01b0319811681146108e0578182fd5b90565b6001600160a01b0391909116815260200190565b6001600160a01b039384168152919092166020820152604081019190915260600190565b6001600160a01b0394851681529290931660208301526040820152606081019190915260a06080820181905260009082015260c00190565b6001600160a01b03929092168252602082015260400190565b901515815260200190565b6001600160e01b031991909116815260200190565b90815260200190565b600082821015610c2457634e487b7160e01b81526011600452602481fd5b500390565b8015158114610c3757600080fd5b5056fea2646970667358221220611c734c6b95b85f1f2a87c5344d44433fce8b78edb1823ebf2133f177477fc764736f6c63430008000033a2646970667358221220bf5c688fcd3d7df60643b69f7a0855d8aee6330e06138deea4ee806f4a19909964736f6c63430008000033",
  "linkReferences": {},
  "deployedLinkReferences": {}
}