{
  "contractName": "AuctionStreak",
  "abi": [
    {
      "inputs": [
        {
          "internalType": "address",
          "name": "_controller",
          "type": "address"
        },
        {
          "internalType": "address",
          "name": "_beneficiary",
          "type": "address"
        },
        {
          "internalType": "bool",
          "name": "_acceptERC20",
          "type": "bool"
        },
        {
          "internalType": "bool",
          "name": "_isErc1155",
          "type": "bool"
        },
        {
          "internalType": "uint256",
          "name": "_tokenId",
          "type": "uint256"
        },
        {
          "internalType": "uint256",
          "name": "_quantity",
          "type": "uint256"
        },
        {
          "internalType": "address",
          "name": "erc20StreakAddress",
          "type": "address"
        },
        {
          "internalType": "address",
          "name": "erc721StreakAddress",
          "type": "address"
        },
        {
          "internalType": "address",
          "name": "erc1155StreakAddress",
          "type": "address"
        }
      ],
      "stateMutability": "nonpayable",
      "type": "constructor"
    },
    {
      "inputs": [],
      "name": "acceptERC20",
      "outputs": [
        {
          "internalType": "bool",
          "name": "",
          "type": "bool"
        }
      ],
      "stateMutability": "view",
      "type": "function"
    },
    {
      "inputs": [],
      "name": "beneficiary",
      "outputs": [
        {
          "internalType": "address",
          "name": "",
          "type": "address"
        }
      ],
      "stateMutability": "view",
      "type": "function"
    },
    {
      "inputs": [],
      "name": "beneficiaryClaimedFunds",
      "outputs": [
        {
          "internalType": "bool",
          "name": "",
          "type": "bool"
        }
      ],
      "stateMutability": "view",
      "type": "function"
    },
    {
      "inputs": [],
      "name": "cancelled",
      "outputs": [
        {
          "internalType": "bool",
          "name": "",
          "type": "bool"
        }
      ],
      "stateMutability": "view",
      "type": "function"
    },
    {
      "inputs": [],
      "name": "controller",
      "outputs": [
        {
          "internalType": "address",
          "name": "",
          "type": "address"
        }
      ],
      "stateMutability": "view",
      "type": "function"
    },
    {
      "inputs": [],
      "name": "controllerClaimedFunds",
      "outputs": [
        {
          "internalType": "bool",
          "name": "",
          "type": "bool"
        }
      ],
      "stateMutability": "view",
      "type": "function"
    },
    {
      "inputs": [
        {
          "internalType": "address",
          "name": "",
          "type": "address"
        }
      ],
      "name": "fundsByBidder",
      "outputs": [
        {
          "internalType": "uint256",
          "name": "",
          "type": "uint256"
        }
      ],
      "stateMutability": "view",
      "type": "function"
    },
    {
      "inputs": [],
      "name": "highestBid",
      "outputs": [
        {
          "internalType": "uint256",
          "name": "",
          "type": "uint256"
        }
      ],
      "stateMutability": "view",
      "type": "function"
    },
    {
      "inputs": [],
      "name": "highestBidder",
      "outputs": [
        {
          "internalType": "address",
          "name": "",
          "type": "address"
        }
      ],
      "stateMutability": "view",
      "type": "function"
    },
    {
      "inputs": [],
      "name": "isErc1155",
      "outputs": [
        {
          "internalType": "bool",
          "name": "",
          "type": "bool"
        }
      ],
      "stateMutability": "view",
      "type": "function"
    },
    {
      "inputs": [],
      "name": "itemClaimed",
      "outputs": [
        {
          "internalType": "bool",
          "name": "",
          "type": "bool"
        }
      ],
      "stateMutability": "view",
      "type": "function"
    },
    {
      "inputs": [],
      "name": "owner",
      "outputs": [
        {
          "internalType": "address",
          "name": "",
          "type": "address"
        }
      ],
      "stateMutability": "view",
      "type": "function"
    },
    {
      "inputs": [],
      "name": "quantity",
      "outputs": [
        {
          "internalType": "uint256",
          "name": "",
          "type": "uint256"
        }
      ],
      "stateMutability": "view",
      "type": "function"
    },
    {
      "inputs": [],
      "name": "tokenId",
      "outputs": [
        {
          "internalType": "uint256",
          "name": "",
          "type": "uint256"
        }
      ],
      "stateMutability": "view",
      "type": "function"
    },
    {
      "inputs": [
        {
          "internalType": "address",
          "name": "bidder",
          "type": "address"
        },
        {
          "internalType": "uint256",
          "name": "totalAmount",
          "type": "uint256"
        }
      ],
      "name": "placeBid",
      "outputs": [],
      "stateMutability": "nonpayable",
      "type": "function"
    },
    {
      "inputs": [],
      "name": "handlePayment",
      "outputs": [],
      "stateMutability": "payable",
      "type": "function"
    },
    {
      "inputs": [
        {
          "internalType": "address",
          "name": "claimer",
          "type": "address"
        },
        {
          "internalType": "address",
          "name": "withdrawalAccount",
          "type": "address"
        },
        {
          "internalType": "uint256",
          "name": "withdrawalAmount",
          "type": "uint256"
        },
        {
          "internalType": "bool",
          "name": "_beneficiaryClaimedFunds",
          "type": "bool"
        },
        {
          "internalType": "bool",
          "name": "_controllerClaimedFunds",
          "type": "bool"
        }
      ],
      "name": "withdrawFunds",
      "outputs": [],
      "stateMutability": "nonpayable",
      "type": "function"
    },
    {
      "inputs": [
        {
          "internalType": "address",
          "name": "claimer",
          "type": "address"
        }
      ],
      "name": "transferItem",
      "outputs": [],
      "stateMutability": "nonpayable",
      "type": "function"
    },
    {
      "inputs": [],
      "name": "cancelAuction",
      "outputs": [],
      "stateMutability": "nonpayable",
      "type": "function"
    },
    {
      "inputs": [
        {
          "internalType": "address",
          "name": "_operator",
          "type": "address"
        },
        {
          "internalType": "address",
          "name": "_from",
          "type": "address"
        },
        {
          "internalType": "uint256",
          "name": "_tokenId",
          "type": "uint256"
        },
        {
          "internalType": "bytes",
          "name": "data",
          "type": "bytes"
        }
      ],
      "name": "onERC721Received",
      "outputs": [
        {
          "internalType": "bytes4",
          "name": "",
          "type": "bytes4"
        }
      ],
      "stateMutability": "pure",
      "type": "function"
    },
    {
      "inputs": [
        {
          "internalType": "address",
          "name": "_operator",
          "type": "address"
        },
        {
          "internalType": "address",
          "name": "_from",
          "type": "address"
        },
        {
          "internalType": "uint256",
          "name": "_id",
          "type": "uint256"
        },
        {
          "internalType": "uint256",
          "name": "_amount",
          "type": "uint256"
        },
        {
          "internalType": "bytes",
          "name": "_data",
          "type": "bytes"
        }
      ],
      "name": "onERC1155Received",
      "outputs": [
        {
          "internalType": "bytes4",
          "name": "",
          "type": "bytes4"
        }
      ],
      "stateMutability": "pure",
      "type": "function"
    },
    {
      "inputs": [
        {
          "internalType": "address",
          "name": "_operator",
          "type": "address"
        },
        {
          "internalType": "address",
          "name": "_from",
          "type": "address"
        },
        {
          "internalType": "uint256[]",
          "name": "_ids",
          "type": "uint256[]"
        },
        {
          "internalType": "uint256[]",
          "name": "_values",
          "type": "uint256[]"
        },
        {
          "internalType": "bytes",
          "name": "_data",
          "type": "bytes"
        }
      ],
      "name": "onERC1155BatchReceived",
      "outputs": [
        {
          "internalType": "bytes4",
          "name": "",
          "type": "bytes4"
        }
      ],
      "stateMutability": "pure",
      "type": "function"
    },
    {
      "inputs": [
        {
          "internalType": "bytes4",
          "name": "interfaceId",
          "type": "bytes4"
        }
      ],
      "name": "supportsInterface",
      "outputs": [
        {
          "internalType": "bool",
          "name": "",
          "type": "bool"
        }
      ],
      "stateMutability": "view",
      "type": "function"
    }
  ],
  "bytecode": "0x60806040523480156200001157600080fd5b50604051620018d1380380620018d1833981810160405281019062000037919062000286565b336000806101000a81548173ffffffffffffffffffffffffffffffffffffffff021916908373ffffffffffffffffffffffffffffffffffffffff16021790555088600160006101000a81548173ffffffffffffffffffffffffffffffffffffffff021916908373ffffffffffffffffffffffffffffffffffffffff16021790555087600260006101000a81548173ffffffffffffffffffffffffffffffffffffffff021916908373ffffffffffffffffffffffffffffffffffffffff16021790555086600760046101000a81548160ff02191690831515021790555085600760056101000a81548160ff0219169083151502179055508460048190555083600581905550600760049054906101000a900460ff1615620001935782600760066101000a81548173ffffffffffffffffffffffffffffffffffffffff021916908373ffffffffffffffffffffffffffffffffffffffff1602179055505b600760059054906101000a900460ff1615620001f05780600960006101000a81548173ffffffffffffffffffffffffffffffffffffffff021916908373ffffffffffffffffffffffffffffffffffffffff16021790555062000232565b81600860006101000a81548173ffffffffffffffffffffffffffffffffffffffff021916908373ffffffffffffffffffffffffffffffffffffffff1602179055505b505050505050505050620003f7565b6000815190506200025281620003a9565b92915050565b6000815190506200026981620003c3565b92915050565b6000815190506200028081620003dd565b92915050565b60008060008060008060008060006101208a8c031215620002a657600080fd5b6000620002b68c828d0162000241565b9950506020620002c98c828d0162000241565b9850506040620002dc8c828d0162000258565b9750506060620002ef8c828d0162000258565b9650506080620003028c828d016200026f565b95505060a0620003158c828d016200026f565b94505060c0620003288c828d0162000241565b93505060e06200033b8c828d0162000241565b9250506101006200034f8c828d0162000241565b9150509295985092959850929598565b60006200036c826200037f565b9050919050565b60008115159050919050565b600073ffffffffffffffffffffffffffffffffffffffff82169050919050565b6000819050919050565b620003b4816200035f565b8114620003c057600080fd5b50565b620003ce8162000373565b8114620003da57600080fd5b50565b620003e8816200039f565b8114620003f457600080fd5b50565b6114ca80620004076000396000f3fe6080604052600436106101405760003560e01c80638fa8b790116100b6578063d57bde791161006f578063d57bde791461042f578063d98b9bb51461045a578063ec351aee14610483578063f23a6e61146104ae578063f77c4791146104eb578063feff81a61461051657610140565b80638fa8b7901461031d57806391f90157146103345780639a82a09a1461035f5780639d5d4e7a1461038a578063bc197c81146103b5578063ce10cf80146103f257610140565b806338af3eed1161010857806338af3eed146102405780634356fb8a1461026b5780634c9a2b59146102965780635d4df574146102bf578063690ba48c146102c95780638da5cb5b146102f257610140565b806301ffc9a714610145578063150b7a021461018257806317d70f7c146101bf57806317fc45e2146101ea5780631dd285e114610215575b600080fd5b34801561015157600080fd5b5061016c60048036038101906101679190611173565b610541565b60405161017991906112f4565b60405180910390f35b34801561018e57600080fd5b506101a960048036038101906101a49190610ffc565b610613565b6040516101b6919061130f565b60405180910390f35b3480156101cb57600080fd5b506101d4610628565b6040516101e1919061132a565b60405180910390f35b3480156101f657600080fd5b506101ff61062e565b60405161020c919061132a565b60405180910390f35b34801561022157600080fd5b5061022a610634565b60405161023791906112f4565b60405180910390f35b34801561024c57600080fd5b50610255610647565b6040516102629190611221565b60405180910390f35b34801561027757600080fd5b5061028061066d565b60405161028d91906112f4565b60405180910390f35b3480156102a257600080fd5b506102bd60048036038101906102b89190610f85565b610680565b005b6102c76108c3565b005b3480156102d557600080fd5b506102f060048036038101906102eb9190610e90565b61091d565b005b3480156102fe57600080fd5b50610307610ad8565b6040516103149190611221565b60405180910390f35b34801561032957600080fd5b50610332610afc565b005b34801561034057600080fd5b50610349610b71565b6040516103569190611221565b60405180910390f35b34801561036b57600080fd5b50610374610b97565b60405161038191906112f4565b60405180910390f35b34801561039657600080fd5b5061039f610baa565b6040516103ac91906112f4565b60405180910390f35b3480156103c157600080fd5b506103dc60048036038101906103d79190610eb9565b610bbd565b6040516103e9919061130f565b60405180910390f35b3480156103fe57600080fd5b5061041960048036038101906104149190610e90565b610bd5565b604051610426919061132a565b60405180910390f35b34801561043b57600080fd5b50610444610bed565b604051610451919061132a565b60405180910390f35b34801561046657600080fd5b50610481600480360381019061047c919061110e565b610bf3565b005b34801561048f57600080fd5b50610498610d31565b6040516104a591906112f4565b60405180910390f35b3480156104ba57600080fd5b506104d560048036038101906104d0919061107c565b610d44565b6040516104e2919061130f565b60405180910390f35b3480156104f757600080fd5b50610500610d5a565b60405161050d9190611221565b60405180910390f35b34801561052257600080fd5b5061052b610d80565b60405161053891906112f4565b60405180910390f35b60007f150b7a02000000000000000000000000000000000000000000000000000000007bffffffffffffffffffffffffffffffffffffffffffffffffffffffff1916827bffffffffffffffffffffffffffffffffffffffffffffffffffffffff1916148061060c57507f4e2312e0000000000000000000000000000000000000000000000000000000007bffffffffffffffffffffffffffffffffffffffffffffffffffffffff1916827bffffffffffffffffffffffffffffffffffffffffffffffffffffffff1916145b9050919050565b600063150b7a0260e01b905095945050505050565b60045481565b60055481565b600760019054906101000a900460ff1681565b600260009054906101000a900473ffffffffffffffffffffffffffffffffffffffff1681565b600760039054906101000a900460ff1681565b60008054906101000a900473ffffffffffffffffffffffffffffffffffffffff1673ffffffffffffffffffffffffffffffffffffffff163373ffffffffffffffffffffffffffffffffffffffff16146106d857600080fd5b600760049054906101000a900460ff16156107aa57600760069054906101000a900473ffffffffffffffffffffffffffffffffffffffff1673ffffffffffffffffffffffffffffffffffffffff1663a9059cbb86856040518363ffffffff1660e01b815260040161074a9291906112cb565b602060405180830381600087803b15801561076457600080fd5b505af1158015610778573d6000803e3d6000fd5b505050506040513d601f19601f8201168201806040525081019061079c919061114a565b6107a557600080fd5b610822565b60008573ffffffffffffffffffffffffffffffffffffffff16846040516107d09061120c565b60006040518083038185875af1925050503d806000811461080d576040519150601f19603f3d011682016040523d82523d6000602084013e610812565b606091505b505090508061082057600080fd5b505b82600a60008673ffffffffffffffffffffffffffffffffffffffff1673ffffffffffffffffffffffffffffffffffffffff16815260200190815260200160002060008282546108719190611361565b92505081905550811561089a576001600760036101000a81548160ff0219169083151502179055505b80156108bc576001600760026101000a81548160ff0219169083151502179055505b5050505050565b60008054906101000a900473ffffffffffffffffffffffffffffffffffffffff1673ffffffffffffffffffffffffffffffffffffffff163373ffffffffffffffffffffffffffffffffffffffff161461091b57600080fd5b565b60008054906101000a900473ffffffffffffffffffffffffffffffffffffffff1673ffffffffffffffffffffffffffffffffffffffff163373ffffffffffffffffffffffffffffffffffffffff161461097557600080fd5b600760059054906101000a900460ff1615610a2657600960009054906101000a900473ffffffffffffffffffffffffffffffffffffffff1673ffffffffffffffffffffffffffffffffffffffff1663f242432a30836004546005546040518563ffffffff1660e01b81526004016109ef9493929190611273565b600060405180830381600087803b158015610a0957600080fd5b505af1158015610a1d573d6000803e3d6000fd5b50505050610aba565b600860009054906101000a900473ffffffffffffffffffffffffffffffffffffffff1673ffffffffffffffffffffffffffffffffffffffff166342842e0e30836004546040518463ffffffff1660e01b8152600401610a879392919061123c565b600060405180830381600087803b158015610aa157600080fd5b505af1158015610ab5573d6000803e3d6000fd5b505050505b6001600760016101000a81548160ff02191690831515021790555050565b60008054906101000a900473ffffffffffffffffffffffffffffffffffffffff1681565b60008054906101000a900473ffffffffffffffffffffffffffffffffffffffff1673ffffffffffffffffffffffffffffffffffffffff163373ffffffffffffffffffffffffffffffffffffffff1614610b5457600080fd5b6001600760006101000a81548160ff021916908315150217905550565b600360009054906101000a900473ffffffffffffffffffffffffffffffffffffffff1681565b600760009054906101000a900460ff1681565b600760059054906101000a900460ff1681565b600063bc197c8160e01b905098975050505050505050565b600a6020528060005260406000206000915090505481565b60065481565b60008054906101000a900473ffffffffffffffffffffffffffffffffffffffff1673ffffffffffffffffffffffffffffffffffffffff163373ffffffffffffffffffffffffffffffffffffffff1614610c4b57600080fd5b80600a60008473ffffffffffffffffffffffffffffffffffffffff1673ffffffffffffffffffffffffffffffffffffffff16815260200190815260200160002081905550600360009054906101000a900473ffffffffffffffffffffffffffffffffffffffff1673ffffffffffffffffffffffffffffffffffffffff168273ffffffffffffffffffffffffffffffffffffffff1614610d265781600360006101000a81548173ffffffffffffffffffffffffffffffffffffffff021916908373ffffffffffffffffffffffffffffffffffffffff1602179055505b806006819055505050565b600760029054906101000a900460ff1681565b600063f23a6e6160e01b90509695505050505050565b600160009054906101000a900473ffffffffffffffffffffffffffffffffffffffff1681565b600760049054906101000a900460ff1681565b600081359050610da281611438565b92915050565b60008083601f840112610dba57600080fd5b8235905067ffffffffffffffff811115610dd357600080fd5b602083019150836020820283011115610deb57600080fd5b9250929050565b600081359050610e018161144f565b92915050565b600081519050610e168161144f565b92915050565b600081359050610e2b81611466565b92915050565b60008083601f840112610e4357600080fd5b8235905067ffffffffffffffff811115610e5c57600080fd5b602083019150836001820283011115610e7457600080fd5b9250929050565b600081359050610e8a8161147d565b92915050565b600060208284031215610ea257600080fd5b6000610eb084828501610d93565b91505092915050565b60008060008060008060008060a0898b031215610ed557600080fd5b6000610ee38b828c01610d93565b9850506020610ef48b828c01610d93565b975050604089013567ffffffffffffffff811115610f1157600080fd5b610f1d8b828c01610da8565b9650965050606089013567ffffffffffffffff811115610f3c57600080fd5b610f488b828c01610da8565b9450945050608089013567ffffffffffffffff811115610f6757600080fd5b610f738b828c01610e31565b92509250509295985092959890939650565b600080600080600060a08688031215610f9d57600080fd5b6000610fab88828901610d93565b9550506020610fbc88828901610d93565b9450506040610fcd88828901610e7b565b9350506060610fde88828901610df2565b9250506080610fef88828901610df2565b9150509295509295909350565b60008060008060006080868803121561101457600080fd5b600061102288828901610d93565b955050602061103388828901610d93565b945050604061104488828901610e7b565b935050606086013567ffffffffffffffff81111561106157600080fd5b61106d88828901610e31565b92509250509295509295909350565b60008060008060008060a0878903121561109557600080fd5b60006110a389828a01610d93565b96505060206110b489828a01610d93565b95505060406110c589828a01610e7b565b94505060606110d689828a01610e7b565b935050608087013567ffffffffffffffff8111156110f357600080fd5b6110ff89828a01610e31565b92509250509295509295509295565b6000806040838503121561112157600080fd5b600061112f85828601610d93565b925050602061114085828601610e7b565b9150509250929050565b60006020828403121561115c57600080fd5b600061116a84828501610e07565b91505092915050565b60006020828403121561118557600080fd5b600061119384828501610e1c565b91505092915050565b6111a581611395565b82525050565b6111b4816113a7565b82525050565b6111c3816113b3565b82525050565b60006111d6600083611345565b9150600082019050919050565b60006111f0600083611356565b9150600082019050919050565b611206816113ff565b82525050565b6000611217826111e3565b9150819050919050565b6000602082019050611236600083018461119c565b92915050565b6000606082019050611251600083018661119c565b61125e602083018561119c565b61126b60408301846111fd565b949350505050565b600060a082019050611288600083018761119c565b611295602083018661119c565b6112a260408301856111fd565b6112af60608301846111fd565b81810360808301526112c0816111c9565b905095945050505050565b60006040820190506112e0600083018561119c565b6112ed60208301846111fd565b9392505050565b600060208201905061130960008301846111ab565b92915050565b600060208201905061132460008301846111ba565b92915050565b600060208201905061133f60008301846111fd565b92915050565b600082825260208201905092915050565b600081905092915050565b600061136c826113ff565b9150611377836113ff565b92508282101561138a57611389611409565b5b828203905092915050565b60006113a0826113df565b9050919050565b60008115159050919050565b60007fffffffff0000000000000000000000000000000000000000000000000000000082169050919050565b600073ffffffffffffffffffffffffffffffffffffffff82169050919050565b6000819050919050565b7f4e487b7100000000000000000000000000000000000000000000000000000000600052601160045260246000fd5b61144181611395565b811461144c57600080fd5b50565b611458816113a7565b811461146357600080fd5b50565b61146f816113b3565b811461147a57600080fd5b50565b611486816113ff565b811461149157600080fd5b5056fea264697066735822122099c6c41525537bf4a46b0f8cfd51f4e9771ac4700e33378d60e0321771ee9f0864736f6c63430008000033",
  "immutableReferences": {},
  "source": "pragma solidity ^0.8.0;\r\n\r\nimport \"../openzepplin-contracts/token/ERC721/IERC721Receiver.sol\";\r\nimport \"../openzepplin-contracts/token/ERC1155/IERC1155Receiver.sol\";\r\nimport \"../openzepplin-contracts/token/ERC20/IERC20.sol\";\r\nimport \"../openzepplin-contracts/token/ERC721/IERC721.sol\";\r\nimport \"../openzepplin-contracts/token/ERC1155/IERC1155.sol\";\r\n\r\ncontract AuctionStreak is IERC721Receiver, IERC1155Receiver {\r\n  modifier onlyOwner {\r\n    require(msg.sender == owner);\r\n    _;\r\n  }\r\n\r\n  address public owner;\r\n  address public controller;\r\n  address public beneficiary;\r\n  address public highestBidder;\r\n\r\n  uint public tokenId;\r\n  uint public quantity;\r\n  uint public highestBid;\r\n\r\n  bool public cancelled;\r\n  bool public itemClaimed;\r\n  bool public controllerClaimedFunds;\r\n  bool public beneficiaryClaimedFunds;\r\n  bool public acceptERC20;\r\n  bool public isErc1155;\r\n\r\n  IERC20 erc20StreakContract;\r\n  IERC721 erc721StreakContract;\r\n  IERC1155 erc1155StreakContract;\r\n\r\n  mapping(address => uint256) public fundsByBidder;\r\n\r\n  constructor(\r\n    address _controller,\r\n    address _beneficiary,\r\n    bool _acceptERC20,\r\n    bool _isErc1155,\r\n    uint _tokenId,\r\n    uint _quantity,\r\n    address erc20StreakAddress,\r\n    address erc721StreakAddress,\r\n    address erc1155StreakAddress\r\n  ) {\r\n    owner = msg.sender;\r\n    controller = _controller;\r\n    beneficiary = _beneficiary;\r\n    acceptERC20 = _acceptERC20;\r\n    isErc1155 = _isErc1155;\r\n    tokenId = _tokenId;\r\n    quantity = _quantity;\r\n\r\n    if (acceptERC20) {\r\n      erc20StreakContract = IERC20(erc20StreakAddress);\r\n    }\r\n\r\n    if (isErc1155) {\r\n      erc1155StreakContract = IERC1155(erc1155StreakAddress);\r\n    } else {\r\n      erc721StreakContract = IERC721(erc721StreakAddress);\r\n    }\r\n  }\r\n\r\n  function placeBid(address bidder, uint totalAmount)\r\n  onlyOwner\r\n  external\r\n  {\r\n    fundsByBidder[bidder] = totalAmount;\r\n\r\n    if (bidder != highestBidder) {\r\n      highestBidder = bidder;\r\n    }\r\n\r\n    highestBid = totalAmount;\r\n  }\r\n\r\n  function handlePayment()\r\n  payable\r\n  onlyOwner\r\n  external\r\n  {}\r\n\r\n  function withdrawFunds(\r\n    address claimer,\r\n    address withdrawalAccount,\r\n    uint withdrawalAmount,\r\n    bool _beneficiaryClaimedFunds,\r\n    bool _controllerClaimedFunds\r\n  )\r\n  onlyOwner\r\n  external\r\n  {\r\n    // send the funds\r\n    if (acceptERC20) {\r\n      require(erc20StreakContract.transfer(claimer, withdrawalAmount));\r\n    } else {\r\n      (bool sent, ) = claimer.call{value: withdrawalAmount}(\"\");\r\n      require(sent);\r\n    }\r\n\r\n    fundsByBidder[withdrawalAccount] -= withdrawalAmount;\r\n    if (_beneficiaryClaimedFunds) {\r\n      beneficiaryClaimedFunds = true;\r\n    }\r\n    if (_controllerClaimedFunds) {\r\n      controllerClaimedFunds = true;\r\n    }\r\n  }\r\n\r\n  function transferItem(\r\n    address claimer\r\n  )\r\n  onlyOwner\r\n  external\r\n  {\r\n    if (isErc1155) {\r\n      erc1155StreakContract.safeTransferFrom(address(this), claimer, tokenId, quantity, \"\");\r\n    } else {\r\n      erc721StreakContract.safeTransferFrom(address(this), claimer, tokenId);\r\n    }\r\n\r\n    itemClaimed = true;\r\n  }\r\n\r\n  function cancelAuction()\r\n  onlyOwner\r\n  external\r\n  {\r\n    cancelled = true;\r\n  }\r\n\r\n  function onERC721Received(address _operator, address _from, uint256 _tokenId, bytes calldata data)\r\n  external\r\n  pure\r\n  override\r\n  returns (bytes4)\r\n  {\r\n    return this.onERC721Received.selector;\r\n  }\r\n\r\n  function onERC1155Received(address _operator, address _from, uint256 _id, uint256 _amount, bytes calldata _data)\r\n  external\r\n  pure\r\n  override\r\n  returns(bytes4)\r\n  {\r\n    return this.onERC1155Received.selector;\r\n  }\r\n\r\n  function onERC1155BatchReceived(address _operator, address _from, uint256[] calldata _ids, uint256[] calldata _values, bytes calldata _data)\r\n  external\r\n  pure\r\n  override\r\n  returns(bytes4)\r\n  {\r\n    return this.onERC1155BatchReceived.selector;\r\n  }\r\n\r\n  /**\r\n * @dev See {IERC165-supportsInterface}.\r\n */\r\n  function supportsInterface(bytes4 interfaceId) public view virtual override returns (bool) {\r\n    return interfaceId == type(IERC721Receiver).interfaceId\r\n    || interfaceId == type(IERC1155Receiver).interfaceId;\r\n  }\r\n}\r\n",
  "sourcePath": "/mnt/c/work/projects/streakapp/streak-backend/solidity/contracts/streak/AuctionStreak.sol",
  "compiler": {
    "name": "solc",
    "version": "0.8.0+commit.c7dfd78e.Emscripten.clang"
  },
  "schemaVersion": "3.4.3",
  "updatedAt": "2021-08-17T09:37:10.828Z",
  "devdoc": {
    "kind": "dev",
    "methods": {
      "supportsInterface(bytes4)": {
        "details": "See {IERC165-supportsInterface}."
      }
    },
    "version": 1
  },
  "userdoc": {
    "kind": "user",
    "methods": {},
    "version": 1
  }
}