{
  "contractName": "DropMinting",
  "abi": [
    {
      "inputs": [
        {
          "internalType": "address",
          "name": "_erc721Address",
          "type": "address"
        },
        {
          "internalType": "uint256",
          "name": "_dropStart",
          "type": "uint256"
        },
        {
          "internalType": "uint256",
          "name": "_dropEnd",
          "type": "uint256"
        }
      ],
      "stateMutability": "nonpayable",
      "type": "constructor"
    },
    {
      "anonymous": false,
      "inputs": [
        {
          "indexed": false,
          "internalType": "uint256",
          "name": "_dropStart",
          "type": "uint256"
        },
        {
          "indexed": false,
          "internalType": "uint256",
          "name": "_dropEnd",
          "type": "uint256"
        }
      ],
      "name": "DropMintingContractDeployed",
      "type": "event"
    },
    {
      "anonymous": false,
      "inputs": [
        {
          "indexed": false,
          "internalType": "uint256",
          "name": "_tokenId",
          "type": "uint256"
        },
        {
          "indexed": false,
          "internalType": "address",
          "name": "_to",
          "type": "address"
        },
        {
          "indexed": false,
          "internalType": "string",
          "name": "_tokenUri",
          "type": "string"
        },
        {
          "indexed": false,
          "internalType": "string",
          "name": "_itemId",
          "type": "string"
        }
      ],
      "name": "DropMintingFinished",
      "type": "event"
    },
    {
      "anonymous": false,
      "inputs": [
        {
          "indexed": true,
          "internalType": "address",
          "name": "previousOwner",
          "type": "address"
        },
        {
          "indexed": true,
          "internalType": "address",
          "name": "newOwner",
          "type": "address"
        }
      ],
      "name": "OwnershipTransferred",
      "type": "event"
    },
    {
      "anonymous": false,
      "inputs": [
        {
          "indexed": false,
          "internalType": "uint256",
          "name": "_dropEnd",
          "type": "uint256"
        }
      ],
      "name": "StopDropMinting",
      "type": "event"
    },
    {
      "inputs": [],
      "name": "count",
      "outputs": [
        {
          "internalType": "uint256",
          "name": "",
          "type": "uint256"
        }
      ],
      "stateMutability": "view",
      "type": "function",
      "constant": true
    },
    {
      "inputs": [],
      "name": "dropEnd",
      "outputs": [
        {
          "internalType": "uint256",
          "name": "",
          "type": "uint256"
        }
      ],
      "stateMutability": "view",
      "type": "function",
      "constant": true
    },
    {
      "inputs": [],
      "name": "dropStart",
      "outputs": [
        {
          "internalType": "uint256",
          "name": "",
          "type": "uint256"
        }
      ],
      "stateMutability": "view",
      "type": "function",
      "constant": true
    },
    {
      "inputs": [],
      "name": "mintLimitAccount",
      "outputs": [
        {
          "internalType": "uint16",
          "name": "",
          "type": "uint16"
        }
      ],
      "stateMutability": "view",
      "type": "function",
      "constant": true
    },
    {
      "inputs": [],
      "name": "mintLimitTotal",
      "outputs": [
        {
          "internalType": "uint16",
          "name": "",
          "type": "uint16"
        }
      ],
      "stateMutability": "view",
      "type": "function",
      "constant": true
    },
    {
      "inputs": [],
      "name": "owner",
      "outputs": [
        {
          "internalType": "address",
          "name": "",
          "type": "address"
        }
      ],
      "stateMutability": "view",
      "type": "function",
      "constant": true
    },
    {
      "inputs": [
        {
          "internalType": "address",
          "name": "",
          "type": "address"
        }
      ],
      "name": "ownerMintCount",
      "outputs": [
        {
          "internalType": "uint256",
          "name": "",
          "type": "uint256"
        }
      ],
      "stateMutability": "view",
      "type": "function",
      "constant": true
    },
    {
      "inputs": [],
      "name": "renounceOwnership",
      "outputs": [],
      "stateMutability": "nonpayable",
      "type": "function"
    },
    {
      "inputs": [],
      "name": "token",
      "outputs": [
        {
          "internalType": "contract IERC721Streak",
          "name": "",
          "type": "address"
        }
      ],
      "stateMutability": "view",
      "type": "function",
      "constant": true
    },
    {
      "inputs": [
        {
          "internalType": "uint256",
          "name": "",
          "type": "uint256"
        }
      ],
      "name": "tokenIDs",
      "outputs": [
        {
          "internalType": "uint256",
          "name": "",
          "type": "uint256"
        }
      ],
      "stateMutability": "view",
      "type": "function",
      "constant": true
    },
    {
      "inputs": [
        {
          "internalType": "address",
          "name": "newOwner",
          "type": "address"
        }
      ],
      "name": "transferOwnership",
      "outputs": [],
      "stateMutability": "nonpayable",
      "type": "function"
    },
    {
      "inputs": [
        {
          "internalType": "address",
          "name": "_to",
          "type": "address"
        },
        {
          "internalType": "string",
          "name": "_tokenUri",
          "type": "string"
        },
        {
          "internalType": "string",
          "name": "_itemId",
          "type": "string"
        }
      ],
      "name": "dropMint",
      "outputs": [
        {
          "internalType": "uint256",
          "name": "tokenId",
          "type": "uint256"
        }
      ],
      "stateMutability": "nonpayable",
      "type": "function"
    },
    {
      "inputs": [],
      "name": "endDrop",
      "outputs": [],
      "stateMutability": "nonpayable",
      "type": "function"
    },
    {
      "inputs": [
        {
          "internalType": "uint16",
          "name": "_limit",
          "type": "uint16"
        }
      ],
      "name": "updateMintLimitAccount",
      "outputs": [],
      "stateMutability": "nonpayable",
      "type": "function"
    },
    {
      "inputs": [
        {
          "internalType": "uint16",
          "name": "_limit",
          "type": "uint16"
        }
      ],
      "name": "updateMintLimitTotal",
      "outputs": [],
      "stateMutability": "nonpayable",
      "type": "function"
    },
    {
      "inputs": [
        {
          "internalType": "uint16",
          "name": "_time",
          "type": "uint16"
        }
      ],
      "name": "updateDropStart",
      "outputs": [],
      "stateMutability": "nonpayable",
      "type": "function"
    }
  ],
  "bytecode": "0x60806040526002805461ffff60a01b1916601960a21b1761ffff60b01b191661017760b41b17905534801561003357600080fd5b50604051610e3e380380610e3e83398101604081905261005291610149565b60016000908155610061610145565b600180546001600160a01b0319166001600160a01b038316908117909155604051919250906000907f8be0079c531659141344cd1fd0a4f28419497f9722a3daafe3b4186f6b6457e0908290a3506001600160a01b0383166100de5760405162461bcd60e51b81526004016100d59061018a565b60405180910390fd5b600280546001600160a01b0319166001600160a01b038516179055600382905560048190556040517fa5fb0087ac1bb70806a6b92bae65e0e735cac015b6e78fd5036eb8d0ea0f27759061013590849084906101c1565b60405180910390a15050506101cf565b3390565b60008060006060848603121561015d578283fd5b83516001600160a01b0381168114610173578384fd5b602085015160409095015190969495509392505050565b60208082526015908201527f496e76616c696420657263373231416464726573730000000000000000000000604082015260600190565b918252602082015260400190565b610c60806101de6000396000f3fe608060405234801561001057600080fd5b50600436106101005760003560e01c80637632459711610097578063cf173a8b11610066578063cf173a8b146101ce578063ea491049146101d6578063f2fde38b146101e9578063fc0c546a146101fc57610100565b806376324597146101895780638da5cb5b14610191578063946c383f146101a6578063a7d44f25146101b957610100565b80634508d6ff116100d35780634508d6ff1461015e5780635c6bb123146101665780636cf3d09914610179578063715018a61461018157610100565b806306661abd1461010557806306f356dc146101235780630877a9ab146101365780630a64bc7714610149575b600080fd5b61010d610204565b60405161011a9190610b9d565b60405180910390f35b61010d61013136600461093a565b61020a565b61010d610144366004610886565b61022b565b61015c610157366004610918565b61023d565b005b61015c61028e565b61015c610174366004610918565b61032d565b61010d61038e565b61015c610394565b61010d61041d565b610199610423565b60405161011a91906109b5565b61010d6101b43660046108a7565b610432565b6101c1610692565b60405161011a9190610b8e565b6101c16106a3565b61015c6101e4366004610918565b6106b4565b61015c6101f7366004610886565b610715565b6101996107d6565b60055481565b6007818154811061021a57600080fd5b600091825260209091200154905081565b60066020526000908152604090205481565b6102456107e5565b6001600160a01b0316610256610423565b6001600160a01b0316146102855760405162461bcd60e51b815260040161027c90610aa5565b60405180910390fd5b61ffff16600355565b6102966107e5565b6001600160a01b03166102a7610423565b6001600160a01b0316146102cd5760405162461bcd60e51b815260040161027c90610aa5565b6003544210156102ef5760405162461bcd60e51b815260040161027c90610ada565b4260048190556040517ffa48a71cc5ba2505ba5ce5addda2277158a36f86923636aa91c34dab798650a79161032391610b9d565b60405180910390a1565b6103356107e5565b6001600160a01b0316610346610423565b6001600160a01b03161461036c5760405162461bcd60e51b815260040161027c90610aa5565b6002805461ffff909216600160b01b0261ffff60b01b19909216919091179055565b60045481565b61039c6107e5565b6001600160a01b03166103ad610423565b6001600160a01b0316146103d35760405162461bcd60e51b815260040161027c90610aa5565b6001546040516000916001600160a01b0316907f8be0079c531659141344cd1fd0a4f28419497f9722a3daafe3b4186f6b6457e0908390a3600180546001600160a01b0319169055565b60035481565b6001546001600160a01b031690565b6000600260005414156104575760405162461bcd60e51b815260040161027c90610b57565b6002600055600354421080159061047057506004544211155b61048c5760405162461bcd60e51b815260040161027c90610ada565b600254600554600160b01b90910461ffff16116104bb5760405162461bcd60e51b815260040161027c90610b22565b6002546001600160a01b038516600090815260066020526040902054600160a01b90910461ffff16116105005760405162461bcd60e51b815260040161027c90610a3b565b60025460405163110bcd4560e01b81526001600160a01b039091169063110bcd459061053290879087906004016109c9565b602060405180830381600087803b15801561054c57600080fd5b505af1158015610560573d6000803e3d6000fd5b505050506040513d601f19601f820116820180604052508101906105849190610952565b600580549192508291600791600061059b83610bed565b91905055815481106105bd57634e487b7160e01b600052603260045260246000fd5b60009182526020808320909101929092556001600160a01b03861681526006909152604081208054916105ef83610bed565b9091555050600254600554600160b01b90910461ffff161415610649574260048190556040517ffa48a71cc5ba2505ba5ce5addda2277158a36f86923636aa91c34dab798650a79161064091610b9d565b60405180910390a15b7f080c473d0079dba0f6c7005a0c9486d6e036800e051c7b1e7fd78e24d6835e3e8185858560405161067e9493929190610ba6565b60405180910390a160016000559392505050565b600254600160a01b900461ffff1681565b600254600160b01b900461ffff1681565b6106bc6107e5565b6001600160a01b03166106cd610423565b6001600160a01b0316146106f35760405162461bcd60e51b815260040161027c90610aa5565b6002805461ffff909216600160a01b0261ffff60a01b19909216919091179055565b61071d6107e5565b6001600160a01b031661072e610423565b6001600160a01b0316146107545760405162461bcd60e51b815260040161027c90610aa5565b6001600160a01b03811661077a5760405162461bcd60e51b815260040161027c906109f5565b6001546040516001600160a01b038084169216907f8be0079c531659141344cd1fd0a4f28419497f9722a3daafe3b4186f6b6457e090600090a3600180546001600160a01b0319166001600160a01b0392909216919091179055565b6002546001600160a01b031681565b3390565b80356001600160a01b038116811461080057600080fd5b919050565b600082601f830112610815578081fd5b813567ffffffffffffffff8082111561083057610830610c14565b604051601f8301601f19168101602001828111828210171561085457610854610c14565b60405282815284830160200186101561086b578384fd5b82602086016020830137918201602001929092529392505050565b600060208284031215610897578081fd5b6108a0826107e9565b9392505050565b6000806000606084860312156108bb578182fd5b6108c4846107e9565b9250602084013567ffffffffffffffff808211156108e0578384fd5b6108ec87838801610805565b93506040860135915080821115610901578283fd5b5061090e86828701610805565b9150509250925092565b600060208284031215610929578081fd5b813561ffff811681146108a0578182fd5b60006020828403121561094b578081fd5b5035919050565b600060208284031215610963578081fd5b5051919050565b60008151808452815b8181101561098f57602081850181015186830182015201610973565b818111156109a05782602083870101525b50601f01601f19169290920160200192915050565b6001600160a01b0391909116815260200190565b6001600160a01b03831681526040602082018190526000906109ed9083018461096a565b949350505050565b60208082526026908201527f4f776e61626c653a206e6577206f776e657220697320746865207a65726f206160408201526564647265737360d01b606082015260800190565b60208082526044908201527f44726f704d696e74696e673a20546869732077616c6c65742063616e2774206d60408201527f696e7420757020616e796d6f7265206173206c696d69746174696f6e2069732060608201526337bb32b960e11b608082015260a00190565b6020808252818101527f4f776e61626c653a2063616c6c6572206973206e6f7420746865206f776e6572604082015260600190565b60208082526028908201527f44726f704d696e74696e673a2044726f70206d696e74696e67206973206e6f74604082015267081cdd185c9d195960c21b606082015260800190565b6020808252818101527f44726f704d696e74696e673a20416c6c204e46547320617265206d696e746564604082015260600190565b6020808252601f908201527f5265656e7472616e637947756172643a207265656e7472616e742063616c6c00604082015260600190565b61ffff91909116815260200190565b90815260200190565b8481526001600160a01b0384166020820152608060408201819052600090610bd09083018561096a565b8281036060840152610be2818561096a565b979650505050505050565b6000600019821415610c0d57634e487b7160e01b81526011600452602481fd5b5060010190565b634e487b7160e01b600052604160045260246000fdfea2646970667358221220456eb036e50fcd18fc3f4fee894f4c20986290b9472c2f281035eb7560e5a25764736f6c63430008000033",
  "immutableReferences": {},
  "source": "// SPDX-License-Identifier: UNLICENSED\r\n\r\npragma solidity ^0.8.0;\r\npragma experimental ABIEncoderV2;\r\n\r\nimport \"../openzepplin-contracts/security/ReentrancyGuard.sol\";\r\nimport \"../openzepplin-contracts/access/Ownable.sol\";\r\n\r\nimport \"./IERC721Streak.sol\";\r\n// import \"../openzepplin-contracts/token/ERC721/IERC721.sol\";\r\n\r\n/**\r\n * @notice DropMinting contract for Streak NFT Marketplace\r\n */\r\ncontract DropMinting is ReentrancyGuard, Ownable {\r\n\r\n    /// @notice ERC721 NFT\r\n    IERC721Streak public token;\r\n\r\n    event DropMintingContractDeployed(\r\n        uint _dropStart,\r\n        uint _dropEnd\r\n    );\r\n    event DropMintingFinished(\r\n        uint _tokenId,\r\n        address _to,\r\n        string _tokenUri,\r\n        string _itemId\r\n    );\r\n    event StopDropMinting(\r\n        uint _dropEnd\r\n    );\r\n\r\n    /// @notice Each wallet can mint up to 100 max\r\n    uint16 public mintLimitAccount = 100;\r\n\r\n    /// @notice Limitation of NFT can be minted while dropping\r\n    uint16 public mintLimitTotal = 6000;\r\n\r\n    /// @notice Timestamp of opening drop\r\n    uint256 public dropStart;\r\n\r\n    /// @notice Timestamp of ending drop\r\n    uint256 public dropEnd;\r\n\r\n    /// @notice Count of NFT minted until now while dropping\r\n    uint256 public count;\r\n\r\n    /// @notice NFT count minted per owner\r\n    mapping (address => uint) public ownerMintCount;\r\n\r\n    uint[] public tokenIDs;\r\n\r\n    /**\r\n     * @dev Constructor Function\r\n    */\r\n    constructor(\r\n        address _erc721Address,\r\n        // IERC721Streak _token,\r\n        uint256 _dropStart,\r\n        uint256 _dropEnd\r\n    ) {\r\n        require (_erc721Address != address(0), \"Invalid erc721Address\");\r\n        // require(address(_token) != address(0), \"Invalid NFT\");\r\n\r\n        token = IERC721Streak(_erc721Address);\r\n        // token = _token;\r\n        dropStart = _dropStart;\r\n        dropEnd = _dropEnd;\r\n\r\n        emit DropMintingContractDeployed(dropStart, dropEnd);\r\n    }\r\n\r\n    /**\r\n     * @dev Owner of token can airdrop tokens to recipients\r\n     * @param _to owner of NFT is minted\r\n     * @param _tokenUri URI of token\r\n     * @param _itemId ID of unique set item\r\n     * @return tokenId Token ID\r\n     */\r\n    function dropMint(address _to, string memory _tokenUri, string memory _itemId) external nonReentrant returns(uint256 tokenId) {\r\n\r\n        require(block.timestamp >= dropStart && block.timestamp <= dropEnd,\"DropMinting: Drop minting is not started\");\r\n        require(count < mintLimitTotal, \"DropMinting: All NFTs are minted\");\r\n        require(ownerMintCount[_to] < mintLimitAccount, \"DropMinting: This wallet can't mint up anymore as limitation is over\");\r\n\r\n        tokenId = token.mintItem(_to, _tokenUri);\r\n        tokenIDs[count++] = tokenId;\r\n        ownerMintCount[_to]++;\r\n\r\n        if ( count == mintLimitTotal) {\r\n            dropEnd = block.timestamp;\r\n\r\n            emit StopDropMinting(dropEnd);\r\n        }\r\n\r\n        emit DropMintingFinished(tokenId, _to, _tokenUri, _itemId);\r\n    }\r\n\r\n    /**\r\n     * @dev Owner end DropMinting\r\n     */\r\n    function endDrop() external onlyOwner {\r\n        require(block.timestamp >= dropStart,\"DropMinting: Drop minting is not started\");\r\n        dropEnd = block.timestamp;\r\n        emit StopDropMinting(dropEnd);\r\n    }\r\n\r\n    /**\r\n     * @dev Owner update account minting limit\r\n     * @param _limit limit of account minting count\r\n     */\r\n    function updateMintLimitAccount(uint16 _limit) external onlyOwner {\r\n        mintLimitAccount = _limit;\r\n    }\r\n\r\n    /**\r\n     * @dev Owner update total minting limit\r\n     * @param _limit limit of total minting count\r\n     */\r\n    function updateMintLimitTotal(uint16 _limit) external onlyOwner {\r\n        mintLimitTotal = _limit;\r\n    }\r\n\r\n    /**\r\n     * @dev Owner update drop opening time\r\n     * @param _time timestamp of drop openting time\r\n     */\r\n    function updateDropStart(uint16 _time) external onlyOwner {\r\n        dropStart = _time;\r\n    }\r\n}\r\n",
  "sourcePath": "D:\\cupcake\\streak\\solidity\\contracts\\streak\\DropMinting.sol",
  "compiler": {
    "name": "solc",
    "version": "0.8.0+commit.c7dfd78e.Emscripten.clang"
  },
  "schemaVersion": "3.4.3",
  "updatedAt": "2021-09-14T06:39:01.152Z",
  "networkType": "ethereum",
  "devdoc": {
    "kind": "dev",
    "methods": {
      "constructor": {
        "details": "Constructor Function"
      },
      "dropMint(address,string,string)": {
        "details": "Owner of token can airdrop tokens to recipients",
        "params": {
          "_itemId": "ID of unique set item",
          "_to": "owner of NFT is minted",
          "_tokenUri": "URI of token"
        },
        "returns": {
          "tokenId": "Token ID"
        }
      },
      "endDrop()": {
        "details": "Owner end DropMinting"
      },
      "owner()": {
        "details": "Returns the address of the current owner."
      },
      "renounceOwnership()": {
        "details": "Leaves the contract without owner. It will not be possible to call `onlyOwner` functions anymore. Can only be called by the current owner. NOTE: Renouncing ownership will leave the contract without an owner, thereby removing any functionality that is only available to the owner."
      },
      "transferOwnership(address)": {
        "details": "Transfers ownership of the contract to a new account (`newOwner`). Can only be called by the current owner."
      },
      "updateDropStart(uint16)": {
        "details": "Owner update drop opening time",
        "params": {
          "_time": "timestamp of drop openting time"
        }
      },
      "updateMintLimitAccount(uint16)": {
        "details": "Owner update account minting limit",
        "params": {
          "_limit": "limit of account minting count"
        }
      },
      "updateMintLimitTotal(uint16)": {
        "details": "Owner update total minting limit",
        "params": {
          "_limit": "limit of total minting count"
        }
      }
    },
    "version": 1
  },
  "userdoc": {
    "kind": "user",
    "methods": {
      "count()": {
        "notice": "Count of NFT minted until now while dropping"
      },
      "dropEnd()": {
        "notice": "Timestamp of ending drop"
      },
      "dropStart()": {
        "notice": "Timestamp of opening drop"
      },
      "mintLimitAccount()": {
        "notice": "Each wallet can mint up to 100 max"
      },
      "mintLimitTotal()": {
        "notice": "Limitation of NFT can be minted while dropping"
      },
      "ownerMintCount(address)": {
        "notice": "NFT count minted per owner"
      },
      "token()": {
        "notice": "ERC721 NFT"
      }
    },
    "notice": "DropMinting contract for Streak NFT Marketplace",
    "version": 1
  }
}