{
  "contractName": "ERC1155Streak",
  "abi": [
    {
      "inputs": [
        {
          "internalType": "string",
          "name": "name_",
          "type": "string"
        },
        {
          "internalType": "string",
          "name": "uri_",
          "type": "string"
        }
      ],
      "stateMutability": "nonpayable",
      "type": "constructor"
    },
    {
      "anonymous": false,
      "inputs": [
        {
          "indexed": true,
          "internalType": "address",
          "name": "account",
          "type": "address"
        },
        {
          "indexed": true,
          "internalType": "address",
          "name": "operator",
          "type": "address"
        },
        {
          "indexed": false,
          "internalType": "bool",
          "name": "approved",
          "type": "bool"
        }
      ],
      "name": "ApprovalForAll",
      "type": "event"
    },
    {
      "anonymous": false,
      "inputs": [
        {
          "indexed": true,
          "internalType": "address",
          "name": "to",
          "type": "address"
        },
        {
          "indexed": true,
          "internalType": "uint256",
          "name": "tokenId",
          "type": "uint256"
        },
        {
          "indexed": false,
          "internalType": "uint256",
          "name": "quantity",
          "type": "uint256"
        }
      ],
      "name": "Create1155Token",
      "type": "event"
    },
    {
      "anonymous": false,
      "inputs": [
        {
          "indexed": false,
          "internalType": "address",
          "name": "userAddress",
          "type": "address"
        },
        {
          "indexed": false,
          "internalType": "address payable",
          "name": "relayerAddress",
          "type": "address"
        },
        {
          "indexed": false,
          "internalType": "bytes",
          "name": "functionSignature",
          "type": "bytes"
        }
      ],
      "name": "MetaTransactionExecuted",
      "type": "event"
    },
    {
      "anonymous": false,
      "inputs": [
        {
          "indexed": false,
          "internalType": "address",
          "name": "account",
          "type": "address"
        }
      ],
      "name": "Paused",
      "type": "event"
    },
    {
      "anonymous": false,
      "inputs": [
        {
          "indexed": true,
          "internalType": "bytes32",
          "name": "role",
          "type": "bytes32"
        },
        {
          "indexed": true,
          "internalType": "bytes32",
          "name": "previousAdminRole",
          "type": "bytes32"
        },
        {
          "indexed": true,
          "internalType": "bytes32",
          "name": "newAdminRole",
          "type": "bytes32"
        }
      ],
      "name": "RoleAdminChanged",
      "type": "event"
    },
    {
      "anonymous": false,
      "inputs": [
        {
          "indexed": true,
          "internalType": "bytes32",
          "name": "role",
          "type": "bytes32"
        },
        {
          "indexed": true,
          "internalType": "address",
          "name": "account",
          "type": "address"
        },
        {
          "indexed": true,
          "internalType": "address",
          "name": "sender",
          "type": "address"
        }
      ],
      "name": "RoleGranted",
      "type": "event"
    },
    {
      "anonymous": false,
      "inputs": [
        {
          "indexed": true,
          "internalType": "bytes32",
          "name": "role",
          "type": "bytes32"
        },
        {
          "indexed": true,
          "internalType": "address",
          "name": "account",
          "type": "address"
        },
        {
          "indexed": true,
          "internalType": "address",
          "name": "sender",
          "type": "address"
        }
      ],
      "name": "RoleRevoked",
      "type": "event"
    },
    {
      "anonymous": false,
      "inputs": [
        {
          "indexed": true,
          "internalType": "address",
          "name": "operator",
          "type": "address"
        },
        {
          "indexed": true,
          "internalType": "address",
          "name": "from",
          "type": "address"
        },
        {
          "indexed": true,
          "internalType": "address",
          "name": "to",
          "type": "address"
        },
        {
          "indexed": false,
          "internalType": "uint256[]",
          "name": "ids",
          "type": "uint256[]"
        },
        {
          "indexed": false,
          "internalType": "uint256[]",
          "name": "values",
          "type": "uint256[]"
        }
      ],
      "name": "TransferBatch",
      "type": "event"
    },
    {
      "anonymous": false,
      "inputs": [
        {
          "indexed": true,
          "internalType": "address",
          "name": "operator",
          "type": "address"
        },
        {
          "indexed": true,
          "internalType": "address",
          "name": "from",
          "type": "address"
        },
        {
          "indexed": true,
          "internalType": "address",
          "name": "to",
          "type": "address"
        },
        {
          "indexed": false,
          "internalType": "uint256",
          "name": "id",
          "type": "uint256"
        },
        {
          "indexed": false,
          "internalType": "uint256",
          "name": "value",
          "type": "uint256"
        }
      ],
      "name": "TransferSingle",
      "type": "event"
    },
    {
      "anonymous": false,
      "inputs": [
        {
          "indexed": false,
          "internalType": "string",
          "name": "value",
          "type": "string"
        },
        {
          "indexed": true,
          "internalType": "uint256",
          "name": "id",
          "type": "uint256"
        }
      ],
      "name": "URI",
      "type": "event"
    },
    {
      "anonymous": false,
      "inputs": [
        {
          "indexed": false,
          "internalType": "address",
          "name": "account",
          "type": "address"
        }
      ],
      "name": "Unpaused",
      "type": "event"
    },
    {
      "inputs": [],
      "name": "DEFAULT_ADMIN_ROLE",
      "outputs": [
        {
          "internalType": "bytes32",
          "name": "",
          "type": "bytes32"
        }
      ],
      "stateMutability": "view",
      "type": "function"
    },
    {
      "inputs": [],
      "name": "ERC712_VERSION",
      "outputs": [
        {
          "internalType": "string",
          "name": "",
          "type": "string"
        }
      ],
      "stateMutability": "view",
      "type": "function"
    },
    {
      "inputs": [],
      "name": "MINTER_ROLE",
      "outputs": [
        {
          "internalType": "bytes32",
          "name": "",
          "type": "bytes32"
        }
      ],
      "stateMutability": "view",
      "type": "function"
    },
    {
      "inputs": [],
      "name": "PAUSER_ROLE",
      "outputs": [
        {
          "internalType": "bytes32",
          "name": "",
          "type": "bytes32"
        }
      ],
      "stateMutability": "view",
      "type": "function"
    },
    {
      "inputs": [
        {
          "internalType": "address",
          "name": "account",
          "type": "address"
        },
        {
          "internalType": "uint256",
          "name": "id",
          "type": "uint256"
        }
      ],
      "name": "balanceOf",
      "outputs": [
        {
          "internalType": "uint256",
          "name": "",
          "type": "uint256"
        }
      ],
      "stateMutability": "view",
      "type": "function"
    },
    {
      "inputs": [
        {
          "internalType": "address[]",
          "name": "accounts",
          "type": "address[]"
        },
        {
          "internalType": "uint256[]",
          "name": "ids",
          "type": "uint256[]"
        }
      ],
      "name": "balanceOfBatch",
      "outputs": [
        {
          "internalType": "uint256[]",
          "name": "",
          "type": "uint256[]"
        }
      ],
      "stateMutability": "view",
      "type": "function"
    },
    {
      "inputs": [
        {
          "internalType": "address",
          "name": "account",
          "type": "address"
        },
        {
          "internalType": "uint256",
          "name": "id",
          "type": "uint256"
        },
        {
          "internalType": "uint256",
          "name": "value",
          "type": "uint256"
        }
      ],
      "name": "burn",
      "outputs": [],
      "stateMutability": "nonpayable",
      "type": "function"
    },
    {
      "inputs": [
        {
          "internalType": "address",
          "name": "account",
          "type": "address"
        },
        {
          "internalType": "uint256[]",
          "name": "ids",
          "type": "uint256[]"
        },
        {
          "internalType": "uint256[]",
          "name": "values",
          "type": "uint256[]"
        }
      ],
      "name": "burnBatch",
      "outputs": [],
      "stateMutability": "nonpayable",
      "type": "function"
    },
    {
      "inputs": [
        {
          "internalType": "uint256",
          "name": "",
          "type": "uint256"
        }
      ],
      "name": "creators",
      "outputs": [
        {
          "internalType": "address",
          "name": "",
          "type": "address"
        }
      ],
      "stateMutability": "view",
      "type": "function"
    },
    {
      "inputs": [
        {
          "internalType": "address",
          "name": "userAddress",
          "type": "address"
        },
        {
          "internalType": "bytes",
          "name": "functionSignature",
          "type": "bytes"
        },
        {
          "internalType": "bytes32",
          "name": "sigR",
          "type": "bytes32"
        },
        {
          "internalType": "bytes32",
          "name": "sigS",
          "type": "bytes32"
        },
        {
          "internalType": "uint8",
          "name": "sigV",
          "type": "uint8"
        }
      ],
      "name": "executeMetaTransaction",
      "outputs": [
        {
          "internalType": "bytes",
          "name": "",
          "type": "bytes"
        }
      ],
      "stateMutability": "payable",
      "type": "function"
    },
    {
      "inputs": [],
      "name": "getChainId",
      "outputs": [
        {
          "internalType": "uint256",
          "name": "",
          "type": "uint256"
        }
      ],
      "stateMutability": "view",
      "type": "function"
    },
    {
      "inputs": [],
      "name": "getDomainSeperator",
      "outputs": [
        {
          "internalType": "bytes32",
          "name": "",
          "type": "bytes32"
        }
      ],
      "stateMutability": "view",
      "type": "function"
    },
    {
      "inputs": [
        {
          "internalType": "address",
          "name": "user",
          "type": "address"
        }
      ],
      "name": "getNonce",
      "outputs": [
        {
          "internalType": "uint256",
          "name": "nonce",
          "type": "uint256"
        }
      ],
      "stateMutability": "view",
      "type": "function"
    },
    {
      "inputs": [
        {
          "internalType": "bytes32",
          "name": "role",
          "type": "bytes32"
        }
      ],
      "name": "getRoleAdmin",
      "outputs": [
        {
          "internalType": "bytes32",
          "name": "",
          "type": "bytes32"
        }
      ],
      "stateMutability": "view",
      "type": "function"
    },
    {
      "inputs": [
        {
          "internalType": "bytes32",
          "name": "role",
          "type": "bytes32"
        },
        {
          "internalType": "uint256",
          "name": "index",
          "type": "uint256"
        }
      ],
      "name": "getRoleMember",
      "outputs": [
        {
          "internalType": "address",
          "name": "",
          "type": "address"
        }
      ],
      "stateMutability": "view",
      "type": "function"
    },
    {
      "inputs": [
        {
          "internalType": "bytes32",
          "name": "role",
          "type": "bytes32"
        }
      ],
      "name": "getRoleMemberCount",
      "outputs": [
        {
          "internalType": "uint256",
          "name": "",
          "type": "uint256"
        }
      ],
      "stateMutability": "view",
      "type": "function"
    },
    {
      "inputs": [
        {
          "internalType": "bytes32",
          "name": "role",
          "type": "bytes32"
        },
        {
          "internalType": "address",
          "name": "account",
          "type": "address"
        }
      ],
      "name": "grantRole",
      "outputs": [],
      "stateMutability": "nonpayable",
      "type": "function"
    },
    {
      "inputs": [
        {
          "internalType": "bytes32",
          "name": "role",
          "type": "bytes32"
        },
        {
          "internalType": "address",
          "name": "account",
          "type": "address"
        }
      ],
      "name": "hasRole",
      "outputs": [
        {
          "internalType": "bool",
          "name": "",
          "type": "bool"
        }
      ],
      "stateMutability": "view",
      "type": "function"
    },
    {
      "inputs": [
        {
          "internalType": "address",
          "name": "to",
          "type": "address"
        },
        {
          "internalType": "uint256",
          "name": "id",
          "type": "uint256"
        },
        {
          "internalType": "uint256",
          "name": "amount",
          "type": "uint256"
        },
        {
          "internalType": "bytes",
          "name": "data",
          "type": "bytes"
        }
      ],
      "name": "mint",
      "outputs": [],
      "stateMutability": "nonpayable",
      "type": "function"
    },
    {
      "inputs": [
        {
          "internalType": "address",
          "name": "to",
          "type": "address"
        },
        {
          "internalType": "uint256[]",
          "name": "ids",
          "type": "uint256[]"
        },
        {
          "internalType": "uint256[]",
          "name": "amounts",
          "type": "uint256[]"
        },
        {
          "internalType": "bytes",
          "name": "data",
          "type": "bytes"
        }
      ],
      "name": "mintBatch",
      "outputs": [],
      "stateMutability": "nonpayable",
      "type": "function"
    },
    {
      "inputs": [],
      "name": "name",
      "outputs": [
        {
          "internalType": "string",
          "name": "",
          "type": "string"
        }
      ],
      "stateMutability": "view",
      "type": "function"
    },
    {
      "inputs": [],
      "name": "pause",
      "outputs": [],
      "stateMutability": "nonpayable",
      "type": "function"
    },
    {
      "inputs": [],
      "name": "paused",
      "outputs": [
        {
          "internalType": "bool",
          "name": "",
          "type": "bool"
        }
      ],
      "stateMutability": "view",
      "type": "function"
    },
    {
      "inputs": [
        {
          "internalType": "bytes32",
          "name": "role",
          "type": "bytes32"
        },
        {
          "internalType": "address",
          "name": "account",
          "type": "address"
        }
      ],
      "name": "renounceRole",
      "outputs": [],
      "stateMutability": "nonpayable",
      "type": "function"
    },
    {
      "inputs": [
        {
          "internalType": "bytes32",
          "name": "role",
          "type": "bytes32"
        },
        {
          "internalType": "address",
          "name": "account",
          "type": "address"
        }
      ],
      "name": "revokeRole",
      "outputs": [],
      "stateMutability": "nonpayable",
      "type": "function"
    },
    {
      "inputs": [
        {
          "internalType": "address",
          "name": "from",
          "type": "address"
        },
        {
          "internalType": "address",
          "name": "to",
          "type": "address"
        },
        {
          "internalType": "uint256[]",
          "name": "ids",
          "type": "uint256[]"
        },
        {
          "internalType": "uint256[]",
          "name": "amounts",
          "type": "uint256[]"
        },
        {
          "internalType": "bytes",
          "name": "data",
          "type": "bytes"
        }
      ],
      "name": "safeBatchTransferFrom",
      "outputs": [],
      "stateMutability": "nonpayable",
      "type": "function"
    },
    {
      "inputs": [
        {
          "internalType": "address",
          "name": "from",
          "type": "address"
        },
        {
          "internalType": "address",
          "name": "to",
          "type": "address"
        },
        {
          "internalType": "uint256",
          "name": "id",
          "type": "uint256"
        },
        {
          "internalType": "uint256",
          "name": "amount",
          "type": "uint256"
        },
        {
          "internalType": "bytes",
          "name": "data",
          "type": "bytes"
        }
      ],
      "name": "safeTransferFrom",
      "outputs": [],
      "stateMutability": "nonpayable",
      "type": "function"
    },
    {
      "inputs": [
        {
          "internalType": "address",
          "name": "operator",
          "type": "address"
        },
        {
          "internalType": "bool",
          "name": "approved",
          "type": "bool"
        }
      ],
      "name": "setApprovalForAll",
      "outputs": [],
      "stateMutability": "nonpayable",
      "type": "function"
    },
    {
      "inputs": [
        {
          "internalType": "bytes4",
          "name": "interfaceId",
          "type": "bytes4"
        }
      ],
      "name": "supportsInterface",
      "outputs": [
        {
          "internalType": "bool",
          "name": "",
          "type": "bool"
        }
      ],
      "stateMutability": "view",
      "type": "function"
    },
    {
      "inputs": [
        {
          "internalType": "uint256",
          "name": "",
          "type": "uint256"
        }
      ],
      "name": "tokenSupply",
      "outputs": [
        {
          "internalType": "uint256",
          "name": "",
          "type": "uint256"
        }
      ],
      "stateMutability": "view",
      "type": "function"
    },
    {
      "inputs": [],
      "name": "unpause",
      "outputs": [],
      "stateMutability": "nonpayable",
      "type": "function"
    },
    {
      "inputs": [
        {
          "internalType": "bytes32",
          "name": "_title",
          "type": "bytes32"
        },
        {
          "internalType": "uint256",
          "name": "_quantity",
          "type": "uint256"
        },
        {
          "internalType": "string",
          "name": "_uri",
          "type": "string"
        },
        {
          "internalType": "bytes",
          "name": "_data",
          "type": "bytes"
        }
      ],
      "name": "mintItem",
      "outputs": [
        {
          "internalType": "uint256",
          "name": "",
          "type": "uint256"
        }
      ],
      "stateMutability": "nonpayable",
      "type": "function"
    },
    {
      "inputs": [
        {
          "internalType": "uint256",
          "name": "_id",
          "type": "uint256"
        }
      ],
      "name": "totalSupply",
      "outputs": [
        {
          "internalType": "uint256",
          "name": "",
          "type": "uint256"
        }
      ],
      "stateMutability": "view",
      "type": "function"
    },
    {
      "inputs": [
        {
          "internalType": "uint256",
          "name": "_id",
          "type": "uint256"
        }
      ],
      "name": "uri",
      "outputs": [
        {
          "internalType": "string",
          "name": "",
          "type": "string"
        }
      ],
      "stateMutability": "view",
      "type": "function"
    },
    {
      "inputs": [
        {
          "internalType": "address",
          "name": "_owner",
          "type": "address"
        },
        {
          "internalType": "address",
          "name": "_operator",
          "type": "address"
        }
      ],
      "name": "isApprovedForAll",
      "outputs": [
        {
          "internalType": "bool",
          "name": "isOperator",
          "type": "bool"
        }
      ],
      "stateMutability": "view",
      "type": "function"
    }
  ],
  "bytecode": "0x60806040526005805461ff001916905560006009553480156200002157600080fd5b506040516200416d3803806200416d8339810160408190526200004491620005f2565b808062000051816200018d565b506005805460ff191690556200007260006200006c620001a6565b620001c3565b620000a17f9f2df0fed2c77648de5860a4cc508cd0818c85b8b8a1ab4ceeef8d981c8956a66200006c620001a6565b620000d07f65d7a28e3265b37a6474929f336521b332c1681b933f6cb9f3376673440d862a6200006c620001a6565b508151620000e6906008906020850190620004a1565b506200018560088054620000fa90620006ad565b80601f01602080910402602001604051908101604052809291908181526020018280546200012890620006ad565b8015620001795780601f106200014d5761010080835404028352916020019162000179565b820191906000526020600020905b8154815290600101906020018083116200015b57829003601f168201915b50506200020692505050565b505062000700565b8051620001a2906004906020840190620004a1565b5050565b6000620001bd6200025760201b620014cc1760201c565b90505b90565b620001da8282620002b560201b620015281760201c565b60008281526001602090815260409091206200020191839062001536620002c1821b17901c565b505050565b600554610100900460ff16156200023a5760405162461bcd60e51b8152600401620002319062000685565b60405180910390fd5b6200024581620002e1565b506005805461ff001916610100179055565b600033301415620002b057600080368080601f0160208091040260200160405190810160405280939291908181526020018383808284376000920191909152505050503601516001600160a01b03169150620001c09050565b503390565b620001a2828262000383565b6000620002d8836001600160a01b0384166200040d565b90505b92915050565b6040518060800160405280604f81526020016200411e604f913980516020918201208251838301206040805180820190915260018152603160f81b930192909252907fc89efdaa54c0f20c7adf612882df0950f5a951637e0307cdcb4c672f298b8bc6306200034f6200045c565b6040516200036595949392919060200162000659565b60408051601f19818403018152919052805160209091012060065550565b6200038f828262000460565b620001a2576000828152602081815260408083206001600160a01b03851684529091529020805460ff19166001179055620003c9620001a6565b6001600160a01b0316816001600160a01b0316837f2f8788117e7eff1d82e926ec794901d17c78024a50270940304540a733656f0d60405160405180910390a45050565b60006200041b838362000489565b6200045357508154600181810184556000848152602080822090930184905584548482528286019093526040902091909155620002db565b506000620002db565b4690565b6000918252602082815260408084206001600160a01b0393909316845291905290205460ff1690565b60009081526001919091016020526040902054151590565b828054620004af90620006ad565b90600052602060002090601f016020900481019282620004d357600085556200051e565b82601f10620004ee57805160ff19168380011785556200051e565b828001600101855582156200051e579182015b828111156200051e57825182559160200191906001019062000501565b506200052c92915062000530565b5090565b5b808211156200052c576000815560010162000531565b600082601f83011262000558578081fd5b81516001600160401b0380821115620005755762000575620006ea565b6040516020601f8401601f19168201810183811183821017156200059d576200059d620006ea565b6040528382528584018101871015620005b4578485fd5b8492505b83831015620005d75785830181015182840182015291820191620005b8565b83831115620005e857848185840101525b5095945050505050565b6000806040838503121562000605578182fd5b82516001600160401b03808211156200061c578384fd5b6200062a8683870162000547565b9350602085015191508082111562000640578283fd5b506200064f8582860162000547565b9150509250929050565b948552602085019390935260408401919091526001600160a01b03166060830152608082015260a00190565b6020808252600e908201526d185b1c9958591e481a5b9a5d195960921b604082015260600190565b600281046001821680620006c257607f821691505b60208210811415620006e457634e487b7160e01b600052602260045260246000fd5b50919050565b634e487b7160e01b600052604160045260246000fd5b613a0e80620007106000396000f3fe6080604052600436106102035760003560e01c80635c975abb11610118578063ca15c873116100a0578063dd5dff4d1161006f578063dd5dff4d146105a4578063e63ab1e9146105c4578063e985e9c5146105d9578063f242432a146105f9578063f5298aca1461061957610203565b8063ca15c8731461052f578063cd53d08e1461054f578063d53913931461056f578063d547741f1461058457610203565b80639010d07c116100e75780639010d07c1461048d57806391d14854146104ba578063a217fddf146104da578063a22cb465146104ef578063bd85b0391461050f57610203565b80635c975abb146104235780636b20c45414610438578063731133e9146104585780638456cb591461047857610203565b8063248a9ca31161019b5780632f2ff15d1161016a5780632f2ff15d1461038c5780633408e470146103ac57806336568abe146103c15780633f4ba83a146103e15780634e1273f4146103f657610203565b8063248a9ca31461030c5780632693ebf21461032c5780632d0335ab1461034c5780632eb2c2d61461036c57610203565b80630e89341c116101d75780630e89341c146102a05780630f7e5970146102c05780631f7fdffa146102d557806320379ee5146102f757610203565b8062fdd58e1461020857806301ffc9a71461023e57806306fdde031461026b5780630c53c51c1461028d575b600080fd5b34801561021457600080fd5b50610228610223366004612a72565b610639565b6040516102359190612d54565b60405180910390f35b34801561024a57600080fd5b5061025e610259366004612cb6565b610695565b6040516102359190612f58565b34801561027757600080fd5b506102806106a8565b6040516102359190612fa5565b61028061029b3660046129fa565b610736565b3480156102ac57600080fd5b506102806102bb366004612bdc565b6108b6565b3480156102cc57600080fd5b5061028061097c565b3480156102e157600080fd5b506102f56102f036600461292c565b610999565b005b34801561030357600080fd5b506102286109f3565b34801561031857600080fd5b50610228610327366004612bdc565b6109fa565b34801561033857600080fd5b50610228610347366004612bdc565b610a0f565b34801561035857600080fd5b50610228610367366004612769565b610a21565b34801561037857600080fd5b506102f56103873660046127b5565b610a3c565b34801561039857600080fd5b506102f56103a7366004612bf4565b610ca5565b3480156103b857600080fd5b50610228610ccc565b3480156103cd57600080fd5b506102f56103dc366004612bf4565b610cd0565b3480156103ed57600080fd5b506102f5610cf2565b34801561040257600080fd5b50610416610411366004612b1f565b610d44565b6040516102359190612f20565b34801561042f57600080fd5b5061025e610e63565b34801561044457600080fd5b506102f56104533660046128bc565b610e6c565b34801561046457600080fd5b506102f5610473366004612acd565b610ec1565b34801561048457600080fd5b506102f5610f15565b34801561049957600080fd5b506104ad6104a8366004612c16565b610f65565b6040516102359190612e40565b3480156104c657600080fd5b5061025e6104d5366004612bf4565b610f84565b3480156104e657600080fd5b50610228610fad565b3480156104fb57600080fd5b506102f561050a3660046129c0565b610fb2565b34801561051b57600080fd5b5061022861052a366004612bdc565b611080565b34801561053b57600080fd5b5061022861054a366004612bdc565b611092565b34801561055b57600080fd5b506104ad61056a366004612bdc565b6110a9565b34801561057b57600080fd5b506102286110c4565b34801561059057600080fd5b506102f561059f366004612bf4565b6110e8565b3480156105b057600080fd5b506102286105bf366004612c37565b6110f2565b3480156105d057600080fd5b506102286112ad565b3480156105e557600080fd5b5061025e6105f4366004612783565b6112d1565b34801561060557600080fd5b506102f561061436600461285a565b6112dd565b34801561062557600080fd5b506102f5610634366004612a9b565b611477565b60006001600160a01b03831661066a5760405162461bcd60e51b815260040161066190613128565b60405180910390fd5b5060008181526002602090815260408083206001600160a01b03861684529091529020545b92915050565b60006106a08261154b565b90505b919050565b600880546106b590613850565b80601f01602080910402602001604051908101604052809291908181526020018280546106e190613850565b801561072e5780601f106107035761010080835404028352916020019161072e565b820191906000526020600020905b81548152906001019060200180831161071157829003601f168201915b505050505081565b60408051606081810183526001600160a01b03881660008181526007602090815290859020548452830152918101869052610774878287878761158b565b6107905760405162461bcd60e51b8152600401610661906134b8565b6001600160a01b0387166000908152600760205260409020546107b49060016137bf565b6001600160a01b0388166000908152600760205260409081902091909155517f5845892132946850460bff5a0083f71031bc5bf9aadcd40f1de79423eac9b10b9061080490899033908a90612e54565b60405180910390a1600080306001600160a01b0316888a60405160200161082c929190612d79565b60408051601f198184030181529082905261084691612d5d565b6000604051808303816000865af19150503d8060008114610883576040519150601f19603f3d011682016040523d82523d6000602084013e610888565b606091505b5091509150816108aa5760405162461bcd60e51b815260040161066190613173565b98975050505050505050565b60606108c182611631565b6108dd5760405162461bcd60e51b815260040161066190613473565b6000828152600b6020526040812080546108f690613850565b80601f016020809104026020016040519081016040528092919081815260200182805461092290613850565b801561096f5780601f106109445761010080835404028352916020019161096f565b820191906000526020600020905b81548152906001019060200180831161095257829003601f168201915b5093979650505050505050565b604051806040016040528060018152602001603160f81b81525081565b6109c57f9f2df0fed2c77648de5860a4cc508cd0818c85b8b8a1ab4ceeef8d981c8956a66104d561164e565b6109e15760405162461bcd60e51b8152600401610661906133cc565b6109ed8484848461165d565b50505050565b6006545b90565b60009081526020819052604090206001015490565b600a6020526000908152604090205481565b6001600160a01b031660009081526007602052604090205490565b8151835114610a5d5760405162461bcd60e51b81526004016106619061368d565b6001600160a01b038416610a835760405162461bcd60e51b8152600401610661906132f2565b610a8b61164e565b6001600160a01b0316856001600160a01b03161480610ab15750610ab1856105f461164e565b610acd5760405162461bcd60e51b815260040161066190613337565b6000610ad761164e565b9050610ae78187878787876117e6565b60005b8451811015610c37576000858281518110610b1557634e487b7160e01b600052603260045260246000fd5b602002602001015190506000858381518110610b4157634e487b7160e01b600052603260045260246000fd5b60209081029190910181015160008481526002835260408082206001600160a01b038e168352909352919091205490915081811015610b925760405162461bcd60e51b815260040161066190613429565b610b9c82826137f6565b6002600085815260200190815260200160002060008c6001600160a01b03166001600160a01b0316815260200190815260200160002081905550816002600085815260200190815260200160002060008b6001600160a01b03166001600160a01b031681526020019081526020016000206000828254610c1c91906137bf565b9250508190555050505080610c309061388b565b9050610aea565b50846001600160a01b0316866001600160a01b0316826001600160a01b03167f4a39dc06d4c0dbc64b70af90fd698a233a518aa5d07e595d983b8c0526c8f7fb8787604051610c87929190612f33565b60405180910390a4610c9d8187878787876117f4565b505050505050565b610caf8282611902565b6000828152600160205260409020610cc79082611536565b505050565b4690565b610cda8282611926565b6000828152600160205260409020610cc79082611968565b610d1e7f65d7a28e3265b37a6474929f336521b332c1681b933f6cb9f3376673440d862a6104d561164e565b610d3a5760405162461bcd60e51b8152600401610661906134f9565b610d4261197d565b565b60608151835114610d675760405162461bcd60e51b815260040161066190613644565b600083516001600160401b03811115610d9057634e487b7160e01b600052604160045260246000fd5b604051908082528060200260200182016040528015610db9578160200160208202803683370190505b50905060005b8451811015610e5b57610e20858281518110610deb57634e487b7160e01b600052603260045260246000fd5b6020026020010151858381518110610e1357634e487b7160e01b600052603260045260246000fd5b6020026020010151610639565b828281518110610e4057634e487b7160e01b600052603260045260246000fd5b6020908102919091010152610e548161388b565b9050610dbf565b509392505050565b60055460ff1690565b610e7461164e565b6001600160a01b0316836001600160a01b03161480610e9a5750610e9a836105f461164e565b610eb65760405162461bcd60e51b81526004016106619061323a565b610cc78383836119eb565b610eed7f9f2df0fed2c77648de5860a4cc508cd0818c85b8b8a1ab4ceeef8d981c8956a66104d561164e565b610f095760405162461bcd60e51b8152600401610661906133cc565b6109ed84848484611bac565b610f417f65d7a28e3265b37a6474929f336521b332c1681b933f6cb9f3376673440d862a6104d561164e565b610f5d5760405162461bcd60e51b815260040161066190613556565b610d42611c8e565b6000828152600160205260408120610f7d9083611ce9565b9392505050565b6000918252602082815260408084206001600160a01b0393909316845291905290205460ff1690565b600081565b816001600160a01b0316610fc461164e565b6001600160a01b03161415610feb5760405162461bcd60e51b8152600401610661906135fb565b8060036000610ff861164e565b6001600160a01b03908116825260208083019390935260409182016000908120918716808252919093529120805460ff19169215159290921790915561103c61164e565b6001600160a01b03167f17307eab39ab6107e8899845ad3d59bd9653f200f220920489ca2b5937696c31836040516110749190612f58565b60405180910390a35050565b6000908152600a602052604090205490565b60008181526001602052604081206106a090611cf5565b600c602052600090815260409020546001600160a01b031681565b7f9f2df0fed2c77648de5860a4cc508cd0818c85b8b8a1ab4ceeef8d981c8956a681565b610cda8282611d00565b600080876040516020016111069190612d54565b60408051601f1981840301815291815281516020928301206000818152600d90935291205490915060ff161561114e5760405162461bcd60e51b8152600401610661906135b3565b6000818152600d60205260408120805460ff19166001908117909155600980549192909161117d9084906137bf565b90915550506009546000818152600c6020526040902080546001600160a01b0319163317905585156111fe576000818152600b602052604090206111c290888861259d565b50807f6bb7ff708619ba0610cba295a58592e0451dee2622938c8755667688daf3529b88886040516111f5929190612fb8565b60405180910390a25b61124761120961164e565b828a88888080601f016020809104026020016040519081016040528093929190818152602001838380828437600092019190915250611bac92505050565b6000818152600a602052604090208890558061126161164e565b6001600160a01b03167f7cf74ddced37b6d9bbe2eee95e994ae86fdae7af9ed17fd874844065ae7f802f8a6040516112999190612d54565b60405180910390a398975050505050505050565b7f65d7a28e3265b37a6474929f336521b332c1681b933f6cb9f3376673440d862a81565b6000610f7d8383611d1f565b6001600160a01b0384166113035760405162461bcd60e51b8152600401610661906132f2565b61130b61164e565b6001600160a01b0316856001600160a01b031614806113315750611331856105f461164e565b61134d5760405162461bcd60e51b81526004016106619061323a565b600061135761164e565b905061137781878761136888611d4d565b61137188611d4d565b876117e6565b60008481526002602090815260408083206001600160a01b038a168452909152902054838110156113ba5760405162461bcd60e51b815260040161066190613429565b6113c484826137f6565b60008681526002602090815260408083206001600160a01b038c811685529252808320939093558816815290812080548692906114029084906137bf565b92505081905550856001600160a01b0316876001600160a01b0316836001600160a01b03167fc3d58168c5ae7397731d063d5bbf3d657854427343f4c083240f7aacaa2d0f628888604051611458929190613765565b60405180910390a461146e828888888888611da6565b50505050505050565b61147f61164e565b6001600160a01b0316836001600160a01b031614806114a557506114a5836105f461164e565b6114c15760405162461bcd60e51b81526004016106619061323a565b610cc7838383611e77565b60003330141561152357600080368080601f0160208091040260200160405190810160405280939291908181526020018383808284376000920191909152505050503601516001600160a01b031691506109f79050565b503390565b6115328282611f94565b5050565b6000610f7d836001600160a01b038416612019565b60006001600160e01b03198216636cdb3d1360e11b148061157c57506001600160e01b031982166303a24d0760e21b145b806106a057506106a082612063565b60006001600160a01b0386166115b35760405162461bcd60e51b815260040161066190613283565b60016115c66115c187612088565b6120e6565b838686604051600081526020016040526040516115e69493929190612f87565b6020604051602081039080840390855afa158015611608573d6000803e3d6000fd5b505050602060405103516001600160a01b0316866001600160a01b031614905095945050505050565b6000908152600c60205260409020546001600160a01b0316151590565b60006116586114cc565b905090565b6001600160a01b0384166116835760405162461bcd60e51b8152600401610661906136d5565b81518351146116a45760405162461bcd60e51b81526004016106619061368d565b60006116ae61164e565b90506116bf816000878787876117e6565b60005b8451811015611777578381815181106116eb57634e487b7160e01b600052603260045260246000fd5b60200260200101516002600087848151811061171757634e487b7160e01b600052603260045260246000fd5b602002602001015181526020019081526020016000206000886001600160a01b03166001600160a01b03168152602001908152602001600020600082825461175f91906137bf565b9091555081905061176f8161388b565b9150506116c2565b50846001600160a01b031660006001600160a01b0316826001600160a01b03167f4a39dc06d4c0dbc64b70af90fd698a233a518aa5d07e595d983b8c0526c8f7fb87876040516117c8929190612f33565b60405180910390a46117df816000878787876117f4565b5050505050565b610c9d868686868686612102565b611806846001600160a01b0316612135565b15610c9d5760405163bc197c8160e01b81526001600160a01b0385169063bc197c819061183f9089908990889088908890600401612e89565b602060405180830381600087803b15801561185957600080fd5b505af1925050508015611889575060408051601f3d908101601f1916820190925261188691810190612cd2565b60015b6118d2576118956138d8565b806118a057506118ba565b8060405162461bcd60e51b81526004016106619190612fa5565b60405162461bcd60e51b815260040161066190612fe7565b6001600160e01b0319811663bc197c8160e01b1461146e5760405162461bcd60e51b8152600401610661906130b2565b61190b826109fa565b61191c8161191761164e565b61213b565b610cc78383611f94565b61192e61164e565b6001600160a01b0316816001600160a01b03161461195e5760405162461bcd60e51b815260040161066190613716565b611532828261219f565b6000610f7d836001600160a01b038416612222565b611985610e63565b6119a15760405162461bcd60e51b8152600401610661906130fa565b6005805460ff191690557f5db9ee0a495bf2e6ff9c91a7834c1ba4fdd244a5e8aa4e537bd38aeae4b073aa6119d461164e565b6040516119e19190612e40565b60405180910390a1565b6001600160a01b038316611a115760405162461bcd60e51b815260040161066190613389565b8051825114611a325760405162461bcd60e51b81526004016106619061368d565b6000611a3c61164e565b9050611a5c818560008686604051806020016040528060008152506117e6565b60005b8351811015611b4d576000848281518110611a8a57634e487b7160e01b600052603260045260246000fd5b602002602001015190506000848381518110611ab657634e487b7160e01b600052603260045260246000fd5b60209081029190910181015160008481526002835260408082206001600160a01b038c168352909352919091205490915081811015611b075760405162461bcd60e51b8152600401610661906131aa565b611b1182826137f6565b60009384526002602090815260408086206001600160a01b038c1687529091529093209290925550819050611b458161388b565b915050611a5f565b5060006001600160a01b0316846001600160a01b0316826001600160a01b03167f4a39dc06d4c0dbc64b70af90fd698a233a518aa5d07e595d983b8c0526c8f7fb8686604051611b9e929190612f33565b60405180910390a450505050565b6001600160a01b038416611bd25760405162461bcd60e51b8152600401610661906136d5565b6000611bdc61164e565b9050611bee8160008761136888611d4d565b60008481526002602090815260408083206001600160a01b038916845290915281208054859290611c209084906137bf565b92505081905550846001600160a01b031660006001600160a01b0316826001600160a01b03167fc3d58168c5ae7397731d063d5bbf3d657854427343f4c083240f7aacaa2d0f628787604051611c77929190613765565b60405180910390a46117df81600087878787611da6565b611c96610e63565b15611cb35760405162461bcd60e51b8152600401610661906132c8565b6005805460ff191660011790557f62e78cea01bee320cd4e420270b5ea74000d11b0c9f74754ebdbfc544b05a2586119d461164e565b6000610f7d8383612339565b60006106a082612392565b611d09826109fa565b611d158161191761164e565b610cc7838361219f565b6001600160a01b03918216600090815260036020908152604080832093909416825291909152205460ff1690565b60408051600180825281830190925260609160009190602080830190803683370190505090508281600081518110611d9557634e487b7160e01b600052603260045260246000fd5b602090810291909101015292915050565b611db8846001600160a01b0316612135565b15610c9d5760405163f23a6e6160e01b81526001600160a01b0385169063f23a6e6190611df19089908990889088908890600401612edb565b602060405180830381600087803b158015611e0b57600080fd5b505af1925050508015611e3b575060408051601f3d908101601f19168201909252611e3891810190612cd2565b60015b611e47576118956138d8565b6001600160e01b0319811663f23a6e6160e01b1461146e5760405162461bcd60e51b8152600401610661906130b2565b6001600160a01b038316611e9d5760405162461bcd60e51b815260040161066190613389565b6000611ea761164e565b9050611ed781856000611eb987611d4d565b611ec287611d4d565b604051806020016040528060008152506117e6565b60008381526002602090815260408083206001600160a01b038816845290915290205482811015611f1a5760405162461bcd60e51b8152600401610661906131aa565b611f2483826137f6565b60008581526002602090815260408083206001600160a01b03808b16808652919093528184209490945551919291908516907fc3d58168c5ae7397731d063d5bbf3d657854427343f4c083240f7aacaa2d0f6290611f859089908990613765565b60405180910390a45050505050565b611f9e8282610f84565b611532576000828152602081815260408083206001600160a01b03851684529091529020805460ff19166001179055611fd561164e565b6001600160a01b0316816001600160a01b0316837f2f8788117e7eff1d82e926ec794901d17c78024a50270940304540a733656f0d60405160405180910390a45050565b60006120258383612396565b61205b5750815460018181018455600084815260208082209093018490558454848252828601909352604090209190915561068f565b50600061068f565b60006001600160e01b03198216635a05180f60e01b14806106a057506106a0826123ae565b600060405180608001604052806043815260200161399660439139805160209182012083518483015160408087015180519086012090516120c99501612f63565b604051602081830303815290604052805190602001209050919050565b60006120f06109f3565b826040516020016120c9929190612db0565b612110868686868686610c9d565b612118610e63565b15610c9d5760405162461bcd60e51b8152600401610661906131ee565b3b151590565b6121458282610f84565b6115325761215d816001600160a01b031660146123d3565b6121688360206123d3565b604051602001612179929190612dcb565b60408051601f198184030181529082905262461bcd60e51b825261066191600401612fa5565b6121a98282610f84565b15611532576000828152602081815260408083206001600160a01b03851684529091529020805460ff191690556121de61164e565b6001600160a01b0316816001600160a01b0316837ff6391f5c32d9c69d2a47ea670b442974b53935d1edc7fd64eb21e047a839171b60405160405180910390a45050565b6000818152600183016020526040812054801561232f5760006122466001836137f6565b855490915060009061225a906001906137f6565b9050600086600001828154811061228157634e487b7160e01b600052603260045260246000fd5b90600052602060002001549050808760000184815481106122b257634e487b7160e01b600052603260045260246000fd5b6000918252602080832090910192909255828152600189019091526040902084905586548790806122f357634e487b7160e01b600052603160045260246000fd5b6001900381819060005260206000200160009055905586600101600087815260200190815260200160002060009055600194505050505061068f565b600091505061068f565b8154600090821061235c5760405162461bcd60e51b81526004016106619061303b565b82600001828154811061237f57634e487b7160e01b600052603260045260246000fd5b9060005260206000200154905092915050565b5490565b60009081526001919091016020526040902054151590565b60006001600160e01b03198216637965db0b60e01b14806106a057506106a082612584565b606060006123e28360026137d7565b6123ed9060026137bf565b6001600160401b0381111561241257634e487b7160e01b600052604160045260246000fd5b6040519080825280601f01601f19166020018201604052801561243c576020820181803683370190505b509050600360fc1b8160008151811061246557634e487b7160e01b600052603260045260246000fd5b60200101906001600160f81b031916908160001a905350600f60fb1b816001815181106124a257634e487b7160e01b600052603260045260246000fd5b60200101906001600160f81b031916908160001a90535060006124c68460026137d7565b6124d19060016137bf565b90505b6001811115612565576f181899199a1a9b1b9c1cb0b131b232b360811b85600f166010811061251357634e487b7160e01b600052603260045260246000fd5b1a60f81b82828151811061253757634e487b7160e01b600052603260045260246000fd5b60200101906001600160f81b031916908160001a90535060049490941c9361255e81613839565b90506124d4565b508315610f7d5760405162461bcd60e51b81526004016106619061307d565b6001600160e01b031981166301ffc9a760e01b14919050565b8280546125a990613850565b90600052602060002090601f0160209004810192826125cb5760008555612611565b82601f106125e45782800160ff19823516178555612611565b82800160010185558215612611579182015b828111156126115782358255916020019190600101906125f6565b5061261d929150612621565b5090565b5b8082111561261d5760008155600101612622565b80356001600160a01b03811681146106a357600080fd5b600082601f83011261265d578081fd5b8135602061267261266d8361379c565b613773565b828152818101908583018385028701840188101561268e578586fd5b855b858110156126ac57813584529284019290840190600101612690565b5090979650505050505050565b60008083601f8401126126ca578182fd5b5081356001600160401b038111156126e0578182fd5b6020830191508360208285010111156126f857600080fd5b9250929050565b600082601f83011261270f578081fd5b81356001600160401b03811115612728576127286138bc565b61273b601f8201601f1916602001613773565b81815284602083860101111561274f578283fd5b816020850160208301379081016020019190915292915050565b60006020828403121561277a578081fd5b610f7d82612636565b60008060408385031215612795578081fd5b61279e83612636565b91506127ac60208401612636565b90509250929050565b600080600080600060a086880312156127cc578081fd5b6127d586612636565b94506127e360208701612636565b935060408601356001600160401b03808211156127fe578283fd5b61280a89838a0161264d565b9450606088013591508082111561281f578283fd5b61282b89838a0161264d565b93506080880135915080821115612840578283fd5b5061284d888289016126ff565b9150509295509295909350565b600080600080600060a08688031215612871578081fd5b61287a86612636565b945061288860208701612636565b9350604086013592506060860135915060808601356001600160401b038111156128b0578182fd5b61284d888289016126ff565b6000806000606084860312156128d0578283fd5b6128d984612636565b925060208401356001600160401b03808211156128f4578384fd5b6129008783880161264d565b93506040860135915080821115612915578283fd5b506129228682870161264d565b9150509250925092565b60008060008060808587031215612941578384fd5b61294a85612636565b935060208501356001600160401b0380821115612965578485fd5b6129718883890161264d565b94506040870135915080821115612986578384fd5b6129928883890161264d565b935060608701359150808211156129a7578283fd5b506129b4878288016126ff565b91505092959194509250565b600080604083850312156129d2578182fd5b6129db83612636565b9150602083013580151581146129ef578182fd5b809150509250929050565b600080600080600060a08688031215612a11578283fd5b612a1a86612636565b945060208601356001600160401b03811115612a34578384fd5b612a40888289016126ff565b9450506040860135925060608601359150608086013560ff81168114612a64578182fd5b809150509295509295909350565b60008060408385031215612a84578182fd5b612a8d83612636565b946020939093013593505050565b600080600060608486031215612aaf578081fd5b612ab884612636565b95602085013595506040909401359392505050565b60008060008060808587031215612ae2578182fd5b612aeb85612636565b9350602085013592506040850135915060608501356001600160401b03811115612b13578182fd5b6129b4878288016126ff565b60008060408385031215612b31578182fd5b82356001600160401b0380821115612b47578384fd5b818501915085601f830112612b5a578384fd5b81356020612b6a61266d8361379c565b82815281810190858301838502870184018b1015612b86578889fd5b8896505b84871015612baf57612b9b81612636565b835260019690960195918301918301612b8a565b5096505086013592505080821115612bc5578283fd5b50612bd28582860161264d565b9150509250929050565b600060208284031215612bed578081fd5b5035919050565b60008060408385031215612c06578182fd5b823591506127ac60208401612636565b60008060408385031215612c28578182fd5b50508035926020909101359150565b60008060008060008060808789031215612c4f578384fd5b863595506020870135945060408701356001600160401b0380821115612c73578586fd5b612c7f8a838b016126b9565b90965094506060890135915080821115612c97578283fd5b50612ca489828a016126b9565b979a9699509497509295939492505050565b600060208284031215612cc7578081fd5b8135610f7d8161397c565b600060208284031215612ce3578081fd5b8151610f7d8161397c565b6000815180845260208085019450808401835b83811015612d1d57815187529582019590820190600101612d01565b509495945050505050565b60008151808452612d4081602086016020860161380d565b601f01601f19169290920160200192915050565b90815260200190565b60008251612d6f81846020870161380d565b9190910192915050565b60008351612d8b81846020880161380d565b60609390931b6bffffffffffffffffffffffff19169190920190815260140192915050565b61190160f01b81526002810192909252602282015260420190565b60007f416363657373436f6e74726f6c3a206163636f756e742000000000000000000082528351612e0381601785016020880161380d565b7001034b99036b4b9b9b4b733903937b6329607d1b6017918401918201528351612e3481602884016020880161380d565b01602801949350505050565b6001600160a01b0391909116815260200190565b6001600160a01b03848116825283166020820152606060408201819052600090612e8090830184612d28565b95945050505050565b6001600160a01b0386811682528516602082015260a060408201819052600090612eb590830186612cee565b8281036060840152612ec78186612cee565b905082810360808401526108aa8185612d28565b6001600160a01b03868116825285166020820152604081018490526060810183905260a060808201819052600090612f1590830184612d28565b979650505050505050565b600060208252610f7d6020830184612cee565b600060408252612f466040830185612cee565b8281036020840152612e808185612cee565b901515815260200190565b93845260208401929092526001600160a01b03166040830152606082015260800190565b93845260ff9290921660208401526040830152606082015260800190565b600060208252610f7d6020830184612d28565b60006020825282602083015282846040840137818301604090810191909152601f909201601f19160101919050565b60208082526034908201527f455243313135353a207472616e7366657220746f206e6f6e20455243313135356040820152732932b1b2b4bb32b91034b6b83632b6b2b73a32b960611b606082015260800190565b60208082526022908201527f456e756d657261626c655365743a20696e646578206f7574206f6620626f756e604082015261647360f01b606082015260800190565b6020808252818101527f537472696e67733a20686578206c656e67746820696e73756666696369656e74604082015260600190565b60208082526028908201527f455243313135353a204552433131353552656365697665722072656a656374656040820152676420746f6b656e7360c01b606082015260800190565b60208082526014908201527314185d5cd8589b194e881b9bdd081c185d5cd95960621b604082015260600190565b6020808252602b908201527f455243313135353a2062616c616e636520717565727920666f7220746865207a60408201526a65726f206164647265737360a81b606082015260800190565b6020808252601c908201527f46756e6374696f6e2063616c6c206e6f74207375636365737366756c00000000604082015260600190565b60208082526024908201527f455243313135353a206275726e20616d6f756e7420657863656564732062616c604082015263616e636560e01b606082015260800190565b6020808252602c908201527f455243313135355061757361626c653a20746f6b656e207472616e736665722060408201526b1dda1a5b19481c185d5cd95960a21b606082015260800190565b60208082526029908201527f455243313135353a2063616c6c6572206973206e6f74206f776e6572206e6f7260408201526808185c1c1c9bdd995960ba1b606082015260800190565b60208082526025908201527f4e61746976654d6574615472616e73616374696f6e3a20494e56414c49445f5360408201526424a3a722a960d91b606082015260800190565b60208082526010908201526f14185d5cd8589b194e881c185d5cd95960821b604082015260600190565b60208082526025908201527f455243313135353a207472616e7366657220746f20746865207a65726f206164604082015264647265737360d81b606082015260800190565b60208082526032908201527f455243313135353a207472616e736665722063616c6c6572206973206e6f74206040820152711bdddb995c881b9bdc88185c1c1c9bdd995960721b606082015260800190565b60208082526023908201527f455243313135353a206275726e2066726f6d20746865207a65726f206164647260408201526265737360e81b606082015260800190565b60208082526038908201527f455243313135355072657365744d696e7465725061757365723a206d7573742060408201527f68617665206d696e74657220726f6c6520746f206d696e740000000000000000606082015260800190565b6020808252602a908201527f455243313135353a20696e73756666696369656e742062616c616e636520666f60408201526939103a3930b739b332b960b11b606082015260800190565b60208082526025908201527f4552433732315472616461626c65237572693a204e4f4e4558495354454e545f6040820152642a27a5a2a760d91b606082015260800190565b60208082526021908201527f5369676e657220616e64207369676e617475726520646f206e6f74206d6174636040820152600d60fb1b606082015260800190565b6020808252603b908201527f455243313135355072657365744d696e7465725061757365723a206d7573742060408201527f686176652070617573657220726f6c6520746f20756e70617573650000000000606082015260800190565b60208082526039908201527f455243313135355072657365744d696e7465725061757365723a206d7573742060408201527f686176652070617573657220726f6c6520746f20706175736500000000000000606082015260800190565b60208082526028908201527f53747265616b45524331313535236d696e744974656d3a205449544c455f4e4f604082015267545f554e4951554560c01b606082015260800190565b60208082526029908201527f455243313135353a2073657474696e6720617070726f76616c20737461747573604082015268103337b91039b2b63360b91b606082015260800190565b60208082526029908201527f455243313135353a206163636f756e747320616e6420696473206c656e677468604082015268040dad2e6dac2e8c6d60bb1b606082015260800190565b60208082526028908201527f455243313135353a2069647320616e6420616d6f756e7473206c656e677468206040820152670dad2e6dac2e8c6d60c31b606082015260800190565b60208082526021908201527f455243313135353a206d696e7420746f20746865207a65726f206164647265736040820152607360f81b606082015260800190565b6020808252602f908201527f416363657373436f6e74726f6c3a2063616e206f6e6c792072656e6f756e636560408201526e103937b632b9903337b91039b2b63360891b606082015260800190565b918252602082015260400190565b6040518181016001600160401b0381118282101715613794576137946138bc565b604052919050565b60006001600160401b038211156137b5576137b56138bc565b5060209081020190565b600082198211156137d2576137d26138a6565b500190565b60008160001904831182151516156137f1576137f16138a6565b500290565b600082821015613808576138086138a6565b500390565b60005b83811015613828578181015183820152602001613810565b838111156109ed5750506000910152565b600081613848576138486138a6565b506000190190565b60028104600182168061386457607f821691505b6020821081141561388557634e487b7160e01b600052602260045260246000fd5b50919050565b600060001982141561389f5761389f6138a6565b5060010190565b634e487b7160e01b600052601160045260246000fd5b634e487b7160e01b600052604160045260246000fd5b60e01c90565b600060443d10156138e8576109f7565b600481823e6308c379a06138fc82516138d2565b14613906576109f7565b6040513d600319016004823e80513d6001600160401b03816024840111818411171561393557505050506109f7565b8284019250825191508082111561394f57505050506109f7565b503d83016020828401011115613967575050506109f7565b601f01601f1916810160200160405291505090565b6001600160e01b03198116811461399257600080fd5b5056fe4d6574615472616e73616374696f6e2875696e74323536206e6f6e63652c616464726573732066726f6d2c62797465732066756e6374696f6e5369676e617475726529a264697066735822122015a8fc3f9636d1a1618adfa5074ac395eab7706a18cecf40e8413426cce7d2b364736f6c63430008000033454950373132446f6d61696e28737472696e67206e616d652c737472696e672076657273696f6e2c6164647265737320766572696679696e67436f6e74726163742c627974657333322073616c7429",
  "immutableReferences": {},
  "source": "// SPDX-License-Identifier: MIT\r\n\r\npragma solidity ^0.8.0;\r\n\r\nimport \"../openzepplin-contracts/utils/Context.sol\";\r\nimport \"../openzepplin-contracts/access/AccessControlEnumerable.sol\";\r\nimport \"../openzepplin-contracts/token/ERC1155/extensions/ERC1155Burnable.sol\";\r\nimport \"../openzepplin-contracts/token/ERC1155/extensions/ERC1155Pausable.sol\";\r\nimport \"../openzepplin-contracts/token/ERC1155/presets/ERC1155PresetMinterPauser.sol\";\r\n\r\n/**\r\n * https://github.com/maticnetwork/pos-portal/blob/master/contracts/common/ContextMixin.sol\r\n */\r\nabstract contract ContextMixin {\r\n    function msgSender()\r\n    internal\r\n    view\r\n    returns (address payable sender)\r\n    {\r\n        if (msg.sender == address(this)) {\r\n            bytes memory array = msg.data;\r\n            uint256 index = msg.data.length;\r\n            assembly {\r\n            // Load the 32 bytes word from memory with the address on the lower 20 bytes, and mask those.\r\n                sender := and(\r\n                mload(add(array, index)),\r\n                0xffffffffffffffffffffffffffffffffffffffff\r\n                )\r\n            }\r\n        } else {\r\n            sender = payable(msg.sender);\r\n        }\r\n        return sender;\r\n    }\r\n}\r\n\r\n/**\r\n * https://github.com/maticnetwork/pos-portal/blob/master/contracts/common/Initializable.sol\r\n */\r\ncontract Initializable {\r\n    bool inited = false;\r\n\r\n    modifier initializer() {\r\n        require(!inited, \"already inited\");\r\n        _;\r\n        inited = true;\r\n    }\r\n}\r\n\r\n/**\r\n * https://github.com/maticnetwork/pos-portal/blob/master/contracts/common/EIP712Base.sol\r\n */\r\ncontract EIP712Base is Initializable {\r\n    struct EIP712Domain {\r\n        string name;\r\n        string version;\r\n        address verifyingContract;\r\n        bytes32 salt;\r\n    }\r\n\r\n    string constant public ERC712_VERSION = \"1\";\r\n\r\n    bytes32 internal constant EIP712_DOMAIN_TYPEHASH = keccak256(\r\n        bytes(\r\n            \"EIP712Domain(string name,string version,address verifyingContract,bytes32 salt)\"\r\n        )\r\n    );\r\n    bytes32 internal domainSeperator;\r\n\r\n    // supposed to be called once while initializing.\r\n    // one of the contractsa that inherits this contract follows proxy pattern\r\n    // so it is not possible to do this in a constructor\r\n    function _initializeEIP712(\r\n        string memory name\r\n    )\r\n    internal\r\n    initializer\r\n    {\r\n        _setDomainSeperator(name);\r\n    }\r\n\r\n    function _setDomainSeperator(string memory name) internal {\r\n        domainSeperator = keccak256(\r\n            abi.encode(\r\n                EIP712_DOMAIN_TYPEHASH,\r\n                keccak256(bytes(name)),\r\n                keccak256(bytes(ERC712_VERSION)),\r\n                address(this),\r\n                bytes32(getChainId())\r\n            )\r\n        );\r\n    }\r\n\r\n    function getDomainSeperator() public view returns (bytes32) {\r\n        return domainSeperator;\r\n    }\r\n\r\n    function getChainId() public view returns (uint256) {\r\n        uint256 id;\r\n        assembly {\r\n            id := chainid()\r\n        }\r\n        return id;\r\n    }\r\n\r\n    /**\r\n     * Accept message hash and returns hash message in EIP712 compatible form\r\n     * So that it can be used to recover signer from signature signed using EIP712 formatted data\r\n     * https://eips.ethereum.org/EIPS/eip-712\r\n     * \"\\\\x19\" makes the encoding deterministic\r\n     * \"\\\\x01\" is the version byte to make it compatible to EIP-191\r\n     */\r\n    function toTypedMessageHash(bytes32 messageHash)\r\n    internal\r\n    view\r\n    returns (bytes32)\r\n    {\r\n        return\r\n        keccak256(\r\n            abi.encodePacked(\"\\x19\\x01\", getDomainSeperator(), messageHash)\r\n        );\r\n    }\r\n}\r\n\r\n/**\r\n * https://github.com/maticnetwork/pos-portal/blob/master/contracts/common/NativeMetaTransaction.sol\r\n */\r\ncontract NativeMetaTransaction is EIP712Base {\r\n    bytes32 private constant META_TRANSACTION_TYPEHASH = keccak256(\r\n        bytes(\r\n            \"MetaTransaction(uint256 nonce,address from,bytes functionSignature)\"\r\n        )\r\n    );\r\n\r\n    event MetaTransactionExecuted(\r\n        address userAddress,\r\n        address payable relayerAddress,\r\n        bytes functionSignature\r\n    );\r\n\r\n    mapping(address => uint256) nonces;\r\n\r\n    /*\r\n     * Meta transaction structure.\r\n     * No point of including value field here as if user is doing value transfer then he has the funds to pay for gas\r\n     * He should call the desired function directly in that case.\r\n     */\r\n    struct MetaTransaction {\r\n        uint256 nonce;\r\n        address from;\r\n        bytes functionSignature;\r\n    }\r\n\r\n    function executeMetaTransaction(\r\n        address userAddress,\r\n        bytes memory functionSignature,\r\n        bytes32 sigR,\r\n        bytes32 sigS,\r\n        uint8 sigV\r\n    ) public payable returns (bytes memory) {\r\n        MetaTransaction memory metaTx = MetaTransaction({\r\n        nonce : nonces[userAddress],\r\n        from : userAddress,\r\n        functionSignature : functionSignature\r\n        });\r\n\r\n        require(\r\n            verify(userAddress, metaTx, sigR, sigS, sigV),\r\n            \"Signer and signature do not match\"\r\n        );\r\n\r\n        // increase nonce for user (to avoid re-use)\r\n        nonces[userAddress] = nonces[userAddress] + 1;\r\n\r\n        emit MetaTransactionExecuted(\r\n            userAddress,\r\n            payable(msg.sender),\r\n            functionSignature\r\n        );\r\n\r\n        // Append userAddress and relayer address at the end to extract it from calling context\r\n        (bool success, bytes memory returnData) = address(this).call(\r\n            abi.encodePacked(functionSignature, userAddress)\r\n        );\r\n        require(success, \"Function call not successful\");\r\n\r\n        return returnData;\r\n    }\r\n\r\n    function hashMetaTransaction(MetaTransaction memory metaTx)\r\n    internal\r\n    pure\r\n    returns (bytes32)\r\n    {\r\n        return\r\n        keccak256(\r\n            abi.encode(\r\n                META_TRANSACTION_TYPEHASH,\r\n                metaTx.nonce,\r\n                metaTx.from,\r\n                keccak256(metaTx.functionSignature)\r\n            )\r\n        );\r\n    }\r\n\r\n    function getNonce(address user) public view returns (uint256 nonce) {\r\n        nonce = nonces[user];\r\n    }\r\n\r\n    function verify(\r\n        address signer,\r\n        MetaTransaction memory metaTx,\r\n        bytes32 sigR,\r\n        bytes32 sigS,\r\n        uint8 sigV\r\n    ) internal view returns (bool) {\r\n        require(signer != address(0), \"NativeMetaTransaction: INVALID_SIGNER\");\r\n        return\r\n        signer ==\r\n        ecrecover(\r\n            toTypedMessageHash(hashMetaTransaction(metaTx)),\r\n            sigV,\r\n            sigR,\r\n            sigS\r\n        );\r\n    }\r\n}\r\n\r\n\r\n/**\r\n * @dev {ERC1155} token, including:\r\n *\r\n *  - ability for holders to burn (destroy) their tokens\r\n *  - a minter role that allows for token minting (creation)\r\n *  - a pauser role that allows to stop all token transfers\r\n *\r\n * This contract uses {AccessControl} to lock permissioned functions using the\r\n * different roles - head to its documentation for details.\r\n *\r\n * The account that deploys the contract will be granted the minter and pauser\r\n * roles, as well as the default admin role, which will let it grant both minter\r\n * and pauser roles to other accounts.\r\n */\r\ncontract ERC1155Streak is ERC1155PresetMinterPauser, ContextMixin, NativeMetaTransaction {\r\n    // Contract name\r\n    string public name;\r\n\r\n    uint256 private _currentTokenID = 0;\r\n    mapping(uint256 => uint256) public tokenSupply;\r\n\r\n    mapping(uint256 => string) internal _tokenURIs;\r\n\r\n    mapping(uint256 => address) public creators;\r\n\r\n    mapping(bytes32 => bool) private _uniqTitleSet;\r\n\r\n    event Create1155Token(address indexed to, uint256 indexed tokenId, uint256 quantity);\r\n\r\n    constructor (string memory name_, string memory uri_) ERC1155PresetMinterPauser(uri_) {\r\n        name = name_;\r\n        _initializeEIP712(name);\r\n    }\r\n\r\n    /**\r\n    * @dev Creates a new token type and assigns _quantity to an creator (i.e. the message sender)\r\n    * @param _title unique art title\r\n    * @param _quantity art's quantity\r\n    * @param _uri token's type metadata uri\r\n    * @param _data Data to pass if receiver is contract\r\n    * @return The newly created token ID\r\n    */\r\n    function mintItem(\r\n        bytes32 _title,\r\n        uint256 _quantity,\r\n        string calldata _uri,\r\n        bytes calldata _data\r\n    ) external returns (uint) {\r\n        bytes32 hash = keccak256(abi.encodePacked(_title));\r\n        require(!_uniqTitleSet[hash], \"StreakERC1155#mintItem: TITLE_NOT_UNIQUE\");\r\n        _uniqTitleSet[hash] = true;\r\n\r\n        _currentTokenID += 1;\r\n        uint256 _id = _currentTokenID;\r\n\r\n        creators[_id] = msg.sender;\r\n\r\n        if (bytes(_uri).length > 0) {\r\n            _tokenURIs[_id] = _uri;\r\n            emit URI(_uri, _id);\r\n        }\r\n\r\n        _mint(_msgSender(), _id, _quantity, _data);\r\n        tokenSupply[_id] = _quantity;\r\n\r\n        emit Create1155Token(_msgSender(), _id, _quantity); \r\n        return _id;\r\n    }\r\n\r\n\r\n    /**\r\n      * @dev Returns the total quantity for a token ID\r\n      * @param _id uint256 ID of the token to query\r\n      * @return amount of token in existence\r\n      */\r\n    function totalSupply(\r\n        uint256 _id\r\n    ) public view returns (uint256) {\r\n        return tokenSupply[_id];\r\n    }\r\n\r\n\r\n    function uri(\r\n        uint256 _id\r\n    ) public override view returns (string memory) {\r\n        require(_exists(_id), \"ERC721Tradable#uri: NONEXISTENT_TOKEN\");\r\n\r\n        string memory _tokenURI = _tokenURIs[_id];\r\n\r\n        return _tokenURI;\r\n    }\r\n\r\n    /**\r\n      * @dev Returns whether the specified token exists by checking to see if it has a creator\r\n      * @param _id uint256 ID of the token to query the existence of\r\n      * @return bool whether the token exists\r\n      */\r\n    function _exists(\r\n        uint256 _id\r\n    ) internal view returns (bool) {\r\n        return creators[_id] != address(0);\r\n    }\r\n\r\n\r\n    /**\r\n     * This is used instead of msg.sender as transactions won't be sent by the original token owner, but by OpenSea.\r\n     */\r\n    function _msgSender()\r\n    internal\r\n    override\r\n    view\r\n    returns (address sender)\r\n    {\r\n        return ContextMixin.msgSender();\r\n    }\r\n\r\n    /**\r\n    * As another option for supporting trading without requiring meta transactions, override isApprovedForAll to whitelist OpenSea proxy accounts on Matic\r\n    */\r\n    function isApprovedForAll(\r\n        address _owner,\r\n        address _operator\r\n    ) public override view returns (bool isOperator) {\r\n        //        if (_operator == address(0x207Fa8Df3a17D96Ca7EA4f2893fcdCb78a304101)) {\r\n        //            return true;\r\n        //        }\r\n        return ERC1155.isApprovedForAll(_owner, _operator);\r\n    }\r\n}\r\n",
  "sourcePath": "D:\\cupcake\\streak\\solidity\\contracts\\streak\\ERC1155Streak.sol",
  "compiler": {
    "name": "solc",
    "version": "0.8.0+commit.c7dfd78e.Emscripten.clang"
  },
  "schemaVersion": "3.4.2",
  "updatedAt": "2021-09-08T08:21:35.998Z",
  "devdoc": {
    "details": "{ERC1155} token, including:  - ability for holders to burn (destroy) their tokens  - a minter role that allows for token minting (creation)  - a pauser role that allows to stop all token transfers This contract uses {AccessControl} to lock permissioned functions using the different roles - head to its documentation for details. The account that deploys the contract will be granted the minter and pauser roles, as well as the default admin role, which will let it grant both minter and pauser roles to other accounts.",
    "kind": "dev",
    "methods": {
      "balanceOf(address,uint256)": {
        "details": "See {IERC1155-balanceOf}. Requirements: - `account` cannot be the zero address."
      },
      "balanceOfBatch(address[],uint256[])": {
        "details": "See {IERC1155-balanceOfBatch}. Requirements: - `accounts` and `ids` must have the same length."
      },
      "getRoleAdmin(bytes32)": {
        "details": "Returns the admin role that controls `role`. See {grantRole} and {revokeRole}. To change a role's admin, use {_setRoleAdmin}."
      },
      "getRoleMember(bytes32,uint256)": {
        "details": "Returns one of the accounts that have `role`. `index` must be a value between 0 and {getRoleMemberCount}, non-inclusive. Role bearers are not sorted in any particular way, and their ordering may change at any point. WARNING: When using {getRoleMember} and {getRoleMemberCount}, make sure you perform all queries on the same block. See the following https://forum.openzeppelin.com/t/iterating-over-elements-on-enumerableset-in-openzeppelin-contracts/2296[forum post] for more information."
      },
      "getRoleMemberCount(bytes32)": {
        "details": "Returns the number of accounts that have `role`. Can be used together with {getRoleMember} to enumerate all bearers of a role."
      },
      "grantRole(bytes32,address)": {
        "details": "Overload {grantRole} to track enumerable memberships"
      },
      "hasRole(bytes32,address)": {
        "details": "Returns `true` if `account` has been granted `role`."
      },
      "mint(address,uint256,uint256,bytes)": {
        "details": "Creates `amount` new tokens for `to`, of token type `id`. See {ERC1155-_mint}. Requirements: - the caller must have the `MINTER_ROLE`."
      },
      "mintBatch(address,uint256[],uint256[],bytes)": {
        "details": "xref:ROOT:erc1155.adoc#batch-operations[Batched] variant of {mint}."
      },
      "mintItem(bytes32,uint256,string,bytes)": {
        "details": "Creates a new token type and assigns _quantity to an creator (i.e. the message sender)",
        "params": {
          "_data": "Data to pass if receiver is contract",
          "_quantity": "art's quantity",
          "_title": "unique art title",
          "_uri": "token's type metadata uri"
        },
        "returns": {
          "_0": "The newly created token ID"
        }
      },
      "pause()": {
        "details": "Pauses all token transfers. See {ERC1155Pausable} and {Pausable-_pause}. Requirements: - the caller must have the `PAUSER_ROLE`."
      },
      "paused()": {
        "details": "Returns true if the contract is paused, and false otherwise."
      },
      "renounceRole(bytes32,address)": {
        "details": "Overload {renounceRole} to track enumerable memberships"
      },
      "revokeRole(bytes32,address)": {
        "details": "Overload {revokeRole} to track enumerable memberships"
      },
      "safeBatchTransferFrom(address,address,uint256[],uint256[],bytes)": {
        "details": "See {IERC1155-safeBatchTransferFrom}."
      },
      "safeTransferFrom(address,address,uint256,uint256,bytes)": {
        "details": "See {IERC1155-safeTransferFrom}."
      },
      "setApprovalForAll(address,bool)": {
        "details": "See {IERC1155-setApprovalForAll}."
      },
      "supportsInterface(bytes4)": {
        "details": "See {IERC165-supportsInterface}."
      },
      "totalSupply(uint256)": {
        "details": "Returns the total quantity for a token ID",
        "params": {
          "_id": "uint256 ID of the token to query"
        },
        "returns": {
          "_0": "amount of token in existence"
        }
      },
      "unpause()": {
        "details": "Unpauses all token transfers. See {ERC1155Pausable} and {Pausable-_unpause}. Requirements: - the caller must have the `PAUSER_ROLE`."
      }
    },
    "version": 1
  },
  "userdoc": {
    "kind": "user",
    "methods": {
      "isApprovedForAll(address,address)": {
        "notice": "As another option for supporting trading without requiring meta transactions, override isApprovedForAll to whitelist OpenSea proxy accounts on Matic"
      }
    },
    "version": 1
  }
}