{
  "contractName": "ERC721Streak",
  "abi": [
    {
      "inputs": [
        {
          "internalType": "string",
          "name": "name",
          "type": "string"
        },
        {
          "internalType": "string",
          "name": "symbol",
          "type": "string"
        },
        {
          "internalType": "string",
          "name": "baseTokenURI",
          "type": "string"
        }
      ],
      "stateMutability": "nonpayable",
      "type": "constructor"
    },
    {
      "anonymous": false,
      "inputs": [
        {
          "indexed": true,
          "internalType": "address",
          "name": "owner",
          "type": "address"
        },
        {
          "indexed": true,
          "internalType": "address",
          "name": "approved",
          "type": "address"
        },
        {
          "indexed": true,
          "internalType": "uint256",
          "name": "tokenId",
          "type": "uint256"
        }
      ],
      "name": "Approval",
      "type": "event"
    },
    {
      "anonymous": false,
      "inputs": [
        {
          "indexed": true,
          "internalType": "address",
          "name": "owner",
          "type": "address"
        },
        {
          "indexed": true,
          "internalType": "address",
          "name": "operator",
          "type": "address"
        },
        {
          "indexed": false,
          "internalType": "bool",
          "name": "approved",
          "type": "bool"
        }
      ],
      "name": "ApprovalForAll",
      "type": "event"
    },
    {
      "anonymous": false,
      "inputs": [
        {
          "indexed": true,
          "internalType": "address",
          "name": "to",
          "type": "address"
        },
        {
          "indexed": true,
          "internalType": "uint256",
          "name": "tokenId",
          "type": "uint256"
        }
      ],
      "name": "Create721Token",
      "type": "event"
    },
    {
      "anonymous": false,
      "inputs": [
        {
          "indexed": false,
          "internalType": "address",
          "name": "userAddress",
          "type": "address"
        },
        {
          "indexed": false,
          "internalType": "address",
          "name": "relayerAddress",
          "type": "address"
        },
        {
          "indexed": false,
          "internalType": "bytes",
          "name": "functionSignature",
          "type": "bytes"
        }
      ],
      "name": "MetaTransactionExecuted",
      "type": "event"
    },
    {
      "anonymous": false,
      "inputs": [
        {
          "indexed": false,
          "internalType": "address",
          "name": "account",
          "type": "address"
        }
      ],
      "name": "Paused",
      "type": "event"
    },
    {
      "anonymous": false,
      "inputs": [
        {
          "indexed": true,
          "internalType": "bytes32",
          "name": "role",
          "type": "bytes32"
        },
        {
          "indexed": true,
          "internalType": "bytes32",
          "name": "previousAdminRole",
          "type": "bytes32"
        },
        {
          "indexed": true,
          "internalType": "bytes32",
          "name": "newAdminRole",
          "type": "bytes32"
        }
      ],
      "name": "RoleAdminChanged",
      "type": "event"
    },
    {
      "anonymous": false,
      "inputs": [
        {
          "indexed": true,
          "internalType": "bytes32",
          "name": "role",
          "type": "bytes32"
        },
        {
          "indexed": true,
          "internalType": "address",
          "name": "account",
          "type": "address"
        },
        {
          "indexed": true,
          "internalType": "address",
          "name": "sender",
          "type": "address"
        }
      ],
      "name": "RoleGranted",
      "type": "event"
    },
    {
      "anonymous": false,
      "inputs": [
        {
          "indexed": true,
          "internalType": "bytes32",
          "name": "role",
          "type": "bytes32"
        },
        {
          "indexed": true,
          "internalType": "address",
          "name": "account",
          "type": "address"
        },
        {
          "indexed": true,
          "internalType": "address",
          "name": "sender",
          "type": "address"
        }
      ],
      "name": "RoleRevoked",
      "type": "event"
    },
    {
      "anonymous": false,
      "inputs": [
        {
          "indexed": true,
          "internalType": "address",
          "name": "from",
          "type": "address"
        },
        {
          "indexed": true,
          "internalType": "address",
          "name": "to",
          "type": "address"
        },
        {
          "indexed": true,
          "internalType": "uint256",
          "name": "tokenId",
          "type": "uint256"
        }
      ],
      "name": "Transfer",
      "type": "event"
    },
    {
      "anonymous": false,
      "inputs": [
        {
          "indexed": false,
          "internalType": "address",
          "name": "account",
          "type": "address"
        }
      ],
      "name": "Unpaused",
      "type": "event"
    },
    {
      "inputs": [],
      "name": "DEFAULT_ADMIN_ROLE",
      "outputs": [
        {
          "internalType": "bytes32",
          "name": "",
          "type": "bytes32"
        }
      ],
      "stateMutability": "view",
      "type": "function"
    },
    {
      "inputs": [],
      "name": "ERC712_VERSION",
      "outputs": [
        {
          "internalType": "string",
          "name": "",
          "type": "string"
        }
      ],
      "stateMutability": "view",
      "type": "function"
    },
    {
      "inputs": [],
      "name": "MINTER_ROLE",
      "outputs": [
        {
          "internalType": "bytes32",
          "name": "",
          "type": "bytes32"
        }
      ],
      "stateMutability": "view",
      "type": "function"
    },
    {
      "inputs": [],
      "name": "PAUSER_ROLE",
      "outputs": [
        {
          "internalType": "bytes32",
          "name": "",
          "type": "bytes32"
        }
      ],
      "stateMutability": "view",
      "type": "function"
    },
    {
      "inputs": [
        {
          "internalType": "address",
          "name": "to",
          "type": "address"
        },
        {
          "internalType": "uint256",
          "name": "tokenId",
          "type": "uint256"
        }
      ],
      "name": "approve",
      "outputs": [],
      "stateMutability": "nonpayable",
      "type": "function"
    },
    {
      "inputs": [
        {
          "internalType": "address",
          "name": "owner",
          "type": "address"
        }
      ],
      "name": "balanceOf",
      "outputs": [
        {
          "internalType": "uint256",
          "name": "",
          "type": "uint256"
        }
      ],
      "stateMutability": "view",
      "type": "function"
    },
    {
      "inputs": [
        {
          "internalType": "uint256",
          "name": "tokenId",
          "type": "uint256"
        }
      ],
      "name": "burn",
      "outputs": [],
      "stateMutability": "nonpayable",
      "type": "function"
    },
    {
      "inputs": [],
      "name": "contractURI",
      "outputs": [
        {
          "internalType": "string",
          "name": "",
          "type": "string"
        }
      ],
      "stateMutability": "view",
      "type": "function"
    },
    {
      "inputs": [
        {
          "internalType": "address",
          "name": "userAddress",
          "type": "address"
        },
        {
          "internalType": "bytes",
          "name": "functionSignature",
          "type": "bytes"
        },
        {
          "internalType": "bytes32",
          "name": "sigR",
          "type": "bytes32"
        },
        {
          "internalType": "bytes32",
          "name": "sigS",
          "type": "bytes32"
        },
        {
          "internalType": "uint8",
          "name": "sigV",
          "type": "uint8"
        }
      ],
      "name": "executeMetaTransaction",
      "outputs": [
        {
          "internalType": "bytes",
          "name": "",
          "type": "bytes"
        }
      ],
      "stateMutability": "payable",
      "type": "function"
    },
    {
      "inputs": [
        {
          "internalType": "uint256",
          "name": "tokenId",
          "type": "uint256"
        }
      ],
      "name": "getApproved",
      "outputs": [
        {
          "internalType": "address",
          "name": "",
          "type": "address"
        }
      ],
      "stateMutability": "view",
      "type": "function"
    },
    {
      "inputs": [],
      "name": "getChainId",
      "outputs": [
        {
          "internalType": "uint256",
          "name": "",
          "type": "uint256"
        }
      ],
      "stateMutability": "view",
      "type": "function"
    },
    {
      "inputs": [],
      "name": "getDomainSeperator",
      "outputs": [
        {
          "internalType": "bytes32",
          "name": "",
          "type": "bytes32"
        }
      ],
      "stateMutability": "view",
      "type": "function"
    },
    {
      "inputs": [
        {
          "internalType": "address",
          "name": "user",
          "type": "address"
        }
      ],
      "name": "getNonce",
      "outputs": [
        {
          "internalType": "uint256",
          "name": "nonce",
          "type": "uint256"
        }
      ],
      "stateMutability": "view",
      "type": "function"
    },
    {
      "inputs": [
        {
          "internalType": "bytes32",
          "name": "role",
          "type": "bytes32"
        }
      ],
      "name": "getRoleAdmin",
      "outputs": [
        {
          "internalType": "bytes32",
          "name": "",
          "type": "bytes32"
        }
      ],
      "stateMutability": "view",
      "type": "function"
    },
    {
      "inputs": [
        {
          "internalType": "bytes32",
          "name": "role",
          "type": "bytes32"
        },
        {
          "internalType": "uint256",
          "name": "index",
          "type": "uint256"
        }
      ],
      "name": "getRoleMember",
      "outputs": [
        {
          "internalType": "address",
          "name": "",
          "type": "address"
        }
      ],
      "stateMutability": "view",
      "type": "function"
    },
    {
      "inputs": [
        {
          "internalType": "bytes32",
          "name": "role",
          "type": "bytes32"
        }
      ],
      "name": "getRoleMemberCount",
      "outputs": [
        {
          "internalType": "uint256",
          "name": "",
          "type": "uint256"
        }
      ],
      "stateMutability": "view",
      "type": "function"
    },
    {
      "inputs": [
        {
          "internalType": "bytes32",
          "name": "role",
          "type": "bytes32"
        },
        {
          "internalType": "address",
          "name": "account",
          "type": "address"
        }
      ],
      "name": "grantRole",
      "outputs": [],
      "stateMutability": "nonpayable",
      "type": "function"
    },
    {
      "inputs": [
        {
          "internalType": "bytes32",
          "name": "role",
          "type": "bytes32"
        },
        {
          "internalType": "address",
          "name": "account",
          "type": "address"
        }
      ],
      "name": "hasRole",
      "outputs": [
        {
          "internalType": "bool",
          "name": "",
          "type": "bool"
        }
      ],
      "stateMutability": "view",
      "type": "function"
    },
    {
      "inputs": [
        {
          "internalType": "address",
          "name": "to",
          "type": "address"
        }
      ],
      "name": "mint",
      "outputs": [
        {
          "internalType": "uint256",
          "name": "tokenId",
          "type": "uint256"
        }
      ],
      "stateMutability": "nonpayable",
      "type": "function"
    },
    {
      "inputs": [],
      "name": "name",
      "outputs": [
        {
          "internalType": "string",
          "name": "",
          "type": "string"
        }
      ],
      "stateMutability": "view",
      "type": "function"
    },
    {
      "inputs": [
        {
          "internalType": "uint256",
          "name": "tokenId",
          "type": "uint256"
        }
      ],
      "name": "ownerOf",
      "outputs": [
        {
          "internalType": "address",
          "name": "",
          "type": "address"
        }
      ],
      "stateMutability": "view",
      "type": "function"
    },
    {
      "inputs": [],
      "name": "pause",
      "outputs": [],
      "stateMutability": "nonpayable",
      "type": "function"
    },
    {
      "inputs": [],
      "name": "paused",
      "outputs": [
        {
          "internalType": "bool",
          "name": "",
          "type": "bool"
        }
      ],
      "stateMutability": "view",
      "type": "function"
    },
    {
      "inputs": [
        {
          "internalType": "bytes32",
          "name": "role",
          "type": "bytes32"
        },
        {
          "internalType": "address",
          "name": "account",
          "type": "address"
        }
      ],
      "name": "renounceRole",
      "outputs": [],
      "stateMutability": "nonpayable",
      "type": "function"
    },
    {
      "inputs": [
        {
          "internalType": "bytes32",
          "name": "role",
          "type": "bytes32"
        },
        {
          "internalType": "address",
          "name": "account",
          "type": "address"
        }
      ],
      "name": "revokeRole",
      "outputs": [],
      "stateMutability": "nonpayable",
      "type": "function"
    },
    {
      "inputs": [
        {
          "internalType": "address",
          "name": "from",
          "type": "address"
        },
        {
          "internalType": "address",
          "name": "to",
          "type": "address"
        },
        {
          "internalType": "uint256",
          "name": "tokenId",
          "type": "uint256"
        }
      ],
      "name": "safeTransferFrom",
      "outputs": [],
      "stateMutability": "nonpayable",
      "type": "function"
    },
    {
      "inputs": [
        {
          "internalType": "address",
          "name": "from",
          "type": "address"
        },
        {
          "internalType": "address",
          "name": "to",
          "type": "address"
        },
        {
          "internalType": "uint256",
          "name": "tokenId",
          "type": "uint256"
        },
        {
          "internalType": "bytes",
          "name": "_data",
          "type": "bytes"
        }
      ],
      "name": "safeTransferFrom",
      "outputs": [],
      "stateMutability": "nonpayable",
      "type": "function"
    },
    {
      "inputs": [
        {
          "internalType": "address",
          "name": "operator",
          "type": "address"
        },
        {
          "internalType": "bool",
          "name": "approved",
          "type": "bool"
        }
      ],
      "name": "setApprovalForAll",
      "outputs": [],
      "stateMutability": "nonpayable",
      "type": "function"
    },
    {
      "inputs": [
        {
          "internalType": "bytes4",
          "name": "interfaceId",
          "type": "bytes4"
        }
      ],
      "name": "supportsInterface",
      "outputs": [
        {
          "internalType": "bool",
          "name": "",
          "type": "bool"
        }
      ],
      "stateMutability": "view",
      "type": "function"
    },
    {
      "inputs": [],
      "name": "symbol",
      "outputs": [
        {
          "internalType": "string",
          "name": "",
          "type": "string"
        }
      ],
      "stateMutability": "view",
      "type": "function"
    },
    {
      "inputs": [
        {
          "internalType": "uint256",
          "name": "index",
          "type": "uint256"
        }
      ],
      "name": "tokenByIndex",
      "outputs": [
        {
          "internalType": "uint256",
          "name": "",
          "type": "uint256"
        }
      ],
      "stateMutability": "view",
      "type": "function"
    },
    {
      "inputs": [
        {
          "internalType": "address",
          "name": "owner",
          "type": "address"
        },
        {
          "internalType": "uint256",
          "name": "index",
          "type": "uint256"
        }
      ],
      "name": "tokenOfOwnerByIndex",
      "outputs": [
        {
          "internalType": "uint256",
          "name": "",
          "type": "uint256"
        }
      ],
      "stateMutability": "view",
      "type": "function"
    },
    {
      "inputs": [],
      "name": "totalSupply",
      "outputs": [
        {
          "internalType": "uint256",
          "name": "",
          "type": "uint256"
        }
      ],
      "stateMutability": "view",
      "type": "function"
    },
    {
      "inputs": [
        {
          "internalType": "address",
          "name": "from",
          "type": "address"
        },
        {
          "internalType": "address",
          "name": "to",
          "type": "address"
        },
        {
          "internalType": "uint256",
          "name": "tokenId",
          "type": "uint256"
        }
      ],
      "name": "transferFrom",
      "outputs": [],
      "stateMutability": "nonpayable",
      "type": "function"
    },
    {
      "inputs": [],
      "name": "unpause",
      "outputs": [],
      "stateMutability": "nonpayable",
      "type": "function"
    },
    {
      "inputs": [
        {
          "internalType": "address",
          "name": "owner",
          "type": "address"
        },
        {
          "internalType": "address",
          "name": "operator",
          "type": "address"
        }
      ],
      "name": "isApprovedForAll",
      "outputs": [
        {
          "internalType": "bool",
          "name": "",
          "type": "bool"
        }
      ],
      "stateMutability": "view",
      "type": "function"
    },
    {
      "inputs": [
        {
          "internalType": "uint256",
          "name": "tokenId",
          "type": "uint256"
        }
      ],
      "name": "tokenURI",
      "outputs": [
        {
          "internalType": "string",
          "name": "",
          "type": "string"
        }
      ],
      "stateMutability": "view",
      "type": "function"
    },
    {
      "inputs": [
        {
          "internalType": "address",
          "name": "to",
          "type": "address"
        },
        {
          "internalType": "string",
          "name": "_tokenUri",
          "type": "string"
        }
      ],
      "name": "mintItem",
      "outputs": [
        {
          "internalType": "uint256",
          "name": "tokenId",
          "type": "uint256"
        }
      ],
      "stateMutability": "nonpayable",
      "type": "function"
    }
  ],
  "bytecode": "0x6080604052600f805460ff191690553480156200001b57600080fd5b506040516200368b3803806200368b8339810160408190526200003e916200046d565b828282828281600290805190602001906200005b9291906200031c565b508051620000719060039060208401906200031c565b5050600c805460ff191690555080516200009390600e9060208401906200031c565b50620000aa6000620000a462000114565b62000131565b620000d97f9f2df0fed2c77648de5860a4cc508cd0818c85b8b8a1ab4ceeef8d981c8956a6620000a462000114565b620001087f65d7a28e3265b37a6474929f336521b332c1681b933f6cb9f3376673440d862a620000a462000114565b5050505050506200054d565b60006200012b6200017460201b6200101b1760201c565b90505b90565b620001488282620001d260201b620010771760201c565b60008281526001602090815260409091206200016f91839062001085620001e2821b17901c565b505050565b600033301415620001cd57600080368080601f0160208091040260200160405190810160405280939291908181526020018383808284376000920191909152505050503601516001600160a01b031691506200012e9050565b503390565b620001de828262000202565b5050565b6000620001f9836001600160a01b0384166200028c565b90505b92915050565b6200020e8282620002db565b620001de576000828152602081815260408083206001600160a01b03851684529091529020805460ff191660011790556200024862000114565b6001600160a01b0316816001600160a01b0316837f2f8788117e7eff1d82e926ec794901d17c78024a50270940304540a733656f0d60405160405180910390a45050565b60006200029a838362000304565b620002d257508154600181810184556000848152602080822090930184905584548482528286019093526040902091909155620001fc565b506000620001fc565b6000918252602082815260408084206001600160a01b0393909316845291905290205460ff1690565b60009081526001919091016020526040902054151590565b8280546200032a90620004fa565b90600052602060002090601f0160209004810192826200034e576000855562000399565b82601f106200036957805160ff191683800117855562000399565b8280016001018555821562000399579182015b82811115620003995782518255916020019190600101906200037c565b50620003a7929150620003ab565b5090565b5b80821115620003a75760008155600101620003ac565b600082601f830112620003d3578081fd5b81516001600160401b0380821115620003f057620003f062000537565b6040516020601f8401601f191682018101838111838210171562000418576200041862000537565b60405283825285840181018710156200042f578485fd5b8492505b8383101562000452578583018101518284018201529182019162000433565b838311156200046357848185840101525b5095945050505050565b60008060006060848603121562000482578283fd5b83516001600160401b038082111562000499578485fd5b620004a787838801620003c2565b94506020860151915080821115620004bd578384fd5b620004cb87838801620003c2565b93506040860151915080821115620004e1578283fd5b50620004f086828701620003c2565b9150509250925092565b6002810460018216806200050f57607f821691505b602082108114156200053157634e487b7160e01b600052602260045260246000fd5b50919050565b634e487b7160e01b600052604160045260246000fd5b61312e806200055d6000396000f3fe6080604052600436106102255760003560e01c80634f6ccce711610123578063a217fddf116100ab578063d53913931161006f578063d53913931461060e578063d547741f14610623578063e63ab1e914610643578063e8a3d48514610658578063e985e9c51461066d57610225565b8063a217fddf14610579578063a22cb4651461058e578063b88d4fde146105ae578063c87b56dd146105ce578063ca15c873146105ee57610225565b806370a08231116100f257806370a08231146104ef5780638456cb591461050f5780639010d07c1461052457806391d148541461054457806395d89b411461056457610225565b80634f6ccce71461047a5780635c975abb1461049a5780636352211e146104af5780636a627842146104cf57610225565b806323b872dd116101b15780633408e470116101755780633408e470146103f057806336568abe146104055780633f4ba83a1461042557806342842e0e1461043a57806342966c681461045a57610225565b806323b872dd14610350578063248a9ca3146103705780632d0335ab146103905780632f2ff15d146103b05780632f745c59146103d057610225565b80630c53c51c116101f85780630c53c51c146102d15780630f7e5970146102e4578063110bcd45146102f957806318160ddd1461032657806320379ee51461033b57610225565b806301ffc9a71461022a57806306fdde0314610260578063081812fc14610282578063095ea7b3146102af575b600080fd5b34801561023657600080fd5b5061024a61024536600461255f565b61068d565b604051610257919061272c565b60405180910390f35b34801561026c57600080fd5b506102756106a0565b6040516102579190612782565b34801561028e57600080fd5b506102a261029d366004612504565b610733565b60405161025791906126a6565b3480156102bb57600080fd5b506102cf6102ca3660046124db565b61077f565b005b6102756102df366004612403565b610817565b3480156102f057600080fd5b50610275610997565b34801561030557600080fd5b5061031961031436600461247c565b6109b4565b6040516102579190612737565b34801561033257600080fd5b50610319610a20565b34801561034757600080fd5b50610319610a26565b34801561035c57600080fd5b506102cf61036b366004612328565b610a2c565b34801561037c57600080fd5b5061031961038b366004612504565b610a64565b34801561039c57600080fd5b506103196103ab3660046122dc565b610a79565b3480156103bc57600080fd5b506102cf6103cb36600461251c565b610a94565b3480156103dc57600080fd5b506103196103eb3660046124db565b610ab6565b3480156103fc57600080fd5b50610319610b0b565b34801561041157600080fd5b506102cf61042036600461251c565b610b0f565b34801561043157600080fd5b506102cf610b31565b34801561044657600080fd5b506102cf610455366004612328565b610b83565b34801561046657600080fd5b506102cf610475366004612504565b610b9e565b34801561048657600080fd5b50610319610495366004612504565b610bd1565b3480156104a657600080fd5b5061024a610c2c565b3480156104bb57600080fd5b506102a26104ca366004612504565b610c35565b3480156104db57600080fd5b506103196104ea3660046122dc565b610c6a565b3480156104fb57600080fd5b5061031961050a3660046122dc565b610cd4565b34801561051b57600080fd5b506102cf610d18565b34801561053057600080fd5b506102a261053f36600461253e565b610d68565b34801561055057600080fd5b5061024a61055f36600461251c565b610d87565b34801561057057600080fd5b50610275610db0565b34801561058557600080fd5b50610319610dbf565b34801561059a57600080fd5b506102cf6105a93660046123c9565b610dc4565b3480156105ba57600080fd5b506102cf6105c9366004612363565b610e92565b3480156105da57600080fd5b506102756105e9366004612504565b610ed1565b3480156105fa57600080fd5b50610319610609366004612504565b610f97565b34801561061a57600080fd5b50610319610fae565b34801561062f57600080fd5b506102cf61063e36600461251c565b610fd2565b34801561064f57600080fd5b50610319610fdc565b34801561066457600080fd5b50610275611000565b34801561067957600080fd5b5061024a6106883660046122f6565b61100f565b60006106988261109a565b90505b919050565b6060600280546106af90613038565b80601f01602080910402602001604051908101604052809291908181526020018280546106db90613038565b80156107285780601f106106fd57610100808354040283529160200191610728565b820191906000526020600020905b81548152906001019060200180831161070b57829003601f168201915b505050505090505b90565b600061073e826110bf565b6107635760405162461bcd60e51b815260040161075a90612c99565b60405180910390fd5b506000908152600660205260409020546001600160a01b031690565b600061078a82610c35565b9050806001600160a01b0316836001600160a01b031614156107be5760405162461bcd60e51b815260040161075a90612d6f565b806001600160a01b03166107d06110dc565b6001600160a01b031614806107ec57506107ec816106886110dc565b6108085760405162461bcd60e51b815260040161075a90612b23565b61081283836110e6565b505050565b60408051606081810183526001600160a01b038816600081815260116020908152908590205484528301529181018690526108558782878787611154565b6108715760405162461bcd60e51b815260040161075a90612d2e565b6001600160a01b0387166000908152601160205260409020546108959060016111fa565b6001600160a01b0388166000908152601160205260409081902091909155517f5845892132946850460bff5a0083f71031bc5bf9aadcd40f1de79423eac9b10b906108e590899033908a906126ba565b60405180910390a1600080306001600160a01b0316888a60405160200161090d9291906125df565b60408051601f1981840301815290829052610927916125c3565b6000604051808303816000865af19150503d8060008114610964576040519150601f19603f3d011682016040523d82523d6000602084013e610969565b606091505b50915091508161098b5760405162461bcd60e51b815260040161075a90612922565b98975050505050505050565b604051806040016040528060018152602001603160f81b81525081565b60006109bf83610c6a565b600081815260126020908152604090912084519293506109e3929091850190612165565b5060405181906001600160a01b038516907fef8cfc7733c1f9cdce9eb66ada38d4e8417ca098b05a22c9a8ca6585891dd30690600090a392915050565b600a5490565b60105490565b610a3d610a376110dc565b82611206565b610a595760405162461bcd60e51b815260040161075a90612db0565b61081283838361128b565b60009081526020819052604090206001015490565b6001600160a01b031660009081526011602052604090205490565b610a9e82826113b8565b60008281526001602052604090206108129082611085565b6000610ac183610cd4565b8210610adf5760405162461bcd60e51b815260040161075a90612885565b506001600160a01b03821660009081526008602090815260408083208484529091529020545b92915050565b4690565b610b1982826113dc565b6000828152600160205260409020610812908261141e565b610b5d7f65d7a28e3265b37a6474929f336521b332c1681b933f6cb9f3376673440d862a61055f6110dc565b610b795760405162461bcd60e51b815260040161075a90612efa565b610b81611433565b565b61081283838360405180602001604052806000815250610e92565b610ba9610a376110dc565b610bc55760405162461bcd60e51b815260040161075a90612eaa565b610bce816114a1565b50565b6000610bdb610a20565b8210610bf95760405162461bcd60e51b815260040161075a90612e01565b600a8281548110610c1a57634e487b7160e01b600052603260045260246000fd5b90600052602060002001549050919050565b600c5460ff1690565b6000818152600460205260408120546001600160a01b0316806106985760405162461bcd60e51b815260040161075a90612bca565b6000610c987f9f2df0fed2c77648de5860a4cc508cd0818c85b8b8a1ab4ceeef8d981c8956a661055f6110dc565b610cb45760405162461bcd60e51b815260040161075a90612e4d565b610cbe600d6114e1565b9050610cca82826114e5565b61069b600d6115c4565b60006001600160a01b038216610cfc5760405162461bcd60e51b815260040161075a90612b80565b506001600160a01b031660009081526005602052604090205490565b610d447f65d7a28e3265b37a6474929f336521b332c1681b933f6cb9f3376673440d862a61055f6110dc565b610d605760405162461bcd60e51b815260040161075a90612990565b610b816115cd565b6000828152600160205260408120610d809083611628565b9392505050565b6000918252602082815260408084206001600160a01b0393909316845291905290205460ff1690565b6060600380546106af90613038565b600081565b610dcc6110dc565b6001600160a01b0316826001600160a01b03161415610dfd5760405162461bcd60e51b815260040161075a90612a31565b8060076000610e0a6110dc565b6001600160a01b03908116825260208083019390935260409182016000908120918716808252919093529120805460ff191692151592909217909155610e4e6110dc565b6001600160a01b03167f17307eab39ab6107e8899845ad3d59bd9653f200f220920489ca2b5937696c3183604051610e86919061272c565b60405180910390a35050565b610ea3610e9d6110dc565b83611206565b610ebf5760405162461bcd60e51b815260040161075a90612db0565b610ecb84848484611634565b50505050565b6060610edc826110bf565b610ef85760405162461bcd60e51b815260040161075a90612c48565b60008281526012602052604081208054610f1190613038565b80601f0160208091040260200160405190810160405280929190818152602001828054610f3d90613038565b8015610f8a5780601f10610f5f57610100808354040283529160200191610f8a565b820191906000526020600020905b815481529060010190602001808311610f6d57829003601f168201915b5093979650505050505050565b600081815260016020526040812061069890611667565b7f9f2df0fed2c77648de5860a4cc508cd0818c85b8b8a1ab4ceeef8d981c8956a681565b610b198282611672565b7f65d7a28e3265b37a6474929f336521b332c1681b933f6cb9f3376673440d862a81565b606061100a611691565b905090565b6000610d8083836116a0565b60003330141561107257600080368080601f0160208091040260200160405190810160405280939291908181526020018383808284376000920191909152505050503601516001600160a01b031691506107309050565b503390565b61108182826116ce565b5050565b6000610d80836001600160a01b038416611753565b60006001600160e01b0319821663780e9d6360e01b148061069857506106988261179d565b6000908152600460205260409020546001600160a01b0316151590565b600061100a61101b565b600081815260066020526040902080546001600160a01b0319166001600160a01b038416908117909155819061111b82610c35565b6001600160a01b03167f8c5be1e5ebec7d5bd14f71427d1e84f3dd0314c0f7b2291e5b200ac8c7c3b92560405160405180910390a45050565b60006001600160a01b03861661117c5760405162461bcd60e51b815260040161075a90612ab4565b600161118f61118a876117dd565b61183b565b838686604051600081526020016040526040516111af9493929190612764565b6020604051602081039080840390855afa1580156111d1573d6000803e3d6000fd5b505050602060405103516001600160a01b0316866001600160a01b031614905095945050505050565b6000610d808284612fa7565b6000611211826110bf565b61122d5760405162461bcd60e51b815260040161075a90612a68565b600061123883610c35565b9050806001600160a01b0316846001600160a01b031614806112735750836001600160a01b031661126884610733565b6001600160a01b0316145b806112835750611283818561100f565b949350505050565b826001600160a01b031661129e82610c35565b6001600160a01b0316146112c45760405162461bcd60e51b815260040161075a90612ce5565b6001600160a01b0382166112ea5760405162461bcd60e51b815260040161075a906129ed565b6112f5838383611857565b6113006000826110e6565b6001600160a01b0383166000908152600560205260408120805460019290611329908490612fde565b90915550506001600160a01b0382166000908152600560205260408120805460019290611357908490612fa7565b909155505060008181526004602052604080822080546001600160a01b0319166001600160a01b0386811691821790925591518493918716917fddf252ad1be2c89b69c2b068fc378daa952ba7f163c4a11628f55a4df523b3ef91a4505050565b6113c182610a64565b6113d2816113cd6110dc565b611862565b61081283836116ce565b6113e46110dc565b6001600160a01b0316816001600160a01b0316146114145760405162461bcd60e51b815260040161075a90612f58565b61108182826118c6565b6000610d80836001600160a01b038416611949565b61143b610c2c565b6114575760405162461bcd60e51b815260040161075a90612857565b600c805460ff191690557f5db9ee0a495bf2e6ff9c91a7834c1ba4fdd244a5e8aa4e537bd38aeae4b073aa61148a6110dc565b60405161149791906126a6565b60405180910390a1565b6114aa81611a60565b600081815260126020526040902080546114c390613038565b159050610bce576000818152601260205260408120610bce916121e9565b5490565b6001600160a01b03821661150b5760405162461bcd60e51b815260040161075a90612c13565b611514816110bf565b156115315760405162461bcd60e51b815260040161075a90612959565b61153d60008383611857565b6001600160a01b0382166000908152600560205260408120805460019290611566908490612fa7565b909155505060008181526004602052604080822080546001600160a01b0319166001600160a01b03861690811790915590518392907fddf252ad1be2c89b69c2b068fc378daa952ba7f163c4a11628f55a4df523b3ef908290a45050565b80546001019055565b6115d5610c2c565b156115f25760405162461bcd60e51b815260040161075a90612af9565b600c805460ff191660011790557f62e78cea01bee320cd4e420270b5ea74000d11b0c9f74754ebdbfc544b05a25861148a6110dc565b6000610d808383611b07565b61163f84848461128b565b61164b84848484611b60565b610ecb5760405162461bcd60e51b815260040161075a906128d0565b6000610698826114e1565b61167b82610a64565b611687816113cd6110dc565b61081283836118c6565b6060600e80546106af90613038565b6001600160a01b03918216600090815260076020908152604080832093909416825291909152205460ff1690565b6116d88282610d87565b611081576000828152602081815260408083206001600160a01b03851684529091529020805460ff1916600117905561170f6110dc565b6001600160a01b0316816001600160a01b0316837f2f8788117e7eff1d82e926ec794901d17c78024a50270940304540a733656f0d60405160405180910390a45050565b600061175f8383611c7b565b61179557508154600181810184556000848152602080822090930184905584548482528286019093526040902091909155610b05565b506000610b05565b60006001600160e01b031982166380ac58cd60e01b14806117ce57506001600160e01b03198216635b5e139f60e01b145b80610698575061069882611c93565b60006040518060800160405280604381526020016130b6604391398051602091820120835184830151604080870151805190860120905161181e9501612740565b604051602081830303815290604052805190602001209050919050565b6000611845610a26565b8260405160200161181e929190612616565b610812838383611cb8565b61186c8282610d87565b61108157611884816001600160a01b03166014611ce8565b61188f836020611ce8565b6040516020016118a0929190612631565b60408051601f198184030181529082905262461bcd60e51b825261075a91600401612782565b6118d08282610d87565b15611081576000828152602081815260408083206001600160a01b03851684529091529020805460ff191690556119056110dc565b6001600160a01b0316816001600160a01b0316837ff6391f5c32d9c69d2a47ea670b442974b53935d1edc7fd64eb21e047a839171b60405160405180910390a45050565b60008181526001830160205260408120548015611a5657600061196d600183612fde565b855490915060009061198190600190612fde565b905060008660000182815481106119a857634e487b7160e01b600052603260045260246000fd5b90600052602060002001549050808760000184815481106119d957634e487b7160e01b600052603260045260246000fd5b600091825260208083209091019290925582815260018901909152604090208490558654879080611a1a57634e487b7160e01b600052603160045260246000fd5b60019003818190600052602060002001600090559055866001016000878152602001908152602001600020600090556001945050505050610b05565b6000915050610b05565b6000611a6b82610c35565b9050611a7981600084611857565b611a846000836110e6565b6001600160a01b0381166000908152600560205260408120805460019290611aad908490612fde565b909155505060008281526004602052604080822080546001600160a01b0319169055518391906001600160a01b038416907fddf252ad1be2c89b69c2b068fc378daa952ba7f163c4a11628f55a4df523b3ef908390a45050565b81546000908210611b2a5760405162461bcd60e51b815260040161075a90612795565b826000018281548110611b4d57634e487b7160e01b600052603260045260246000fd5b9060005260206000200154905092915050565b6000611b74846001600160a01b0316611e9a565b15611c7057836001600160a01b031663150b7a02611b906110dc565b8786866040518563ffffffff1660e01b8152600401611bb294939291906126ef565b602060405180830381600087803b158015611bcc57600080fd5b505af1925050508015611bfc575060408051601f3d908101601f19168201909252611bf99181019061257b565b60015b611c56573d808015611c2a576040519150601f19603f3d011682016040523d82523d6000602084013e611c2f565b606091505b508051611c4e5760405162461bcd60e51b815260040161075a906128d0565b805181602001fd5b6001600160e01b031916630a85bd0160e11b149050611283565b506001949350505050565b60009081526001919091016020526040902054151590565b60006001600160e01b03198216635a05180f60e01b1480610698575061069882611ea0565b611cc3838383611ec5565b611ccb610c2c565b156108125760405162461bcd60e51b815260040161075a9061280c565b60606000611cf7836002612fbf565b611d02906002612fa7565b67ffffffffffffffff811115611d2857634e487b7160e01b600052604160045260246000fd5b6040519080825280601f01601f191660200182016040528015611d52576020820181803683370190505b509050600360fc1b81600081518110611d7b57634e487b7160e01b600052603260045260246000fd5b60200101906001600160f81b031916908160001a905350600f60fb1b81600181518110611db857634e487b7160e01b600052603260045260246000fd5b60200101906001600160f81b031916908160001a9053506000611ddc846002612fbf565b611de7906001612fa7565b90505b6001811115611e7b576f181899199a1a9b1b9c1cb0b131b232b360811b85600f1660108110611e2957634e487b7160e01b600052603260045260246000fd5b1a60f81b828281518110611e4d57634e487b7160e01b600052603260045260246000fd5b60200101906001600160f81b031916908160001a90535060049490941c93611e7481613021565b9050611dea565b508315610d805760405162461bcd60e51b815260040161075a906127d7565b3b151590565b60006001600160e01b03198216637965db0b60e01b1480610698575061069882611f4e565b611ed0838383610812565b6001600160a01b038316611eec57611ee781611f67565b611f0f565b816001600160a01b0316836001600160a01b031614611f0f57611f0f8382611fab565b6001600160a01b038216611f2b57611f2681612048565b610812565b826001600160a01b0316826001600160a01b031614610812576108128282612121565b6001600160e01b031981166301ffc9a760e01b14919050565b600a80546000838152600b60205260408120829055600182018355919091527fc65a7bb8d6351c1cf70c95a316cc6a92839c986682d98bc35f958f4883f9d2a80155565b60006001611fb884610cd4565b611fc29190612fde565b600083815260096020526040902054909150808214612015576001600160a01b03841660009081526008602090815260408083208584528252808320548484528184208190558352600990915290208190555b5060009182526009602090815260408084208490556001600160a01b039094168352600881528383209183525290812055565b600a5460009061205a90600190612fde565b6000838152600b6020526040812054600a805493945090928490811061209057634e487b7160e01b600052603260045260246000fd5b9060005260206000200154905080600a83815481106120bf57634e487b7160e01b600052603260045260246000fd5b6000918252602080832090910192909255828152600b9091526040808220849055858252812055600a80548061210557634e487b7160e01b600052603160045260246000fd5b6001900381819060005260206000200160009055905550505050565b600061212c83610cd4565b6001600160a01b039093166000908152600860209081526040808320868452825280832085905593825260099052919091209190915550565b82805461217190613038565b90600052602060002090601f01602090048101928261219357600085556121d9565b82601f106121ac57805160ff19168380011785556121d9565b828001600101855582156121d9579182015b828111156121d95782518255916020019190600101906121be565b506121e5929150612221565b5090565b5080546121f590613038565b6000825580601f106122075750610bce565b601f016020900490600052602060002090810190610bce91905b5b808211156121e55760008155600101612222565b600067ffffffffffffffff8084111561225157612251613089565b604051601f8501601f19168101602001828111828210171561227557612275613089565b60405284815291508183850186101561228d57600080fd5b8484602083013760006020868301015250509392505050565b80356001600160a01b038116811461069b57600080fd5b600082601f8301126122cd578081fd5b610d8083833560208501612236565b6000602082840312156122ed578081fd5b610d80826122a6565b60008060408385031215612308578081fd5b612311836122a6565b915061231f602084016122a6565b90509250929050565b60008060006060848603121561233c578081fd5b612345846122a6565b9250612353602085016122a6565b9150604084013590509250925092565b60008060008060808587031215612378578081fd5b612381856122a6565b935061238f602086016122a6565b925060408501359150606085013567ffffffffffffffff8111156123b1578182fd5b6123bd878288016122bd565b91505092959194509250565b600080604083850312156123db578182fd5b6123e4836122a6565b9150602083013580151581146123f8578182fd5b809150509250929050565b600080600080600060a0868803121561241a578081fd5b612423866122a6565b9450602086013567ffffffffffffffff81111561243e578182fd5b61244a888289016122bd565b9450506040860135925060608601359150608086013560ff8116811461246e578182fd5b809150509295509295909350565b6000806040838503121561248e578182fd5b612497836122a6565b9150602083013567ffffffffffffffff8111156124b2578182fd5b8301601f810185136124c2578182fd5b6124d185823560208401612236565b9150509250929050565b600080604083850312156124ed578182fd5b6124f6836122a6565b946020939093013593505050565b600060208284031215612515578081fd5b5035919050565b6000806040838503121561252e578182fd5b8235915061231f602084016122a6565b60008060408385031215612550578182fd5b50508035926020909101359150565b600060208284031215612570578081fd5b8135610d808161309f565b60006020828403121561258c578081fd5b8151610d808161309f565b600081518084526125af816020860160208601612ff5565b601f01601f19169290920160200192915050565b600082516125d5818460208701612ff5565b9190910192915050565b600083516125f1818460208801612ff5565b60609390931b6bffffffffffffffffffffffff19169190920190815260140192915050565b61190160f01b81526002810192909252602282015260420190565b60007f416363657373436f6e74726f6c3a206163636f756e742000000000000000000082528351612669816017850160208801612ff5565b7001034b99036b4b9b9b4b733903937b6329607d1b601791840191820152835161269a816028840160208801612ff5565b01602801949350505050565b6001600160a01b0391909116815260200190565b6001600160a01b038481168252831660208201526060604082018190526000906126e690830184612597565b95945050505050565b6001600160a01b038581168252841660208201526040810183905260806060820181905260009061272290830184612597565b9695505050505050565b901515815260200190565b90815260200190565b93845260208401929092526001600160a01b03166040830152606082015260800190565b93845260ff9290921660208401526040830152606082015260800190565b600060208252610d806020830184612597565b60208082526022908201527f456e756d657261626c655365743a20696e646578206f7574206f6620626f756e604082015261647360f01b606082015260800190565b6020808252818101527f537472696e67733a20686578206c656e67746820696e73756666696369656e74604082015260600190565b6020808252602b908201527f4552433732315061757361626c653a20746f6b656e207472616e73666572207760408201526a1a1a5b19481c185d5cd95960aa1b606082015260800190565b60208082526014908201527314185d5cd8589b194e881b9bdd081c185d5cd95960621b604082015260600190565b6020808252602b908201527f455243373231456e756d657261626c653a206f776e657220696e646578206f7560408201526a74206f6620626f756e647360a81b606082015260800190565b60208082526032908201527f4552433732313a207472616e7366657220746f206e6f6e20455243373231526560408201527131b2b4bb32b91034b6b83632b6b2b73a32b960711b606082015260800190565b6020808252601c908201527f46756e6374696f6e2063616c6c206e6f74207375636365737366756c00000000604082015260600190565b6020808252601c908201527f4552433732313a20746f6b656e20616c7265616479206d696e74656400000000604082015260600190565b6020808252603e908201527f4552433732315072657365744d696e7465725061757365724175746f49643a2060408201527f6d75737420686176652070617573657220726f6c6520746f2070617573650000606082015260800190565b60208082526024908201527f4552433732313a207472616e7366657220746f20746865207a65726f206164646040820152637265737360e01b606082015260800190565b60208082526019908201527f4552433732313a20617070726f766520746f2063616c6c657200000000000000604082015260600190565b6020808252602c908201527f4552433732313a206f70657261746f7220717565727920666f72206e6f6e657860408201526b34b9ba32b73a103a37b5b2b760a11b606082015260800190565b60208082526025908201527f4e61746976654d6574615472616e73616374696f6e3a20494e56414c49445f5360408201526424a3a722a960d91b606082015260800190565b60208082526010908201526f14185d5cd8589b194e881c185d5cd95960821b604082015260600190565b60208082526038908201527f4552433732313a20617070726f76652063616c6c6572206973206e6f74206f7760408201527f6e6572206e6f7220617070726f76656420666f7220616c6c0000000000000000606082015260800190565b6020808252602a908201527f4552433732313a2062616c616e636520717565727920666f7220746865207a65604082015269726f206164647265737360b01b606082015260800190565b60208082526029908201527f4552433732313a206f776e657220717565727920666f72206e6f6e657869737460408201526832b73a103a37b5b2b760b91b606082015260800190565b6020808252818101527f4552433732313a206d696e7420746f20746865207a65726f2061646472657373604082015260600190565b60208082526031908201527f45524337323155524953746f726167653a2055524920717565727920666f72206040820152703737b732bc34b9ba32b73a103a37b5b2b760791b606082015260800190565b6020808252602c908201527f4552433732313a20617070726f76656420717565727920666f72206e6f6e657860408201526b34b9ba32b73a103a37b5b2b760a11b606082015260800190565b60208082526029908201527f4552433732313a207472616e73666572206f6620746f6b656e2074686174206960408201526839903737ba1037bbb760b91b606082015260800190565b60208082526021908201527f5369676e657220616e64207369676e617475726520646f206e6f74206d6174636040820152600d60fb1b606082015260800190565b60208082526021908201527f4552433732313a20617070726f76616c20746f2063757272656e74206f776e656040820152603960f91b606082015260800190565b60208082526031908201527f4552433732313a207472616e736665722063616c6c6572206973206e6f74206f6040820152701ddb995c881b9bdc88185c1c1c9bdd9959607a1b606082015260800190565b6020808252602c908201527f455243373231456e756d657261626c653a20676c6f62616c20696e646578206f60408201526b7574206f6620626f756e647360a01b606082015260800190565b6020808252603d908201527f4552433732315072657365744d696e7465725061757365724175746f49643a2060408201527f6d7573742068617665206d696e74657220726f6c6520746f206d696e74000000606082015260800190565b60208082526030908201527f4552433732314275726e61626c653a2063616c6c6572206973206e6f74206f7760408201526f1b995c881b9bdc88185c1c1c9bdd995960821b606082015260800190565b602080825260409082018190527f4552433732315072657365744d696e7465725061757365724175746f49643a20908201527f6d75737420686176652070617573657220726f6c6520746f20756e7061757365606082015260800190565b6020808252602f908201527f416363657373436f6e74726f6c3a2063616e206f6e6c792072656e6f756e636560408201526e103937b632b9903337b91039b2b63360891b606082015260800190565b60008219821115612fba57612fba613073565b500190565b6000816000190483118215151615612fd957612fd9613073565b500290565b600082821015612ff057612ff0613073565b500390565b60005b83811015613010578181015183820152602001612ff8565b83811115610ecb5750506000910152565b60008161303057613030613073565b506000190190565b60028104600182168061304c57607f821691505b6020821081141561306d57634e487b7160e01b600052602260045260246000fd5b50919050565b634e487b7160e01b600052601160045260246000fd5b634e487b7160e01b600052604160045260246000fd5b6001600160e01b031981168114610bce57600080fdfe4d6574615472616e73616374696f6e2875696e74323536206e6f6e63652c616464726573732066726f6d2c62797465732066756e6374696f6e5369676e617475726529a2646970667358221220d25491be078fc6c6e0f89b7452c154423d01adda956872f2bf4cc9ee3417a5d864736f6c63430008000033",
  "immutableReferences": {},
  "source": "// SPDX-License-Identifier: MIT\r\n\r\npragma solidity ^0.8.0;\r\n\r\nimport \"../openzepplin-contracts/token/ERC721/presets/ERC721PresetMinterPauserAutoId.sol\";\r\nimport \"../openzepplin-contracts/utils/math/SafeMath.sol\";\r\n\r\n/**\r\n * https://github.com/maticnetwork/pos-portal/blob/master/contracts/common/ContextMixin.sol\r\n */\r\nabstract contract ContextMixin {\r\n    function msgSender()\r\n    internal\r\n    view\r\n    returns (address sender)\r\n    {\r\n        if (msg.sender == address(this)) {\r\n            bytes memory array = msg.data;\r\n            uint256 index = msg.data.length;\r\n            assembly {\r\n            // Load the 32 bytes word from memory with the address on the lower 20 bytes, and mask those.\r\n                sender := and(\r\n                mload(add(array, index)),\r\n                0xffffffffffffffffffffffffffffffffffffffff\r\n                )\r\n            }\r\n        } else {\r\n            sender = msg.sender;\r\n        }\r\n        return sender;\r\n    }\r\n}\r\n\r\n/**\r\n * https://github.com/maticnetwork/pos-portal/blob/master/contracts/common/Initializable.sol\r\n */\r\ncontract Initializable {\r\n    bool inited = false;\r\n\r\n    modifier initializer() {\r\n        require(!inited, \"already inited\");\r\n        _;\r\n        inited = true;\r\n    }\r\n}\r\n\r\n/**\r\n * https://github.com/maticnetwork/pos-portal/blob/master/contracts/common/EIP712Base.sol\r\n */\r\ncontract EIP712Base is Initializable {\r\n    struct EIP712Domain {\r\n        string name;\r\n        string version;\r\n        address verifyingContract;\r\n        bytes32 salt;\r\n    }\r\n\r\n    string constant public ERC712_VERSION = \"1\";\r\n\r\n    bytes32 internal constant EIP712_DOMAIN_TYPEHASH = keccak256(\r\n        bytes(\r\n            \"EIP712Domain(string name,string version,address verifyingContract,bytes32 salt)\"\r\n        )\r\n    );\r\n    bytes32 internal domainSeperator;\r\n\r\n    // supposed to be called once while initializing.\r\n    // one of the contractsa that inherits this contract follows proxy pattern\r\n    // so it is not possible to do this in a constructor\r\n    function _initializeEIP712(\r\n        string memory name\r\n    )\r\n    internal\r\n    initializer\r\n    {\r\n        _setDomainSeperator(name);\r\n    }\r\n\r\n    function _setDomainSeperator(string memory name) internal {\r\n        domainSeperator = keccak256(\r\n            abi.encode(\r\n                EIP712_DOMAIN_TYPEHASH,\r\n                keccak256(bytes(name)),\r\n                keccak256(bytes(ERC712_VERSION)),\r\n                address(this),\r\n                bytes32(getChainId())\r\n            )\r\n        );\r\n    }\r\n\r\n    function getDomainSeperator() public view returns (bytes32) {\r\n        return domainSeperator;\r\n    }\r\n\r\n    function getChainId() public view returns (uint256) {\r\n        uint256 id;\r\n        assembly {\r\n            id := chainid()\r\n        }\r\n        return id;\r\n    }\r\n\r\n    /**\r\n     * Accept message hash and returns hash message in EIP712 compatible form\r\n     * So that it can be used to recover signer from signature signed using EIP712 formatted data\r\n     * https://eips.ethereum.org/EIPS/eip-712\r\n     * \"\\\\x19\" makes the encoding deterministic\r\n     * \"\\\\x01\" is the version byte to make it compatible to EIP-191\r\n     */\r\n    function toTypedMessageHash(bytes32 messageHash)\r\n    internal\r\n    view\r\n    returns (bytes32)\r\n    {\r\n        return\r\n        keccak256(\r\n            abi.encodePacked(\"\\x19\\x01\", getDomainSeperator(), messageHash)\r\n        );\r\n    }\r\n}\r\n\r\n/**\r\n * https://github.com/maticnetwork/pos-portal/blob/master/contracts/common/NativeMetaTransaction.sol\r\n */\r\ncontract NativeMetaTransaction is EIP712Base {\r\n    using SafeMath for uint256;\r\n    bytes32 private constant META_TRANSACTION_TYPEHASH = keccak256(\r\n        bytes(\r\n            \"MetaTransaction(uint256 nonce,address from,bytes functionSignature)\"\r\n        )\r\n    );\r\n\r\n    event MetaTransactionExecuted(\r\n        address userAddress,\r\n        address relayerAddress,\r\n        bytes functionSignature\r\n    );\r\n\r\n    mapping(address => uint256) nonces;\r\n\r\n    /*\r\n     * Meta transaction structure.\r\n     * No point of including value field here as if user is doing value transfer then he has the funds to pay for gas\r\n     * He should call the desired function directly in that case.\r\n     */\r\n    struct MetaTransaction {\r\n        uint256 nonce;\r\n        address from;\r\n        bytes functionSignature;\r\n    }\r\n\r\n    function executeMetaTransaction(\r\n        address userAddress,\r\n        bytes memory functionSignature,\r\n        bytes32 sigR,\r\n        bytes32 sigS,\r\n        uint8 sigV\r\n    ) public payable returns (bytes memory) {\r\n        MetaTransaction memory metaTx = MetaTransaction({\r\n        nonce : nonces[userAddress],\r\n        from : userAddress,\r\n        functionSignature : functionSignature\r\n        });\r\n        require(\r\n            verify(userAddress, metaTx, sigR, sigS, sigV),\r\n            \"Signer and signature do not match\"\r\n        );\r\n\r\n        // increase nonce for user (to avoid re-use)\r\n        nonces[userAddress] = nonces[userAddress].add(1);\r\n\r\n        emit MetaTransactionExecuted(\r\n            userAddress,\r\n            msg.sender,\r\n            functionSignature\r\n        );\r\n\r\n        // Append userAddress and relayer address at the end to extract it from calling context\r\n        (bool success, bytes memory returnData) = address(this).call(\r\n            abi.encodePacked(functionSignature, userAddress)\r\n        );\r\n        require(success, \"Function call not successful\");\r\n\r\n        return returnData;\r\n    }\r\n\r\n    function hashMetaTransaction(MetaTransaction memory metaTx)\r\n    internal\r\n    pure\r\n    returns (bytes32)\r\n    {\r\n        return\r\n        keccak256(\r\n            abi.encode(\r\n                META_TRANSACTION_TYPEHASH,\r\n                metaTx.nonce,\r\n                metaTx.from,\r\n                keccak256(metaTx.functionSignature)\r\n            )\r\n        );\r\n    }\r\n\r\n    function getNonce(address user) public view returns (uint256 nonce) {\r\n        nonce = nonces[user];\r\n    }\r\n\r\n    function verify(\r\n        address signer,\r\n        MetaTransaction memory metaTx,\r\n        bytes32 sigR,\r\n        bytes32 sigS,\r\n        uint8 sigV\r\n    ) internal view returns (bool) {\r\n        require(signer != address(0), \"NativeMetaTransaction: INVALID_SIGNER\");\r\n        return\r\n        signer ==\r\n        ecrecover(\r\n            toTypedMessageHash(hashMetaTransaction(metaTx)),\r\n            sigV,\r\n            sigR,\r\n            sigS\r\n        );\r\n    }\r\n}\r\n\r\ncontract ERC721Streak is ERC721PresetMinterPauserAutoId, ContextMixin, NativeMetaTransaction {\r\n    using Strings for uint256;\r\n\r\n    constructor(string memory name, string memory symbol, string memory baseTokenURI) ERC721PresetMinterPauserAutoId(name, symbol, baseTokenURI) {}\r\n\r\n    event Create721Token(address indexed to, uint256 indexed tokenId);\r\n\r\n    /**\r\n * This is used instead of msg.sender as transactions won't be sent by the original token owner, but by OpenSea.\r\n */\r\n    function _msgSender() internal override view returns (address sender){\r\n        return ContextMixin.msgSender();\r\n    }\r\n\r\n    /**\r\n     * @dev See {IERC721-isApprovedForAll}.\r\n     */\r\n    function isApprovedForAll(address owner, address operator) public view virtual override returns (bool) {\r\n        // Use 0x58807baD0B376efc12F5AD86aAc70E78ed67deaE as the whitelisted address for ERC721's.\r\n//        if (operator == address(0x58807baD0B376efc12F5AD86aAc70E78ed67deaE)) {\r\n//            return true;\r\n//        }\r\n        return ERC721.isApprovedForAll(owner, operator);\r\n    }\r\n\r\n\r\n    using Strings for uint256;\r\n\r\n    // Optional mapping for token URIs\r\n    mapping(uint256 => string) private _tokenURIs;\r\n\r\n    /**\r\n     * @dev See {IERC721Metadata-tokenURI}.\r\n     */\r\n    function tokenURI(uint256 tokenId) public view virtual override returns (string memory) {\r\n        require(_exists(tokenId), \"ERC721URIStorage: URI query for nonexistent token\");\r\n\r\n        string memory _tokenURI = _tokenURIs[tokenId];\r\n        return _tokenURI;\r\n    }\r\n\r\n    /**\r\n     * @dev Sets `_tokenURI` as the tokenURI of `tokenId`.\r\n     *\r\n     * Requirements:\r\n     *\r\n     * - `tokenId` must exist.\r\n     */\r\n    function _setTokenURI(uint256 tokenId, string memory _tokenURI) internal virtual {\r\n        require(_exists(tokenId), \"ERC721URIStorage: URI set of nonexistent token\");\r\n        _tokenURIs[tokenId] = _tokenURI;\r\n    }\r\n\r\n    /**\r\n     * @dev Destroys `tokenId`.\r\n     * The approval is cleared when the token is burned.\r\n     *\r\n     * Requirements:\r\n     *\r\n     * - `tokenId` must exist.\r\n     *\r\n     * Emits a {Transfer} event.\r\n     */\r\n    function _burn(uint256 tokenId) internal virtual override {\r\n        super._burn(tokenId);\r\n\r\n        if (bytes(_tokenURIs[tokenId]).length != 0) {\r\n            delete _tokenURIs[tokenId];\r\n        }\r\n    }\r\n\r\n    function mintItem(address to, string memory _tokenUri) public virtual returns(uint256 tokenId) {\r\n        tokenId = super.mint(to);\r\n        _tokenURIs[tokenId] = _tokenUri;\r\n\r\n        emit Create721Token(to, tokenId);\r\n    }\r\n}\r\n",
  "sourcePath": "D:\\cupcake\\streak\\solidity\\contracts\\streak\\ERC721Streak.sol",
  "compiler": {
    "name": "solc",
    "version": "0.8.0+commit.c7dfd78e.Emscripten.clang"
  },
  "schemaVersion": "3.4.2",
  "updatedAt": "2021-09-08T08:21:36.045Z",
  "devdoc": {
    "kind": "dev",
    "methods": {
      "approve(address,uint256)": {
        "details": "See {IERC721-approve}."
      },
      "balanceOf(address)": {
        "details": "See {IERC721-balanceOf}."
      },
      "burn(uint256)": {
        "details": "Burns `tokenId`. See {ERC721-_burn}. Requirements: - The caller must own `tokenId` or be an approved operator."
      },
      "getApproved(uint256)": {
        "details": "See {IERC721-getApproved}."
      },
      "getRoleAdmin(bytes32)": {
        "details": "Returns the admin role that controls `role`. See {grantRole} and {revokeRole}. To change a role's admin, use {_setRoleAdmin}."
      },
      "getRoleMember(bytes32,uint256)": {
        "details": "Returns one of the accounts that have `role`. `index` must be a value between 0 and {getRoleMemberCount}, non-inclusive. Role bearers are not sorted in any particular way, and their ordering may change at any point. WARNING: When using {getRoleMember} and {getRoleMemberCount}, make sure you perform all queries on the same block. See the following https://forum.openzeppelin.com/t/iterating-over-elements-on-enumerableset-in-openzeppelin-contracts/2296[forum post] for more information."
      },
      "getRoleMemberCount(bytes32)": {
        "details": "Returns the number of accounts that have `role`. Can be used together with {getRoleMember} to enumerate all bearers of a role."
      },
      "grantRole(bytes32,address)": {
        "details": "Overload {grantRole} to track enumerable memberships"
      },
      "hasRole(bytes32,address)": {
        "details": "Returns `true` if `account` has been granted `role`."
      },
      "isApprovedForAll(address,address)": {
        "details": "See {IERC721-isApprovedForAll}."
      },
      "mint(address)": {
        "details": "Creates a new token for `to`. Its token ID will be automatically assigned (and available on the emitted {IERC721-Transfer} event), and the token URI autogenerated based on the base URI passed at construction. See {ERC721-_mint}. Requirements: - the caller must have the `MINTER_ROLE`."
      },
      "name()": {
        "details": "See {IERC721Metadata-name}."
      },
      "ownerOf(uint256)": {
        "details": "See {IERC721-ownerOf}."
      },
      "pause()": {
        "details": "Pauses all token transfers. See {ERC721Pausable} and {Pausable-_pause}. Requirements: - the caller must have the `PAUSER_ROLE`."
      },
      "paused()": {
        "details": "Returns true if the contract is paused, and false otherwise."
      },
      "renounceRole(bytes32,address)": {
        "details": "Overload {renounceRole} to track enumerable memberships"
      },
      "revokeRole(bytes32,address)": {
        "details": "Overload {revokeRole} to track enumerable memberships"
      },
      "safeTransferFrom(address,address,uint256)": {
        "details": "See {IERC721-safeTransferFrom}."
      },
      "safeTransferFrom(address,address,uint256,bytes)": {
        "details": "See {IERC721-safeTransferFrom}."
      },
      "setApprovalForAll(address,bool)": {
        "details": "See {IERC721-setApprovalForAll}."
      },
      "supportsInterface(bytes4)": {
        "details": "See {IERC165-supportsInterface}."
      },
      "symbol()": {
        "details": "See {IERC721Metadata-symbol}."
      },
      "tokenByIndex(uint256)": {
        "details": "See {IERC721Enumerable-tokenByIndex}."
      },
      "tokenOfOwnerByIndex(address,uint256)": {
        "details": "See {IERC721Enumerable-tokenOfOwnerByIndex}."
      },
      "tokenURI(uint256)": {
        "details": "See {IERC721Metadata-tokenURI}."
      },
      "totalSupply()": {
        "details": "See {IERC721Enumerable-totalSupply}."
      },
      "transferFrom(address,address,uint256)": {
        "details": "See {IERC721-transferFrom}."
      },
      "unpause()": {
        "details": "Unpauses all token transfers. See {ERC721Pausable} and {Pausable-_unpause}. Requirements: - the caller must have the `PAUSER_ROLE`."
      }
    },
    "version": 1
  },
  "userdoc": {
    "kind": "user",
    "methods": {},
    "version": 1
  }
}