{
  "contractName": "ExchangeStreak",
  "abi": [
    {
      "inputs": [
        {
          "internalType": "address",
          "name": "_signerAddress",
          "type": "address"
        },
        {
          "internalType": "address",
          "name": "_erc721Address",
          "type": "address"
        },
        {
          "internalType": "address",
          "name": "_erc1155Address",
          "type": "address"
        },
        {
          "internalType": "address",
          "name": "_erc20Address",
          "type": "address"
        }
      ],
      "stateMutability": "nonpayable",
      "type": "constructor"
    },
    {
      "anonymous": false,
      "inputs": [
        {
          "indexed": false,
          "internalType": "uint256",
          "name": "_tokenId",
          "type": "uint256"
        },
        {
          "indexed": true,
          "internalType": "uint256",
          "name": "_offerId",
          "type": "uint256"
        },
        {
          "indexed": false,
          "internalType": "uint256",
          "name": "_quantity",
          "type": "uint256"
        },
        {
          "indexed": false,
          "internalType": "uint256",
          "name": "_price",
          "type": "uint256"
        },
        {
          "indexed": true,
          "internalType": "address",
          "name": "_previousOwner",
          "type": "address"
        },
        {
          "indexed": true,
          "internalType": "address",
          "name": "_newOwner",
          "type": "address"
        },
        {
          "indexed": false,
          "internalType": "bool",
          "name": "_soldForERC20",
          "type": "bool"
        }
      ],
      "name": "Token1155Bought",
      "type": "event"
    },
    {
      "anonymous": false,
      "inputs": [
        {
          "indexed": true,
          "internalType": "uint256",
          "name": "_tokenId",
          "type": "uint256"
        },
        {
          "indexed": true,
          "internalType": "uint256",
          "name": "_offerId",
          "type": "uint256"
        }
      ],
      "name": "Token1155OfferDeleted",
      "type": "event"
    },
    {
      "anonymous": false,
      "inputs": [
        {
          "indexed": true,
          "internalType": "uint256",
          "name": "_tokenId",
          "type": "uint256"
        },
        {
          "indexed": true,
          "internalType": "uint256",
          "name": "_offerId",
          "type": "uint256"
        },
        {
          "indexed": true,
          "internalType": "address",
          "name": "_owner",
          "type": "address"
        },
        {
          "indexed": false,
          "internalType": "uint256",
          "name": "_quantity",
          "type": "uint256"
        },
        {
          "indexed": false,
          "internalType": "uint256",
          "name": "_price",
          "type": "uint256"
        }
      ],
      "name": "Token1155OfferListed",
      "type": "event"
    },
    {
      "anonymous": false,
      "inputs": [
        {
          "indexed": true,
          "internalType": "uint256",
          "name": "_tokenId",
          "type": "uint256"
        },
        {
          "indexed": true,
          "internalType": "address",
          "name": "_previousOwner",
          "type": "address"
        },
        {
          "indexed": true,
          "internalType": "address",
          "name": "_newOwner",
          "type": "address"
        },
        {
          "indexed": false,
          "internalType": "uint256",
          "name": "_quantity",
          "type": "uint256"
        }
      ],
      "name": "Token1155Owned",
      "type": "event"
    },
    {
      "anonymous": false,
      "inputs": [
        {
          "indexed": true,
          "internalType": "uint256",
          "name": "_tokenId",
          "type": "uint256"
        },
        {
          "indexed": true,
          "internalType": "uint256",
          "name": "_offerId",
          "type": "uint256"
        }
      ],
      "name": "Token1155PriceUnlisted",
      "type": "event"
    },
    {
      "anonymous": false,
      "inputs": [
        {
          "indexed": true,
          "internalType": "uint256",
          "name": "_tokenId",
          "type": "uint256"
        },
        {
          "indexed": true,
          "internalType": "uint256",
          "name": "_offerId",
          "type": "uint256"
        },
        {
          "indexed": false,
          "internalType": "uint256",
          "name": "_quantity",
          "type": "uint256"
        },
        {
          "indexed": false,
          "internalType": "uint256",
          "name": "_price",
          "type": "uint256"
        },
        {
          "indexed": false,
          "internalType": "bool",
          "name": "_soldForERC20",
          "type": "bool"
        }
      ],
      "name": "Token1155Sold",
      "type": "event"
    },
    {
      "anonymous": false,
      "inputs": [
        {
          "indexed": true,
          "internalType": "uint256",
          "name": "_tokenId",
          "type": "uint256"
        },
        {
          "indexed": false,
          "internalType": "uint256",
          "name": "_price",
          "type": "uint256"
        },
        {
          "indexed": true,
          "internalType": "address",
          "name": "_previousOwner",
          "type": "address"
        },
        {
          "indexed": true,
          "internalType": "address",
          "name": "_newOwner",
          "type": "address"
        },
        {
          "indexed": false,
          "internalType": "bool",
          "name": "_soldForERC20",
          "type": "bool"
        }
      ],
      "name": "TokenBought",
      "type": "event"
    },
    {
      "anonymous": false,
      "inputs": [
        {
          "indexed": true,
          "internalType": "uint256",
          "name": "_tokenId",
          "type": "uint256"
        },
        {
          "indexed": true,
          "internalType": "address",
          "name": "_previousOwner",
          "type": "address"
        },
        {
          "indexed": true,
          "internalType": "address",
          "name": "_newOwner",
          "type": "address"
        }
      ],
      "name": "TokenOwned",
      "type": "event"
    },
    {
      "anonymous": false,
      "inputs": [
        {
          "indexed": true,
          "internalType": "uint256",
          "name": "_tokenId",
          "type": "uint256"
        }
      ],
      "name": "TokenPriceDeleted",
      "type": "event"
    },
    {
      "anonymous": false,
      "inputs": [
        {
          "indexed": true,
          "internalType": "uint256",
          "name": "_tokenId",
          "type": "uint256"
        },
        {
          "indexed": true,
          "internalType": "address",
          "name": "_owner",
          "type": "address"
        },
        {
          "indexed": false,
          "internalType": "uint256",
          "name": "_price",
          "type": "uint256"
        }
      ],
      "name": "TokenPriceListed",
      "type": "event"
    },
    {
      "anonymous": false,
      "inputs": [
        {
          "indexed": true,
          "internalType": "uint256",
          "name": "_tokenId",
          "type": "uint256"
        }
      ],
      "name": "TokenPriceUnlisted",
      "type": "event"
    },
    {
      "anonymous": false,
      "inputs": [
        {
          "indexed": true,
          "internalType": "uint256",
          "name": "_tokenId",
          "type": "uint256"
        },
        {
          "indexed": false,
          "internalType": "uint256",
          "name": "_price",
          "type": "uint256"
        },
        {
          "indexed": false,
          "internalType": "bool",
          "name": "_soldForERC20",
          "type": "bool"
        }
      ],
      "name": "TokenSold",
      "type": "event"
    },
    {
      "inputs": [
        {
          "internalType": "uint256",
          "name": "",
          "type": "uint256"
        }
      ],
      "name": "ERC1155Offers",
      "outputs": [
        {
          "internalType": "uint256",
          "name": "tokenId",
          "type": "uint256"
        },
        {
          "internalType": "uint256",
          "name": "quantity",
          "type": "uint256"
        },
        {
          "internalType": "uint256",
          "name": "price",
          "type": "uint256"
        },
        {
          "internalType": "address",
          "name": "seller",
          "type": "address"
        }
      ],
      "stateMutability": "view",
      "type": "function",
      "constant": true
    },
    {
      "inputs": [
        {
          "internalType": "uint256",
          "name": "",
          "type": "uint256"
        }
      ],
      "name": "ERC721Prices",
      "outputs": [
        {
          "internalType": "uint256",
          "name": "",
          "type": "uint256"
        }
      ],
      "stateMutability": "view",
      "type": "function",
      "constant": true
    },
    {
      "inputs": [],
      "name": "erc1155Contract",
      "outputs": [
        {
          "internalType": "contract IERC1155",
          "name": "",
          "type": "address"
        }
      ],
      "stateMutability": "view",
      "type": "function",
      "constant": true
    },
    {
      "inputs": [],
      "name": "erc20Contract",
      "outputs": [
        {
          "internalType": "contract IERC20",
          "name": "",
          "type": "address"
        }
      ],
      "stateMutability": "view",
      "type": "function",
      "constant": true
    },
    {
      "inputs": [],
      "name": "erc721Contract",
      "outputs": [
        {
          "internalType": "contract IERC721",
          "name": "",
          "type": "address"
        }
      ],
      "stateMutability": "view",
      "type": "function",
      "constant": true
    },
    {
      "inputs": [],
      "name": "name",
      "outputs": [
        {
          "internalType": "bytes32",
          "name": "",
          "type": "bytes32"
        }
      ],
      "stateMutability": "view",
      "type": "function",
      "constant": true
    },
    {
      "inputs": [
        {
          "internalType": "address",
          "name": "",
          "type": "address"
        }
      ],
      "name": "nonces",
      "outputs": [
        {
          "internalType": "uint256",
          "name": "",
          "type": "uint256"
        }
      ],
      "stateMutability": "view",
      "type": "function",
      "constant": true
    },
    {
      "inputs": [],
      "name": "offerIdCounter",
      "outputs": [
        {
          "internalType": "uint256",
          "name": "",
          "type": "uint256"
        }
      ],
      "stateMutability": "view",
      "type": "function",
      "constant": true
    },
    {
      "inputs": [],
      "name": "safeVolatilityPeriod",
      "outputs": [
        {
          "internalType": "uint256",
          "name": "",
          "type": "uint256"
        }
      ],
      "stateMutability": "view",
      "type": "function",
      "constant": true
    },
    {
      "inputs": [],
      "name": "signerAddress",
      "outputs": [
        {
          "internalType": "address",
          "name": "",
          "type": "address"
        }
      ],
      "stateMutability": "view",
      "type": "function",
      "constant": true
    },
    {
      "inputs": [
        {
          "internalType": "address",
          "name": "",
          "type": "address"
        },
        {
          "internalType": "uint256",
          "name": "",
          "type": "uint256"
        }
      ],
      "name": "tokensListed",
      "outputs": [
        {
          "internalType": "uint256",
          "name": "",
          "type": "uint256"
        }
      ],
      "stateMutability": "view",
      "type": "function",
      "constant": true
    },
    {
      "inputs": [
        {
          "internalType": "uint256",
          "name": "_tokenId",
          "type": "uint256"
        },
        {
          "internalType": "uint256",
          "name": "_price",
          "type": "uint256"
        }
      ],
      "name": "listToken",
      "outputs": [],
      "stateMutability": "nonpayable",
      "type": "function"
    },
    {
      "inputs": [
        {
          "internalType": "uint256",
          "name": "_tokenId",
          "type": "uint256"
        },
        {
          "internalType": "uint256",
          "name": "_quantity",
          "type": "uint256"
        },
        {
          "internalType": "uint256",
          "name": "_price",
          "type": "uint256"
        }
      ],
      "name": "listToken1155",
      "outputs": [],
      "stateMutability": "nonpayable",
      "type": "function"
    },
    {
      "inputs": [
        {
          "internalType": "uint256",
          "name": "_tokenId",
          "type": "uint256"
        }
      ],
      "name": "removeListToken",
      "outputs": [],
      "stateMutability": "nonpayable",
      "type": "function"
    },
    {
      "inputs": [
        {
          "internalType": "uint256",
          "name": "_offerId",
          "type": "uint256"
        }
      ],
      "name": "removeListToken1155",
      "outputs": [],
      "stateMutability": "nonpayable",
      "type": "function"
    },
    {
      "inputs": [
        {
          "internalType": "uint256",
          "name": "_tokenId",
          "type": "uint256"
        }
      ],
      "name": "buyToken",
      "outputs": [],
      "stateMutability": "payable",
      "type": "function",
      "payable": true
    },
    {
      "inputs": [
        {
          "internalType": "uint256",
          "name": "_offerId",
          "type": "uint256"
        },
        {
          "internalType": "uint256",
          "name": "_quantity",
          "type": "uint256"
        }
      ],
      "name": "buyToken1155",
      "outputs": [],
      "stateMutability": "payable",
      "type": "function",
      "payable": true
    },
    {
      "inputs": [
        {
          "internalType": "uint256",
          "name": "_tokenId",
          "type": "uint256"
        },
        {
          "internalType": "uint256",
          "name": "_priceInERC20",
          "type": "uint256"
        },
        {
          "internalType": "uint256",
          "name": "_nonce",
          "type": "uint256"
        },
        {
          "internalType": "bytes",
          "name": "_signature",
          "type": "bytes"
        },
        {
          "internalType": "uint256",
          "name": "_timestamp",
          "type": "uint256"
        }
      ],
      "name": "buyTokenForERC20",
      "outputs": [],
      "stateMutability": "nonpayable",
      "type": "function"
    },
    {
      "inputs": [
        {
          "internalType": "uint256",
          "name": "_offerId",
          "type": "uint256"
        },
        {
          "internalType": "uint256",
          "name": "_quantity",
          "type": "uint256"
        },
        {
          "internalType": "uint256",
          "name": "_priceInERC20",
          "type": "uint256"
        },
        {
          "internalType": "uint256",
          "name": "_nonce",
          "type": "uint256"
        },
        {
          "internalType": "bytes",
          "name": "_signature",
          "type": "bytes"
        },
        {
          "internalType": "uint256",
          "name": "_timestamp",
          "type": "uint256"
        }
      ],
      "name": "buyToken1155ForERC20",
      "outputs": [],
      "stateMutability": "nonpayable",
      "type": "function"
    },
    {
      "inputs": [
        {
          "internalType": "address",
          "name": "_newSignerAddress",
          "type": "address"
        }
      ],
      "name": "setSigner",
      "outputs": [],
      "stateMutability": "nonpayable",
      "type": "function"
    },
    {
      "inputs": [
        {
          "internalType": "uint256",
          "name": "_newSafeVolatilityPeriod",
          "type": "uint256"
        }
      ],
      "name": "setSafeVolatilityPeriod",
      "outputs": [],
      "stateMutability": "nonpayable",
      "type": "function"
    }
  ],
  "bytecode": "0x60806040526d45786368616e676553747265616b60901b6002553480156200002657600080fd5b5060405162001e3d38038062001e3d83398101604081905262000049916200011a565b6001600160a01b0384166200005d57600080fd5b6001600160a01b0383166200007157600080fd5b6001600160a01b0382166200008557600080fd5b6001600160a01b0381166200009957600080fd5b60018054336001600160a01b0319918216179091556000805482166001600160a01b03968716179055600680548216948616949094179093556007805484169285169290921790915560058054909216921691909117905561384060045562000176565b80516001600160a01b03811681146200011557600080fd5b919050565b6000806000806080858703121562000130578384fd5b6200013b85620000fd565b93506200014b60208601620000fd565b92506200015b60408601620000fd565b91506200016b60608601620000fd565b905092959194509250565b611cb780620001866000396000f3fe60806040526004361061012a5760003560e01c80637c2efd3a116100ab578063a8f6c9131161006f578063a8f6c913146102fe578063aef6afa014610313578063c09abc7414610328578063d5f1fac214610348578063d7c97fb414610368578063e026a0d41461037d5761012a565b80637c2efd3a1461024e5780637ecebe001461027e5780637f0c0b2b1461029e57806384f9dffc146102be5780639858ce42146102de5761012a565b80635b7633d0116100f25780635b7633d0146101b75780636c19e783146101d95780636efe9034146101f957806375c1631d146102195780637a564970146102395761012a565b8063037419011461012f57806306fdde0314610151578063270226081461017c5780632a9ab2f71461018f5780632d296bf1146101a4575b600080fd5b34801561013b57600080fd5b5061014f61014a3660046117b7565b61039d565b005b34801561015d57600080fd5b50610166610442565b6040516101739190611a06565b60405180910390f35b61014f61018a3660046117e7565b610448565b34801561019b57600080fd5b50610166610703565b61014f6101b23660046117b7565b610709565b3480156101c357600080fd5b506101cc610977565b604051610173919061197d565b3480156101e557600080fd5b5061014f6101f436600461172d565b610986565b34801561020557600080fd5b5061016661021436600461176c565b6109bf565b34801561022557600080fd5b5061014f6102343660046117e7565b6109dc565b34801561024557600080fd5b506101cc610ae6565b34801561025a57600080fd5b5061026e6102693660046117b7565b610af5565b6040516101739493929190611b84565b34801561028a57600080fd5b5061016661029936600461172d565b610b25565b3480156102aa57600080fd5b5061014f6102b936600461189a565b610b37565b3480156102ca57600080fd5b5061014f6102d9366004611808565b610ed5565b3480156102ea57600080fd5b5061014f6102f93660046117b7565b611087565b34801561030a57600080fd5b506101cc611151565b34801561031f57600080fd5b50610166611160565b34801561033457600080fd5b506101666103433660046117b7565b611166565b34801561035457600080fd5b5061014f6103633660046117b7565b611178565b34801561037457600080fd5b506101cc611194565b34801561038957600080fd5b5061014f610398366004611833565b6111a3565b6000818152600a60205260409020600301546001600160a01b031633146103c357600080fd5b6103cc8161150a565b6000818152600a60209081526040808320815160808101835281548082526001830154948201949094526002820154818401526003909101546001600160a01b03166060820152905190928492917fc3782663e59bfb42fa6aaceb9b532c7a918fb67e0fe7b0a4b81a3480e1690eb89190a35050565b60025481565b6000828152600a60209081526040918290208251608081018452815481526001820154928101929092526002810154928201839052600301546001600160a01b03166060820152906104b55760405162461bcd60e51b81526004016104ac90611ae9565b60405180910390fd5b81816020015110156104c657600080fd5b348282604001516104d79190611c02565b11156104e257600080fd5b6000816060015190506000816001600160a01b0316346040516105049061193c565b60006040518083038185875af1925050503d8060008114610541576040519150601f19603f3d011682016040523d82523d6000602084013e610546565b606091505b505090508061055457600080fd5b60075460608401518451604051637921219560e11b81526001600160a01b039093169263f242432a926105909290913391908a906004016119b5565b600060405180830381600087803b1580156105aa57600080fd5b505af11580156105be573d6000803e3d6000fd5b505050508483600001517f7fb11ff302ae6d36a8b0c79d811fc59516e5e64f8cbec2ea6607ccc515432aef868660400151600060405161060093929190611b6c565b60405180910390a3336001600160a01b031683606001516001600160a01b031684600001517fb8b4d06c345300905c1e7f27d9844f29a452bee98d5337a92063a0c5c093c11b876040516106549190611a06565b60405180910390a4336001600160a01b031683606001516001600160a01b0316867fb0e8115c3779ae84a1d0dad457344f9922f6c4e5c453e55fa008671366c1a3ff866000015188886040015160006040516106b39493929190611ba8565b60405180910390a483836020015114156106d5576106d08561150a565b6106fc565b6000858152600a6020526040812060010180548692906106f6908490611c21565b90915550505b5050505050565b60045481565b6000818152600960205260409020546107345760405162461bcd60e51b81526004016104ac90611a64565b60008181526009602052604090205434101561074f57600080fd5b6006546040516331a9108f60e11b81526000916001600160a01b031690636352211e90610780908590600401611a06565b60206040518083038186803b15801561079857600080fd5b505afa1580156107ac573d6000803e3d6000fd5b505050506040513d601f19601f820116820180604052508101906107d09190611750565b905060008190506000816001600160a01b0316346040516107f09061193c565b60006040518083038185875af1925050503d806000811461082d576040519150601f19603f3d011682016040523d82523d6000602084013e610832565b606091505b505090508061084057600080fd5b600654604051632142170760e11b81526001600160a01b03909116906342842e0e9061087490869033908990600401611991565b600060405180830381600087803b15801561088e57600080fd5b505af11580156108a2573d6000803e3d6000fd5b50505050837fae166740ac507494f7ed7f212ab19af170214b901d438bc0c776e53a1a4f1db53460006040516108d9929190611b4e565b60405180910390a260405133906001600160a01b0385169086907f1f652685ce8571045ea109308ccf0a4432a5514853462cb1108ece7a752da45c90600090a4336001600160a01b0316836001600160a01b0316857f73d4086ec9688cbcfb493a692032a391bca1c6ba93539cc4cf08ae46def71305346000604051610960929190611b4e565b60405180910390a4610971846115db565b50505050565b6000546001600160a01b031681565b6001546001600160a01b0316331461099d57600080fd5b600080546001600160a01b0319166001600160a01b0392909216919091179055565b600b60209081526000928352604080842090915290825290205481565b600081116109e957600080fd5b6006546040516331a9108f60e11b815233916001600160a01b031690636352211e90610a19908690600401611a06565b60206040518083038186803b158015610a3157600080fd5b505afa158015610a45573d6000803e3d6000fd5b505050506040513d601f19601f82011682018060405250810190610a699190611750565b6001600160a01b031614610a7c57600080fd5b60008281526009602052604090205415610a9557600080fd5b6000828152600960205260409081902082905551339083907f44453929d41bf1645291a7c5011a44a2781c52f5495dbd576f5f73791b86d92c90610ada908590611a06565b60405180910390a35050565b6007546001600160a01b031681565b600a602052600090815260409020805460018201546002830154600390930154919290916001600160a01b031684565b60086020526000908152604090205481565b60008787878785604051602001610b5295949392919061195a565b604051602081830303815290604052805190602001209050600081604051602001610b7d919061190b565b60408051601f198184030181528282528051602091820120600054601f890183900483028501830190935287845293506001600160a01b0390911691610be091849190899089908190840183828082843760009201919091525061161692505050565b6001600160a01b031614610c065760405162461bcd60e51b81526004016104ac90611aba565b6000898152600a602090815260408083208151608081018352815481526001820154818501526002820154818401526003909101546001600160a01b031660608201523384526008909252909120548711610c735760405162461bcd60e51b81526004016104ac90611a93565b60045415610ca8574260045485610c8a9190611bc5565b1015610ca85760405162461bcd60e51b81526004016104ac90611a2d565b6000816040015111610ccc5760405162461bcd60e51b81526004016104ac90611ae9565b8881602001511015610cdd57600080fd5b33600081815260086020526040902088905560055460608301516001600160a01b03909116916323b872dd91610d138d8d611c02565b6040518463ffffffff1660e01b8152600401610d3193929190611991565b602060405180830381600087803b158015610d4b57600080fd5b505af1158015610d5f573d6000803e3d6000fd5b505050506040513d601f19601f82011682018060405250810190610d839190611797565b5060075460608201518251604051637921219560e11b81526001600160a01b039093169263f242432a92610dc09290913391908f906004016119b5565b600060405180830381600087803b158015610dda57600080fd5b505af1158015610dee573d6000803e3d6000fd5b505050508981600001517f7fb11ff302ae6d36a8b0c79d811fc59516e5e64f8cbec2ea6607ccc515432aef8b8b6001604051610e2c93929190611b6c565b60405180910390a3336001600160a01b031681606001516001600160a01b031682600001517fb8b4d06c345300905c1e7f27d9844f29a452bee98d5337a92063a0c5c093c11b8c604051610e809190611a06565b60405180910390a48881602001511415610ea257610e9d8a61150a565b610ec9565b60008a8152600a6020526040812060010180548b9290610ec3908490611c21565b90915550505b50505050505050505050565b60008111610ee257600080fd5b336000908152600b60209081526040808320868452909152902054610f08908390611bc5565b600754604051627eeac760e11b81526001600160a01b039091169062fdd58e90610f3890339088906004016119ed565b60206040518083038186803b158015610f5057600080fd5b505afa158015610f64573d6000803e3d6000fd5b505050506040513d601f19601f82011682018060405250810190610f8891906117cf565b1015610f9357600080fd5b6003805460009182610fa483611c38565b9091555060408051608081018252868152602080820187815282840187815233606085018181526000888152600a86528781209651875593516001870155915160028601559051600390940180546001600160a01b0319166001600160a01b0390951694909417909355918252600b8152828220888352905290812080549293508592909190611035908490611bc5565b92505081905550336001600160a01b031681857f9430c8d42cbf08784f65d3e85f3ab1cf822050149a0e65d9e6f5efd084c4b9848686604051611079929190611b5e565b60405180910390a450505050565b6006546040516331a9108f60e11b815233916001600160a01b031690636352211e906110b7908590600401611a06565b60206040518083038186803b1580156110cf57600080fd5b505afa1580156110e3573d6000803e3d6000fd5b505050506040513d601f19601f820116820180604052508101906111079190611750565b6001600160a01b03161461111a57600080fd5b611123816115db565b60405181907f754cb9f959e13ee4d0cf5eaf10ea0d1591ce4b19d43f553ee2989967277bdc2390600090a250565b6005546001600160a01b031681565b60035481565b60096020526000908152604090205481565b6001546001600160a01b0316331461118f57600080fd5b600455565b6006546001600160a01b031681565b6000868686846040516020016111bc949392919061193f565b6040516020818303038152906040528051906020012090506000816040516020016111e7919061190b565b60408051601f198184030181528282528051602091820120600054601f890183900483028501830190935287845293506001600160a01b039091169161124a91849190899089908190840183828082843760009201919091525061161692505050565b6001600160a01b0316146112705760405162461bcd60e51b81526004016104ac90611aba565b33600090815260086020526040902054861161129e5760405162461bcd60e51b81526004016104ac90611a93565b600454156112d35742600454846112b59190611bc5565b10156112d35760405162461bcd60e51b81526004016104ac90611a2d565b6000888152600960205260409020546112fe5760405162461bcd60e51b81526004016104ac90611a64565b3360009081526008602052604080822088905560065490516331a9108f60e11b81526001600160a01b0390911690636352211e90611340908c90600401611a06565b60206040518083038186803b15801561135857600080fd5b505afa15801561136c573d6000803e3d6000fd5b505050506040513d601f19601f820116820180604052508101906113909190611750565b6005546040516323b872dd60e01b81529192506000916001600160a01b03909116906323b872dd906113ca90339086908e90600401611991565b602060405180830381600087803b1580156113e457600080fd5b505af11580156113f8573d6000803e3d6000fd5b505050506040513d601f19601f8201168201806040525081019061141c9190611797565b90508061142857600080fd5b600654604051632142170760e11b81526001600160a01b03909116906342842e0e9061145c90859033908f90600401611991565b600060405180830381600087803b15801561147657600080fd5b505af115801561148a573d6000803e3d6000fd5b50505050897fae166740ac507494f7ed7f212ab19af170214b901d438bc0c776e53a1a4f1db58a60016040516114c1929190611b4e565b60405180910390a260405133906001600160a01b038416908c907f1f652685ce8571045ea109308ccf0a4432a5514853462cb1108ece7a752da45c90600090a4610ec98a6115db565b6000818152600a6020908152604080832081516080810183528154815260018201548185018190526002830154828501526003909201546001600160a01b0316606082018190528552600b845282852081518652909352908320805492939192909190611578908490611c21565b90915550506000828152600a6020526040808220828155600181018390556002810183905560030180546001600160a01b03191690558251905184927fc79f6424a73f7311d0e912f1939d83b5796133497d4f9ac12f0011a87a6a37a091a35050565b6000818152600960205260408082208290555182917f939b46aa17ffd86dc2d3a6e29420966b23dee5371291f120bd53c87b53f9638b91a250565b600081516041146116395760405162461bcd60e51b81526004016104ac90611b17565b60208201516040830151604184015160ff16601b8110156116625761165f601b82611bdd565b90505b8060ff16601b1415801561167a57508060ff16601c14155b1561168b57600093505050506116e0565b600186828585604051600081526020016040526040516116ae9493929190611a0f565b6020604051602081039080840390855afa1580156116d0573d6000803e3d6000fd5b5050506020604051035193505050505b92915050565b60008083601f8401126116f7578182fd5b50813567ffffffffffffffff81111561170e578182fd5b60208301915083602082850101111561172657600080fd5b9250929050565b60006020828403121561173e578081fd5b813561174981611c69565b9392505050565b600060208284031215611761578081fd5b815161174981611c69565b6000806040838503121561177e578081fd5b823561178981611c69565b946020939093013593505050565b6000602082840312156117a8578081fd5b81518015158114611749578182fd5b6000602082840312156117c8578081fd5b5035919050565b6000602082840312156117e0578081fd5b5051919050565b600080604083850312156117f9578182fd5b50508035926020909101359150565b60008060006060848603121561181c578081fd5b505081359360208301359350604090920135919050565b60008060008060008060a0878903121561184b578182fd5b863595506020870135945060408701359350606087013567ffffffffffffffff811115611876578283fd5b61188289828a016116e6565b979a9699509497949695608090950135949350505050565b600080600080600080600060c0888a0312156118b4578081fd5b87359650602088013595506040880135945060608801359350608088013567ffffffffffffffff8111156118e6578182fd5b6118f28a828b016116e6565b989b979a5095989497959660a090950135949350505050565b7f19457468657265756d205369676e6564204d6573736167653a0a3332000000008152601c810191909152603c0190565b90565b93845260208401929092526040830152606082015260800190565b948552602085019390935260408401919091526060830152608082015260a00190565b6001600160a01b0391909116815260200190565b6001600160a01b039384168152919092166020820152604081019190915260600190565b6001600160a01b0394851681529290931660208301526040820152606081019190915260a06080820181905260009082015260c00190565b6001600160a01b03929092168252602082015260400190565b90815260200190565b93845260ff9290921660208401526040830152606082015260800190565b6020808252601f908201527f7361666520766f6c6174696c69747920706572696f6420657863656564656400604082015260600190565b602080825260159082015274746f6b656e206973206e6f7420666f722073616c6560581b604082015260600190565b6020808252600d908201526c696e76616c6964206e6f6e636560981b604082015260600190565b60208082526015908201527434b73b30b634b21039b2b1b932ba1039b4b3b732b960591b604082015260600190565b6020808252601490820152731bd999995c88191bd95cc81b9bdd08195e1a5cdd60621b604082015260600190565b60208082526018908201527f696e76616c6964207369676e6174757265206c656e6774680000000000000000604082015260600190565b9182521515602082015260400190565b918252602082015260400190565b92835260208301919091521515604082015260600190565b938452602084019290925260408301526001600160a01b0316606082015260800190565b938452602084019290925260408301521515606082015260800190565b60008219821115611bd857611bd8611c53565b500190565b600060ff821660ff84168060ff03821115611bfa57611bfa611c53565b019392505050565b6000816000190483118215151615611c1c57611c1c611c53565b500290565b600082821015611c3357611c33611c53565b500390565b6000600019821415611c4c57611c4c611c53565b5060010190565b634e487b7160e01b600052601160045260246000fd5b6001600160a01b0381168114611c7e57600080fd5b5056fea2646970667358221220c011cda8a375f8eb7022a5a0a7e45d6183c861394ef25ae938669cb0044c0e2464736f6c63430008000033",
  "immutableReferences": {},
  "source": "pragma solidity 0.8.0;\r\n\r\nimport \"../openzepplin-contracts/token/ERC20/IERC20.sol\";\r\nimport \"../openzepplin-contracts/token/ERC721/IERC721.sol\";\r\nimport \"../openzepplin-contracts/token/ERC1155/IERC1155.sol\";\r\n\r\n\r\ncontract ExchangeStreak {\r\n\tstruct ERC1155Offer {\r\n\t\tuint tokenId;\r\n\t\tuint quantity;\r\n\t\tuint price;\r\n\t\taddress seller;\r\n\t}\r\n\r\n\tevent TokenPriceListed (uint indexed _tokenId, address indexed _owner, uint _price);\r\n\tevent TokenPriceDeleted (uint indexed _tokenId);\r\n\tevent TokenPriceUnlisted (uint indexed _tokenId);\r\n\tevent TokenSold (uint indexed _tokenId, uint _price, bool _soldForERC20);\r\n\tevent TokenOwned (uint indexed _tokenId, address indexed _previousOwner, address indexed _newOwner);\r\n\tevent TokenBought (uint indexed _tokenId, uint _price, address indexed _previousOwner, address indexed _newOwner, bool _soldForERC20);\r\n\tevent Token1155OfferListed (uint indexed _tokenId, uint indexed _offerId, address indexed _owner, uint _quantity, uint _price);\r\n\tevent Token1155OfferDeleted (uint indexed _tokenId, uint indexed _offerId);\r\n\tevent Token1155PriceUnlisted (uint indexed _tokenId, uint indexed _offerId);\r\n\tevent Token1155Sold(uint indexed _tokenId, uint indexed _offerId, uint _quantity, uint _price, bool _soldForERC20);\r\n\tevent Token1155Owned (uint indexed _tokenId, address indexed _previousOwner, address indexed _newOwner, uint _quantity);\r\n\tevent Token1155Bought (uint _tokenId, uint indexed _offerId, uint _quantity, uint _price, address indexed _previousOwner, address indexed _newOwner, bool _soldForERC20);\r\n\r\n\taddress public signerAddress;\r\n\taddress owner;\r\n\r\n\tbytes32 public name = \"ExchangeStreak\";\r\n\r\n\tuint public offerIdCounter;\r\n\tuint public safeVolatilityPeriod;\r\n\r\n\tIERC20 public erc20Contract;\r\n\tIERC721 public erc721Contract;\r\n\tIERC1155 public erc1155Contract;\r\n\r\n\tmapping(address => uint) public nonces;\r\n\tmapping(uint => uint) public ERC721Prices;\r\n\tmapping(uint => ERC1155Offer) public ERC1155Offers;\r\n\tmapping(address => mapping(uint => uint)) public tokensListed;\r\n\r\n\tconstructor (\r\n\t\taddress _signerAddress,\r\n\t\taddress _erc721Address,\r\n\t\taddress _erc1155Address,\r\n\t\taddress _erc20Address\r\n\t)\r\n\t{\r\n\t\trequire (_signerAddress != address(0));\r\n\t\trequire (_erc721Address != address(0));\r\n\t\trequire (_erc1155Address != address(0));\r\n\t\trequire (_erc20Address != address(0));\r\n\r\n\t\towner = msg.sender;\r\n\t\tsignerAddress = _signerAddress;\r\n\t\terc721Contract = IERC721(_erc721Address);\r\n\t\terc1155Contract = IERC1155(_erc1155Address);\r\n\t\terc20Contract = IERC20(_erc20Address);\r\n\r\n\t\tsafeVolatilityPeriod = 4 hours;\r\n\t}\r\n\r\n\tfunction listToken(\r\n\t\tuint _tokenId,\r\n\t\tuint _price\r\n\t)\r\n\texternal\r\n\t{\r\n\t\trequire(_price > 0);\r\n\t\trequire(erc721Contract.ownerOf(_tokenId) == msg.sender);\r\n\t\trequire(ERC721Prices[_tokenId] == 0);\r\n\t\tERC721Prices[_tokenId] = _price;\r\n\t\temit TokenPriceListed(_tokenId, msg.sender, _price);\r\n\t}\r\n\r\n\tfunction listToken1155(\r\n\t\tuint _tokenId,\r\n\t\tuint _quantity,\r\n\t\tuint _price\r\n\t)\r\n\texternal\r\n\t{\r\n\t\trequire(_price > 0);\r\n\t\trequire(erc1155Contract.balanceOf(msg.sender, _tokenId) >= tokensListed[msg.sender][_tokenId] + _quantity);\r\n\r\n\t\tuint offerId = offerIdCounter++;\r\n\t\tERC1155Offers[offerId] = ERC1155Offer({\r\n\t\t\ttokenId: _tokenId,\r\n\t\t\tquantity: _quantity,\r\n\t\t\tprice: _price,\r\n\t\t\tseller: msg.sender\r\n\t\t});\r\n\r\n\t\ttokensListed[msg.sender][_tokenId] += _quantity;\r\n\t\temit Token1155OfferListed(_tokenId, offerId, msg.sender, _quantity, _price);\r\n\t}\r\n\r\n\tfunction removeListToken(\r\n\t\tuint _tokenId\r\n\t)\r\n\texternal\r\n\t{\r\n\t\trequire(erc721Contract.ownerOf(_tokenId) == msg.sender);\r\n\t\tdeleteTokenPrice(_tokenId);\r\n\r\n\t\temit TokenPriceUnlisted(_tokenId);\r\n\t}\r\n\r\n\tfunction removeListToken1155(\r\n\t\tuint _offerId\r\n\t)\r\n\texternal\r\n\t{\r\n\t\trequire(ERC1155Offers[_offerId].seller == msg.sender);\r\n\t\tdeleteToken1155Offer(_offerId);\r\n\r\n\t\tERC1155Offer memory offer = ERC1155Offers[_offerId];\r\n\r\n\t\temit Token1155PriceUnlisted(offer.tokenId, _offerId);\r\n\t}\r\n\r\n\tfunction deleteTokenPrice(\r\n\t\tuint _tokenId\r\n\t)\r\n\tinternal\r\n\t{\r\n\t\tdelete ERC721Prices[_tokenId];\r\n\t\temit TokenPriceDeleted(_tokenId);\r\n\t}\r\n\r\n\tfunction deleteToken1155Offer(\r\n\t\tuint _offerId\r\n\t)\r\n\tinternal\r\n\t{\r\n\t\tERC1155Offer memory offer = ERC1155Offers[_offerId];\r\n\t\ttokensListed[offer.seller][offer.tokenId] -= offer.quantity;\r\n\r\n\t\tdelete ERC1155Offers[_offerId];\r\n\t\temit Token1155OfferDeleted(offer.tokenId, _offerId);\r\n\t}\r\n\r\n\tfunction buyToken(\r\n\t\tuint _tokenId\r\n\t)\r\n\texternal\r\n\tpayable\r\n\t{\r\n\t\trequire(ERC721Prices[_tokenId] > 0, \"token is not for sale\");\r\n\t\trequire(ERC721Prices[_tokenId] <= msg.value);\r\n\r\n\t\taddress tokenOwner = erc721Contract.ownerOf(_tokenId);\r\n\r\n\t\taddress payable payableTokenOwner = payable(tokenOwner);\r\n\t\t(bool sent, ) = payableTokenOwner.call{value: msg.value}(\"\");\r\n\t\trequire(sent);\r\n\r\n\t\terc721Contract.safeTransferFrom(tokenOwner, msg.sender, _tokenId);\r\n\r\n\t\temit TokenSold(_tokenId, msg.value, false);\r\n\t\temit TokenOwned(_tokenId, tokenOwner, msg.sender);\r\n\r\n\t\temit TokenBought(_tokenId, msg.value, tokenOwner, msg.sender, false);\r\n\r\n\t\tdeleteTokenPrice(_tokenId);\r\n\t}\r\n\r\n\tfunction buyToken1155(\r\n\t\tuint _offerId,\r\n\t\tuint _quantity\r\n\t)\r\n\texternal\r\n\tpayable\r\n\t{\r\n\t\tERC1155Offer memory offer = ERC1155Offers[_offerId];\r\n\r\n\t\trequire(offer.price > 0, \"offer does not exist\");\r\n\t\trequire(offer.quantity >= _quantity);\r\n\t\trequire(offer.price * _quantity <= msg.value);\r\n\r\n\t\taddress payable payableSeller = payable(offer.seller);\r\n\t\t(bool sent, ) = payableSeller.call{value: msg.value}(\"\");\r\n\t\trequire(sent);\r\n\r\n\t\terc1155Contract.safeTransferFrom(offer.seller, msg.sender, offer.tokenId, _quantity, \"\");\r\n\r\n\t\temit Token1155Sold(offer.tokenId, _offerId, _quantity, offer.price, false);\r\n\t\temit Token1155Owned(offer.tokenId, offer.seller, msg.sender, _quantity);\r\n\r\n\t\temit Token1155Bought(offer.tokenId, _offerId, _quantity, offer.price, offer.seller, msg.sender, false);\r\n\r\n\t\tif (offer.quantity == _quantity) {\r\n\t\t\tdeleteToken1155Offer(_offerId);\r\n\t\t} else {\r\n\t\t\tERC1155Offers[_offerId].quantity -= _quantity;\r\n\t\t}\r\n\t}\r\n\r\n\tfunction buyTokenForERC20(\r\n\t\tuint _tokenId,\r\n\t\tuint _priceInERC20,\r\n\t\tuint _nonce,\r\n\t\tbytes calldata _signature,\r\n\t\tuint _timestamp\r\n\t)\r\n\texternal\r\n\t{\r\n\t\tbytes32 hash = keccak256(abi.encodePacked(_tokenId, _priceInERC20, _nonce, _timestamp));\r\n\t\tbytes32 ethSignedMessageHash = keccak256(abi.encodePacked(\"\\x19Ethereum Signed Message:\\n32\", hash));\r\n\t\trequire(recoverSignerAddress(ethSignedMessageHash, _signature) == signerAddress, \"invalid secret signer\");\r\n\r\n\t\trequire(nonces[msg.sender] < _nonce, \"invalid nonce\");\r\n\t\tif (safeVolatilityPeriod > 0) {\r\n\t\t\trequire(_timestamp + safeVolatilityPeriod >= block.timestamp, \"safe volatility period exceeded\");\r\n\t\t}\r\n\t\trequire(ERC721Prices[_tokenId] > 0, \"token is not for sale\");\r\n\r\n\t\tnonces[msg.sender] = _nonce;\r\n\r\n\t\taddress tokenOwner = erc721Contract.ownerOf(_tokenId);\r\n\r\n\t\tbool sent = erc20Contract.transferFrom(msg.sender, tokenOwner, _priceInERC20);\r\n\t\trequire(sent);\r\n\r\n\t\terc721Contract.safeTransferFrom(tokenOwner, msg.sender, _tokenId);\r\n\r\n\t\temit TokenSold(_tokenId, _priceInERC20, true);\r\n\t\temit TokenOwned(_tokenId, tokenOwner, msg.sender);\r\n\r\n\t\tdeleteTokenPrice(_tokenId);\r\n\t}\r\n\r\n\tfunction buyToken1155ForERC20(\r\n\t\tuint _offerId,\r\n\t\tuint _quantity,\r\n\t\tuint _priceInERC20,\r\n\t\tuint _nonce,\r\n\t\tbytes calldata _signature,\r\n\t\tuint _timestamp\r\n\t)\r\n\texternal\r\n\t{\r\n\t\tbytes32 hash = keccak256(abi.encodePacked(_offerId, _quantity, _priceInERC20, _nonce, _timestamp));\r\n\t\tbytes32 ethSignedMessageHash = keccak256(abi.encodePacked(\"\\x19Ethereum Signed Message:\\n32\", hash));\r\n\t\trequire(recoverSignerAddress(ethSignedMessageHash, _signature) == signerAddress, \"invalid secret signer\");\r\n\r\n\t\tERC1155Offer memory offer = ERC1155Offers[_offerId];\r\n\r\n\t\trequire(nonces[msg.sender] < _nonce, \"invalid nonce\");\r\n\t\tif (safeVolatilityPeriod > 0) {\r\n\t\t\trequire(_timestamp + safeVolatilityPeriod >= block.timestamp, \"safe volatility period exceeded\");\r\n\t\t}\r\n\t\trequire(offer.price > 0, \"offer does not exist\");\r\n\t\trequire(offer.quantity >= _quantity);\r\n\r\n\t\tnonces[msg.sender] = _nonce;\r\n\r\n\t\terc20Contract.transferFrom(msg.sender, offer.seller, _priceInERC20 * _quantity);\r\n\t\terc1155Contract.safeTransferFrom(offer.seller, msg.sender, offer.tokenId, _quantity, \"\");\r\n\r\n\t\temit Token1155Sold(offer.tokenId, _offerId, _quantity, _priceInERC20, true);\r\n\t\temit Token1155Owned(offer.tokenId, offer.seller, msg.sender, _quantity);\r\n\r\n\t\tif (offer.quantity == _quantity) {\r\n\t\t\tdeleteToken1155Offer(_offerId);\r\n\t\t} else {\r\n\t\t\tERC1155Offers[_offerId].quantity -= _quantity;\r\n\t\t}\r\n\t}\r\n\r\n\tfunction setSigner(\r\n\t\taddress _newSignerAddress\r\n\t)\r\n\texternal\r\n\t{\r\n\t\trequire(msg.sender == owner);\r\n\t\tsignerAddress = _newSignerAddress;\r\n\t}\r\n\r\n\tfunction setSafeVolatilityPeriod(\r\n\t\tuint _newSafeVolatilityPeriod\r\n\t)\r\n\texternal\r\n\t{\r\n\t\trequire(msg.sender == owner);\r\n\t\tsafeVolatilityPeriod = _newSafeVolatilityPeriod;\r\n\t}\r\n\r\n\tfunction recoverSignerAddress(\r\n\t\tbytes32 _hash,\r\n\t\tbytes memory _signature\r\n\t)\r\n\tinternal\r\n\tpure\r\n\treturns (address)\r\n\t{\r\n\t\trequire(_signature.length == 65, \"invalid signature length\");\r\n\r\n\t\tbytes32 r;\r\n\t\tbytes32 s;\r\n\t\tuint8 v;\r\n\r\n\t\tassembly {\r\n\t\t\tr := mload(add(_signature, 32))\r\n\t\t\ts := mload(add(_signature, 64))\r\n\t\t\tv := and(mload(add(_signature, 65)), 255)\r\n\t\t}\r\n\r\n\t\tif (v < 27) {\r\n\t\t\tv += 27;\r\n\t\t}\r\n\r\n\t\tif (v != 27 && v != 28) {\r\n\t\t\treturn address(0);\r\n\t\t}\r\n\r\n\t\treturn ecrecover(_hash, v, r, s);\r\n\t}\r\n}\r\n",
  "sourcePath": "D:\\cupcake\\streak\\solidity\\contracts\\streak\\ExchangeStreak.sol",
  "compiler": {
    "name": "solc",
    "version": "0.8.0+commit.c7dfd78e.Emscripten.clang"
  },
  "schemaVersion": "3.4.2",
  "updatedAt": "2021-09-08T08:21:38.608Z",
  "networkType": "ethereum",
  "devdoc": {
    "kind": "dev",
    "methods": {},
    "version": 1
  },
  "userdoc": {
    "kind": "user",
    "methods": {},
    "version": 1
  }
}